:020000040800F2
:10000000D00400207D1400082D0200082F020008F3
:1000100033020008370200083B020008000000001D
:100020000000000000000000000000003F02000887
:100030004102000800000000430200087D0700089C
:1000400097140008971400089714000897140008E4
:1000500097140008971400089714000897140008D4
:1000600097140008971400089714000897140008C4
:1000700097140008971400089714000897140008B4
:1000800097140008971400089714000897140008A4
:100090009714000897140008971400089714000894
:1000A0009714000897140008971400089714000884
:1000B0009714000897140008971400089714000874
:1000C0009714000897140008971400089714000864
:1000D00097140008370900089714000897140008BF
:1000E0009714000897140008971400089714000844
:1000F0009714000897140008971400089714000834
:100100009714000897140008971400089714000823
:100110009714000897140008971400089714000813
:100120009714000897140008971400089714000803
:10013000DFF80CD002F0AEFE0048004715020008C0
:10014000D004002010B500241AE004EB4400354927
:1001500011F8200090B1002004EB4401314A02F86C
:10016000210004EB4400114601EB8000806828B1B7
:1001700004EB440102EB810188688047601CC4B233
:10018000032CE2D310BD00202CE000EB4001254AF7
:1001900002EB81014988002922DD00EB400102EBDE
:1001A00081014988491E00EB40021E4B03EB82028D
:1001B000518000EB40011A4602EB8101498879B970
:1001C000012100EB400203F8221000EB40011A4627
:1001D00002EB8101898800EB400203EB820251802F
:1001E000411CC8B20328D0D3704710B500F093FA71
:1001F00001F0BAF800F0BEF900F014F900F053FB7A
:1002000000F0D2FB00F0DEFF10BD10B5064800F094
:100210007FFA10BDFFF7E9FFFFF7F7FF01E0FFF7F7
:1002200091FFFCE70000002087010008704700BF35
:10023000FEE700BFFEE700BFFEE700BFFEE7704736
:10024000704770470CB50020019000906C48006822
:1002500040F480306A49086000BF6948006800F4D3
:10026000003000900198401C0190009818B9019846
:10027000B0F5A06FF1D16248006800F4003010B111
:100280000120009001E0002000900098012843D157
:100290005C48006840F010005A4908600846006851
:1002A00020F0030008600846006840F00200086083
:1002B00053484068524948600846406848600846CC
:1002C000406840F4806048600846406820F47C1034
:1002D00048600846406840F4E810486008460068F6
:1002E00040F08070086000BF4548006800F0007072
:1002F0000028F9D04248406820F003004049486097
:100300000846406840F00200486000BF3C48406832
:1003100000F00C000828F9D10CBD10B5FFF792FFD2
:1003200010BD10B53648006840F00100344908603F
:10033000084640683449084031494860084600682A
:10034000324908402E4908600846006820F48020A1
:1003500008600846406820F4FE0048604FF41F0023
:100360008860FFF7DAFF4FF000602949086010BD90
:1003700010B5002100200022214B5B6803F00C0126
:1003800021B1042906D0082928D107E0214B224CAD
:10039000236027E01F4B204C236023E0184B5B6851
:1003A00003F47010164B5B6803F48032022303EBF6
:1003B000904022B9194B4343174C23600DE0104B7A
:1003C0005B6803F4003323B1144B4343124C2360A6
:1003D00003E0104B4343104C236003E00D4B0E4CE5
:1003E000236000BF00BF064B5B68C3F303130C4CD4
:1003F000E15C094B1B68CB40074C236010BD00003B
:1004000000100240002002400000FFF8FFFFF6FE4F
:1004100008ED00E000127A002400002000093D00F1
:100420002800002008B50121142001F055FB01210E
:10043000374801F066F94FF40040ADF8000048205D
:100440008DF803006946334801F08AF82020ADF8A2
:10045000000048208DF8030069462F4801F080F81D
:100460000120ADF8000028208DF8030069462948D6
:1004700001F076F808BD10B5044614B101202749F3
:1004800008702648007868B32021234801F0FBF863
:1004900058B14FF400411F4801F0F5F828B101218F
:1004A0001C4801F0F0F801281CD10A2000F084FF5C
:1004B00000201A4908702021174801F0E4F808B913
:1004C000012010BD4FF40041124801F0DCF808B9DA
:1004D0000220F6E701210F4801F0D5F8012815D1D7
:1004E0000320EEE720210C4801F0CDF801280DD1C2
:1004F000C103084801F0C7F8012807D101210548C8
:1005000001F0C1F810B90120044908700020D8E7B3
:1005100000023000000801400010014038000020B7
:1005200010B504465648844204D10121042001F04C
:10053000D3FA1EE05348844204D10121082001F07F
:10054000CBFA16E05048844204D10121102001F07A
:10055000C3FA0EE04D48844204D10121202001F06D
:10056000BBFA06E04A48844203D10121402001F051
:10057000B3FA10BD38B5002421E0464951F83400E3
:10058000FFF7CEFF434800EBC4008088ADF80000C1
:1005900010208DF8030003208DF802003D4951F82A
:1005A0003400694600F0DCFF3A4A02EBC40291884D
:1005B000384A52F8340001F080F8601CC4B2022CB2
:1005C000DBD3002413E0334850F834002C49884230
:1005D0000BD1304800EBC4008088B0F5004F04D147
:1005E00001212D4801F08DF803E0601CC4B2022CFB
:1005F000E9D300BF38BD10B50446022C00D310BDAE
:10060000244A02EBC4029188224A52F8340001F0D5
:1006100056F800BFF3E710B50446022C00D310BD16
:100620001C4A02EBC40291881A4A52F8340001F0C5
:1006300044F800BFF3E710B50446022C00D310BD08
:10064000144A02EBC4029188124A52F8340001F0B5
:1006500027F848B10F4A02EBC40291880D4A52F8BC
:10066000340001F02CF808E00A4A02EBC402918839
:10067000084A52F8340001F020F800BFDFE700001C
:1006800000080140000C014000100140001401402E
:10069000001801403C0000200002300010B500248A
:1006A0000020FFF7E8FE0446012C04D0022C0BD0FA
:1006B000032C24D111E01348006808B9012000E0A0
:1006C0000020104908601BE00F48006808B90120AD
:1006D00000E000200C49086012E00A48006808B9F0
:1006E000012000E00020074908600848D0F8880190
:1006F00008B9012000E000200349086000E000BFC5
:1007000000BF10BDA0012142888122420080224208
:1007100023490860704730B5224800684FF47A7268
:10072000B0FBF2F1481EB0F1807F01D301201BE045
:10073000481E4FF0E022506150170F22002804DBC2
:1007400013071C0E184B1C5406E013071D0E174B05
:1007500000F00F04241F1D5500BF00204FF0E022C1
:10076000906107201061002008B100BFFEE74FF044
:10077000E02000694FF0E021086130BD10B50C4861
:10078000036840685A1C40F1000009490A6048604B
:1007900003480068804710BD0549086849687047EC
:1007A000580000202400002000E400E018ED00E0E4
:1007B0005000002008B5012144F2040001F08CF93A
:1007C0004FF40070ADF8000018208DF803000320EE
:1007D0008DF8020069466F4800F0C2FE4FF4806059
:1007E000ADF8000004208DF803006946694800F068
:1007F000B7FE08BD1FB5044600940020ADF8040004
:10080000ADF80600ADF80800ADF80C000C20ADF80E
:100810000A006946604801F006FA012240F22441CC
:100820005D4801F098FA01215B4801F088FA1FBD8C
:1008300000B58BB00121084601F041F9574801F09D
:1008400021FC5548001D0090554801900020029061
:100850001420039000200490802005900020069032
:100860000790089009900A9069464C4801F0ACFC4A
:1008700001214A4801F0D3FC01224021464801F001
:100880008FFA0BB000BD08B525208DF800000020C0
:100890008DF801008DF8020001208DF803006846F4
:1008A00001F087FB08BD10B5FFF784FF4FF4E1307E
:1008B000FFF7A0FFFFF7BCFFFFF7E5FF10BD10B586
:1008C00002460023002002E0145C6340401C884282
:1008D000FAD3184610BD10B50446607818B12078D8
:1008E000FFF789FE02E02078FFF795FE10BD10B5F6
:1008F0002C48007800B910BD00202A49087028480B
:100900000078552803D126484078AA2800D0F2E77D
:1009100006212348FFF7D3FF21498979884200D077
:10092000E9E71F48C078062803D11D48001DFFF7DE
:10093000D2FF00BFDFE710B540F22441164801F0B6
:10094000EFFAD0B1144801F06BFA0021134801F01E
:1009500066FC124801F07AFCC0F1140084B2072C46
:1009600002D101200F49087014210C4801F06CFCE1
:1009700001210A4801F053FC00BF10BD00BF064A28
:10098000128802F04002002AF9D0C2B2024B1B1DAD
:100990001A807047000801400038014058000240AA
:1009A000840000205C00002008B501210C2001F02B
:1009B00093F81020ADF8000003208DF802001020FD
:1009C0008DF803006946FA4800F0CAFD2020ADF812
:1009D000000003208DF8020010208DF80300694606
:1009E000F34800F0BDFD8020ADF8000003208DF835
:1009F000020010208DF803006946ED4800F0B0FDBC
:100A00004020ADF8000003208DF8020004208DF88E
:100A100003006946E64800F0A3FD0120ADF80000A0
:100A200003208DF8020010208DF803006946E1488C
:100A300000F096FD08BD2DE9F04106460025202175
:100A4000DB4800F03CFE022000F0A7FC1021D84853
:100A500000F035FE022000F0A0FC7E2000EA4600F7
:100A600040F08007082420E007F0800020B18021BA
:100A7000CF4800F022FE03E08021CD4800F01FFEA9
:100A8000022000F08AFC2021C94800F016FE022056
:100A900000F083FC7806070E2021C54800F00FFE09
:100AA000022000F07AFC601EC4B2002CDCDC0824BA
:100AB00016E02021BE4800F000FE022000F06DFC90
:100AC0006806050E4021BA4800F0DDFD05432021EF
:100AD000B74800F0F4FD022000F05FFC601EC4B2D5
:100AE000002CE6DC2021B24800F0E7FD022000F0F7
:100AF00054FC1021AE4800F0E0FD022000F04DFC57
:100B00002846BDE8F0812DE9F04106460D4620213A
:100B1000A74800F0D4FD1021A54800F0D0FD7E20AC
:100B200000EA4607082420E007F0800020B1802179
:100B30009F4800F0C2FD03E080219D4800F0BFFD0A
:100B4000022000F02AFC2021994800F0B6FD022086
:100B500000F023FC7806070E2021954800F0AFFD39
:100B6000022000F01AFC601EC4B2002CDCDC082459
:100B700020E005F0800020B180218D4800F09DFD2F
:100B800003E080218A4800F09AFD022000F005FC75
:100B90002021874800F091FD022000F0FEFB68064E
:100BA000050E2021824800F08AFD022000F0F5FBAE
:100BB000601EC4B2002CDCDC20217D4800F07DFDED
:100BC000022000F0EAFB1021794800F076FD0220B7
:100BD00000F0E3FBBDE8F08110B50121754800F09D
:100BE0006CFD012000F0D9FB0121724800F067FD87
:100BF000012000F0D2FB01216E4800F05EFD0120D3
:100C000000F0CBFB0F210120FFF77DFF00BF01208B
:100C1000FFF711FF00F010000028F8D1012000F0CC
:100C2000BCFB3D211120FFF76EFF1E212D20FFF799
:100C30006AFF00212C20FFF766FF8D212A20FFF795
:100C400062FF3E212B20FFF75EFF40211520FFF7BA
:100C50005AFF262010BD70B505460C4600262846D2
:100C6000FFF7E9FE064646EA04012846FFF74BFF78
:100C700070BD70B505460C4600262846FFF7DBFE22
:100C8000064626EA04012846FFF73DFF70BD2DE920
:100C9000FE4F0646884691469A46DDF830B0BB20A6
:100CA00002900020019000900C2E06D00E2E09D14B
:100CB000122001901020009005E077200190302054
:100CC000009000E000BF00BF019840F080010220CA
:100CD000FFF719FF80210420FFF7CBFF002101203F
:100CE000FFF711FF80210A20FFF7B5FF002505E07F
:100CF00018F805100920FFF706FF6D1C4D45F7D3C6
:100D000031460120FFF7FFFE0C2E03D180210D207C
:100D1000FFF7A1FF0420FFF78EFE044640F2DC55EA
:100D200000BF0420FFF787FE04466D1E35B104F0B6
:100D3000010018B9009820400028F2D080210D2031
:100D4000FFF797FF95B30620FFF775FE00F01B0035
:100D500068BB262002900198204000F0010008B1F5
:100D6000CC2002900C2E29D10A20FFF764FE044605
:100D70000C20FFF760FE00F007072FB1601E07EBA5
:100D8000C000CBF8000002E0E000CBF8000004B99E
:100D90000124122C00DD1224002505E00920FFF7B4
:100DA0004AFE0AF805006D1CA542F7D306E003E0F1
:100DB00000080140000C0140BB20029080210C2063
:100DC000FFF749FF00210120FFF79DFE0298BDE8D3
:100DD000FE8F10B51420FFF72EFE044604F003002A
:100DE00018B903211420FFF736FF10BD10B50321F9
:100DF0001420FFF73EFF10BD2DE9F041074688465D
:100E0000154604210520FFF734FF00210120FFF7DC
:100E10007AFE80210A20FFF71EFF002405E0395DDD
:100E20000920FFF770FE601CC4B24445F7DB0321C4
:100E30000120FFF768FEFF2400BF0520FFF7FBFD40
:100E40000646601EC4B21CB106F004000028F4D0AF
:100E50002220FFF7F0FD28702120FFF7ECFD6870DD
:100E6000BDE8F08110B588B050208DF80800002052
:100E70008DF809000DF10A02022102A8FFF7BCFF5C
:100E800007A802AB042202A900900C20FFF7FFFE86
:100E90000446262008B010BD70B588B005460C4643
:100EA00008210846FFF7E5FE07210D20FFF72BFE7E
:100EB00003211420FFF7CFFE8DF8085007A802ABDE
:100EC000012202A900900C20FFF7E1FE0646262E23
:100ED00009D10798102806D19DF8080020709DF8C8
:100EE0000900607000E0BB26304608B070BDF0B568
:100EF00087B00546002708210846FFF7BAFE002103
:100F00000D20FFF700FE80210E20FFF7B2FE932098
:100F10008DF8040020208DF8050006A801AB022200
:100F200001A900900C20FFF7B2FE0646262E10D134
:100F3000002407E001A8005D285501A8005D474096
:100F4000601CC4B2042CF5DB01A8005DB84200D0DF
:100F5000BB2680210E20FFF77EFE304607B0F0BD95
:100F600070B588B0054693208DF8080070208DF884
:100F7000090000208DF80E0000240BE0295D02AA74
:100F8000A01C11549DF80E00295D48408DF80E00FC
:100F9000601CC4B2042CF1DB0DF10F02072102A882
:100FA000FFF72AFF08210846FFF763FE07A802ABF8
:100FB000092202A900900C20FFF769FE0646262EA2
:100FC00003D10798182800D100E0BB26304608B0AE
:100FD00070BD2DE9F04387B006460F46904699460E
:100FE0008DF804608DF80570002406E018F80410F0
:100FF00001AAA01C1154601CC4B2062CF6DB00240C
:1010000007E019F8041001AA04F108001154601C4B
:10101000C4B2062CF5DB06A801AB0C2201A9009096
:101020000E20FFF734FE0546262D05D10820FFF7D8
:1010300002FD00F0080000B9BB25284607B0BDE856
:10104000F083F0B587B005460E4630208DF80400D9
:101050008DF805500DF10602022101A8FFF7CCFE24
:1010600006A801AB042201A900900C20FFF70FFE97
:101070000746262F0CD10698902809D1002404E0B9
:1010800001A8005D3055601CC4B2102CF8DB00E0F4
:10109000BB27384607B0F0BDF0B587B006460F460F
:1010A000A0208DF804008DF805600DF106020221E4
:1010B00001A8FFF7A1FE06A801AB042201A9009038
:1010C0000C20FFF7E4FD0546262D08D106980428DC
:1010D00005D19DF8040000F00F000A2800D0BB25C0
:1010E000262D22D1002404E0385D01A90855601C9A
:1010F000C4B2102CF8DB05AA102101A8FFF77CFE72
:1011000006A801AB122201A900900C20FFF7BFFD39
:101110000546262D08D10698042805D19DF804001F
:1011200000F00F000A2800D0BB25284607B0F0BD0C
:1011300070B51B495220FFF7AFFE0546262D06D09D
:10114000FFF74AFDFFF752FEFFF743FE70BD15A003
:1011500001F034FF002406E01148065D314614A07A
:1011600001F02CFF641C022CF6D30D48FFF7BFFEE4
:101170000546262D00D0E9E70EA001F01FFF002450
:1011800006E00748065D314609A001F017FF641C20
:10119000042CF6D30AA001F011FF00BFD6E700002F
:1011A00098000020BFA8B5C4C0E0D0CD3A00000030
:1011B00025580000BFA8D0F2C1D0BAC53A0000003F
:1011C0000D0A000008B50121042000F085FC012073
:1011D000ADF8000000208DF803006946504800F08B
:1011E000BFF900F0FDF808BD10B50521002000F0A2
:1011F0002BF910BD70B50024002507E0FFF7F4FFC0
:101200000444052000F0D8F8681CC5B20A2DF5DBAF
:101210000A20B4FBF0F4A0B270BD2DE9F04F89B004
:10122000002500270EE0FFF7DFFF834601F024FCD6
:101230008046294601F077FA0546052000F0BCF803
:10124000781CC7B20A2FEEDB3649284601F0F5FAC2
:1012500005463549284601F0BEFA07464FF08B4156
:1012600001F0EBFA0446204601F00BFC00222F4B64
:10127000CDE9020101F01FFB0746884621462A48B6
:1012800001F0A3FA834601F0FCFB3A464346CDE960
:10129000040101F082FBCDE9060101F005FC0646E0
:1012A000DFF88C90304601F0ECFBCDE902014846B6
:1012B00001F0E7FB07461F4A1F4B01F0FCFACDE99E
:1012C0000001DDE9022301F068FB4FF060421B4B97
:1012D000CDE9040102F094FBCDE9060101F0E4FB45
:1012E0008246504609B0BDE8F08F70B5FFF782FF27
:1012F000134908800846018812A001F05FFEFFF73D
:101300008CFF144908600846006801F0BAFB0446E7
:1013100022460B4610A1134801F060FE70BD00008C
:1013200000080140000020410000A0400000E03F14
:10133000E17AD440A089B0E1E9152740F0F4E43F18
:1013400060000020D1CCCEEDC5A8B6C83A202564F7
:101350000D0A000064000020252E326670706D209A
:1013600020202000AC0000201948006820F0807088
:10137000174908600846006840F08070086015480A
:10138000006820F00100134908600846006840F03A
:10139000010008600020486070470E4A51680E4AFC
:1013A00012680E4BB2FBF3F2504300BF094A526879
:1013B000521A8242FAD3704730B50446002504E041
:1013C0004FF47A70FFF7E9FF6D1CA542F8D330BDEA
:1013D000FCED00E0001000E02400002040420F007F
:1013E00000B585B00121480200F076FB4FF40040C3
:1013F00000F0D6FA0020009003904FF46020029095
:1014000000208DF805008DF8040001208DF81000F3
:101410006946194800F087FF0121174800F0AFFF27
:10142000154800F0CEFF00BF134800F0CFFF0128A1
:10143000FAD0114800F0D4FF00BF0F4800F0D5FFEC
:101440000128FAD005B000BD70B504460D462B4604
:1014500001222146084800F0FEFF0121064800F065
:10146000CEFF00BF0221044801F03AF90028F9D06C
:10147000014801F057F870BD00240140064880473C
:1014800006480047FEE7FEE7FEE7FEE7FEE7FEE769
:10149000FEE7FEE7FEE7FEE7230300083101000850
:1014A00010B50446CC48844208D10121042000F044
:1014B0002DFB0021042000F029FB46E0C7488442B0
:1014C00008D10121082000F021FB0021082000F0B4
:1014D0001DFB3AE0C248844208D10121102000F0EF
:1014E00015FB0021102000F011FB2EE0BD488442C6
:1014F00008D10121202000F009FB0021202000F06C
:1015000005FB22E0B848844208D10121402000F0C8
:10151000FDFA0021402000F0F9FA16E0B3488442B9
:1015200008D10121802000F0F1FA0021802000F094
:10153000EDFA0AE0AE48844207D10121801500F09F
:10154000E5FA0021A01500F0E1FA10BD10B5012167
:10155000084600F0DBFA0021012000F0D7FA10BDA8
:101560002DE9F0410246002500260020002300243A
:10157000002791F803C00CF00F0591F803C00CF0A0
:10158000100CBCF1000F03D091F802C04CEA050525
:1015900091F800C0BCF1000F31D0146800202BE09E
:1015A0004FF0010C0CFA00F3B1F800C00CEA03068E
:1015B0009E4220D183004FF00F0C0CFA03F7BC437E
:1015C00005FA03FC4CEA040491F803C0BCF1280FAF
:1015D00006D14FF0010C0CFA00FCC2F814C00AE06E
:1015E00091F803C0BCF1480F05D14FF0010C0CFA83
:1015F00000FCC2F810C0401C0828D1D31460B1F818
:1016000000C0BCF1FF0F34DD546800202EE000F173
:10161000080C4FF0010808FA0CF3B1F800C00CEA0E
:1016200003069E4221D183004FF00F0C0CFA03F702
:10163000BC4305FA03FC4CEA040491F803C0BCF176
:10164000280F05D100F1080C08FA0CF8C2F8148034
:1016500091F803C0BCF1480F07D100F1080C4FF01E
:10166000010808FA0CF8C2F81080401C0828CED3F4
:101670005460BDE8F0814FF6FF7101800221817056
:101680000421C17070470246002093680B400BB1E3
:10169000012000E0002070470146886880B2704752
:1016A00002460020D3680B400BB1012000E000206F
:1016B00070470146C86880B2704701617047416158
:1016C00070470AB1016100E041617047C160704735
:1016D0004FF480320A43826181618261826982694A
:1016E000704702460020434B18684FF6807318403D
:1016F00040EA021008433F4B186070473E49C861FA
:101700007047F0B50A46002300240021002500F0B0
:101710000046B6F1004F02D1364EF16901E0354E78
:101720007168C0F3034583B200F44016B6F5401F5C
:1017300008D121F070612F4E766826F070662D4F2B
:101740007E6012E000F48016B6F5801F06D10326F5
:1017500006FA05F4A14341F0706106E0460D36013A
:1017600003FA06F6B14341F0706122B1460D36012D
:1017700003FA06F6314300F00046B6F1004F02D1FD
:101780001C4EF16101E01B4E7160F0BD30B50022CE
:101790008B071C0F0F2303FA04F2164B08338C102F
:1017A00053F824309343134C08348D1044F82530FB
:1017B00023468C1053F824308C07240F00FA04F4CD
:1017C00023430C4C08348D1044F8253030BD0A49B1
:1017D000DC3108607047000000080140000C014047
:1017E000001001400014014000180140001C01409D
:1017F000002001400000014000002042DF48006856
:1018000040F00100DD49086008464068DC490840B6
:10181000DA49486008460068DA490840D749086054
:101820000846006820F4802008600846406820F4DC
:10183000FE0048604FF41F0088607047CF49096878
:1018400021F48031CD4A11601146096821F48021CC
:101850001160B0F5803F03D0B0F5802F0ED106E0C7
:10186000C649096841F48031C44A116007E0C349A0
:10187000096841F4A021C14A116000E000BF00BF27
:10188000704710B501460022002300204A11012AAA
:1018900002D1BA4C236806E0022A02D1B74C236A6F
:1018A00001E0B64C636A01F01F02012494401C4021
:1018B0000CB1012000E0002010BD38B500200090E0
:1018C0000024002500BF3120FFF7DBFF054600980C
:1018D000401C00900098B0F5A06F01D0002DF2D010
:1018E0003120FFF7CEFF08B1012400E0002420469C
:1018F00038BD01460020A14A106820F0F80040EAF7
:10190000C10010607047A04908607047024600207F
:101910009A4B586820F47C1042EA01031843974B15
:101920005860704798490866704701460020934AFE
:10193000506820F003000843506070478F484068AB
:1019400000F00C007047014600208C4A506820F0DF
:10195000F00008435060704701460020874A5068F5
:1019600020F4E06008435060704701460020834A3D
:10197000506820F4605040EAC1005060704729B1BF
:101980007E4A527A02437D4B5A7204E07B4A527A75
:1019900082437A4B5A7270477B49D831086070474E
:1019A00001460020754A506820F4404008435060CA
:1019B00070470021714A20321170704A82F820105D
:1019C000012802D004280AD104E001216B4A203208
:1019D000117005E00521694A2032117000E000BF56
:1019E00000BF70476949086070476449096A01434C
:1019F000624A11627047654944390860704730B5E2
:101A000000210022002400235C4D6D6805F00C01CC
:101A100021B1042905D0082923D105E05C4D0560DA
:101A200022E05B4D05601FE0544D6D6805F47012B7
:101A3000524D6D6805F48034022505EB92421CB9C5
:101A4000544D554305600BE04C4D6D6805F4003571
:101A50001DB1504D5543056002E04D4D55430560A5
:101A600002E04B4D056000BF00BF444D6D6805F0BE
:101A7000F0010909484D6B5C0568DD4045603F4D4C
:101A80006D6805F4E061090A434D6B5C4568DD4013
:101A900085603A4D6D6805F46051C90A3E4D6B5C36
:101AA0004568DD40C560354D6D6805F44041890BE2
:101AB0003A4D6B5CC568B5FBF3F5056130BD29B1E6
:101AC0002E4A526902432D4B5A6104E02B4A526957
:101AD00082432A4B5A61704729B1284A92690243CE
:101AE000264B9A6104E0254A92698243234B9A610E
:101AF000704729B1214AD2690243204BDA6104E0E0
:101B00001E4AD26982431D4BDA61704729B11B4AD4
:101B1000D2680243194BDA6004E0184AD268824363
:101B2000164BDA60704729B1144A12690243134B0D
:101B30001A6104E0114A12698243104B1A6170471E
:101B400012494039086070470F49C86470470B4913
:101B5000C87170470948406A40F080700749486280
:101B6000704701460020054A92680A400AB10120E8
:101B700000E0002070470149887270470010024061
:101B80000000FFF8FFFFF6FE0000424280044242E0
:101B900000127A0000093D00680000207800002053
:101BA00010B50446FB48844209D101218803FFF7A0
:101BB000ADFF00214FF48040FFF7A8FF32E0F64868
:101BC000844209D101214804FFF7ADFF00214FF401
:101BD0000030FFF7A8FF25E0F048844209D1012139
:101BE0008804FFF7A0FF00214FF48020FFF79BFF40
:101BF00018E0EB48844209D10121C804FFF793FFA4
:101C000000214FF40020FFF78EFF0BE0E5488442EF
:101C100008D101210805FFF786FF00214FF480104D
:101C2000FFF781FF10BD2DE9F04786B005460E464F
:101C30000024A24600BFA1460027B08900B100BF22
:101C40002F462C8A4CF6FF700440F08804432C8207
:101C5000AC894EF6F3100440B0883189084371898D
:101C600008430443AC81AC8A4FF6FF400440B0897E
:101C70000443AC8201A8FFF7C2FEC648874202D1E6
:101C8000DDF810A001E0DDF80CA0A88900F4004008
:101C900040B10AEBCA0000EB0A1031684900B0FB02
:101CA000F1F807E00AEBCA0000EB0A10316889007E
:101CB000B0FBF1F86420B8FBF0F0040120096421C6
:101CC00001FB1089A88900F4004040B1322000EBEC
:101CD000C900B0FBF1F000F00700044308E0322037
:101CE00000EB09106421B0FBF1F000F00F00044399
:101CF0002C8106B0BDE8F0874FF416510160002139
:101D00008180C18001810C21418100218181704746
:101D100010B502460020108A4FF2FF0318400B88CE
:101D20004C8823438C882343CC8823431843108258
:101D300010BD0021018041808180C180704721B1A8
:101D4000828942F40052828104E082894DF6FF7359
:101D50001A4082817047F0B5034600240026002512
:101D6000002040F66A17B94200D100BF1846C1F3FF
:101D7000421401F01F06012707FA06F5012C01D1D4
:101D80000C3004E0022C01D1103000E014301AB104
:101D900007682F43076002E00768AF430760F0BDA4
:101DA0001AB1838A0B43838202E0838A8B43838246
:101DB0007047028A4FF6F0731A400282028A0A4381
:101DC0000282704782894FF2FF731A4082818289B2
:101DD0000A438281704721B1828942F002028281E6
:101DE00004E082894FF6FD731A4082817047028AAF
:101DF0004FF6DF731A400282028A0A43028270475A
:101E000021B1028A42F48042028204E0028A4BF647
:101E1000FF731A4002827047C1F308028280704744
:101E200001468888C0F308007047818941F00101AC
:101E300081817047028BD2B20283028B42EA012277
:101E400002837047028B02F47F420283028B0A43B3
:101E50000283704721B1828A42F02002828204E02C
:101E6000828A4FF6DF731A408282704721B1828ADC
:101E700042F01002828204E0828A4FF6EF731A4029
:101E80008282704721B1828A42F00802828204E095
:101E9000828A4FF6F7731A408282704721B1828995
:101EA00042F40042828103E08289C2F30E02828101
:101EB000704721B1828A42F40062828204E0828A01
:101EC0004FF2FF731A4082827047828A4FF6FB738B
:101ED0001A408282828A0A438282704721B1828AB2
:101EE00042F00202828204E0828A4FF6FD731A40B9
:101EF0008282704702460020B1F5007F00D100BF0A
:101F000013880B400BB1012000E00020704701F462
:101F10000072B2F5007F00D100BFCA430280704753
:101F200070B50246002400230025002040F66A1602
:101F3000B14200D100BFC1F3421501F01F030126D9
:101F400006FA03F3012D02D19689334006E0022DF3
:101F500002D1168A334001E0968A33400C120126E2
:101F600006FA04F41688344013B10CB1012000E0E5
:101F7000002070BD10B50022002340F66A14A14273
:101F800000D100BF0A1201249440A3B2DC430480B4
:101F900010BD0000003801400044004000480040EF
:101FA000004C00400050004031490143314A11606B
:101FB000704770B5002100230F22C47804B32D4C64
:101FC000246804F4E064C4F5E064210AC1F1040368
:101FD000CA40447804FA03F184781440214309018B
:101FE000254C0678A155047804F01F050124AC4067
:101FF00005786D11AD0005F1E025C5F8004109E057
:10200000047804F01F050124AC401C4D06787611BD
:1020100045F8264070BD1A4A0A400243154B1B1F63
:102020001A60704739B1134A121D12680243114BEE
:102030001B1D1A6006E00F4A121D126882430D4BE9
:102040001B1D1A607047042808D14FF0E021096970
:1020500041F004014FF0E022116107E04FF0E02170
:10206000096921F004014FF0E0221161704700007E
:102070000000FA050CED00E000E400E080E100E083
:1020800080FFFF1F01684FF6FE72114001600021C2
:10209000016041608160C1608D49884208D18C49EE
:1020A0000839496841F00F01894A083A51608AE0CD
:1020B00087491431884208D185490839496841F077
:1020C000F001834A083A51607DE081492831884215
:1020D00008D17F490839496841F470617C4A083A5F
:1020E000516070E07A493C31884208D1784908391A
:1020F000496841F47041764A083A516063E0744996
:102100005031884208D172490839496841F4702138
:102110006F4A083A516056E06D496431884208D1EF
:102120006B490839496841F47001694A083A5160BD
:1021300049E067497831884208D1654908394968DA
:1021400041F07061624A083A51603CE0614988425E
:1021500006D1011F096841F00F01021F116032E032
:102160005C491431884208D15A49091F096841F075
:10217000F001584A121F116025E056492831884263
:1021800008D15449091F096841F47061514A121F6E
:10219000116018E04F493C31884208D14D49091F70
:1021A000096841F470414B4A121F11600BE0494924
:1021B0005031884207D14749091F096841F470210D
:1021C000444A121F1160704710B50022026847F69A
:1021D000F0739A430C6A8B6823430C6923434C6960
:1021E00023438C692343CC6923434C6A23438C6A81
:1021F00023431A430260CB6843600B6883604B68DB
:10220000C36010BD0021016041608160C160016157
:1022100041618161C161016241628162704721B1A6
:10222000026842F00102026004E002684FF6FE73A9
:102230001A40026070471AB103680B43036002E062
:1022400003688B43036070474160704701464868EC
:1022500080B2704701460020002201F080531BB17C
:102260001C4B083B1A6802E0194B083B1A6802EA4B
:1022700001030BB1012000E00020704700F0805105
:1022800019B11449091F086002E011490839486072
:10229000704701460020002201F080531BB10D4B16
:1022A000083B1A6802E00A4B083B1A6802EA01037D
:1022B0000BB1012000E00020704700F0805119B1FF
:1022C0000449091F086002E0014908394860704765
:1022D000080002400804024010B50446FA4884424F
:1022E00008D101214015FFF711FC00216015FFF70F
:1022F0000DFC17E0F548844208D101210015FFF7D5
:1023000005FC00212015FFF701FC0BE0F04884429A
:1023100008D10121C803FFF7F9FB00214FF4004069
:10232000FFF7F4FB10BD30B50246002000235068D3
:10233000E84C20400D790C6844EA052420435060A5
:102340009068E54C2040D1E902542C434D7944EA91
:10235000450420439060D06A20F470000C7C641E19
:10236000E4B2234340EA0350D06230BD0021016053
:10237000017141718160C16001210174704721B117
:10238000826842F00102826003E0826822F001026A
:102390008260704721B1826842F48072826003E0FB
:1023A000826822F480728260704710B50023CBB23D
:1023B0001AB144681C43446002E044689C43446092
:1023C00010BD816841F0080181607047014600201E
:1023D0008A6802F008020AB1012000E0002070477C
:1023E000816841F0040181607047014600208A68DD
:1023F00002F004020AB1012000E00020704721B180
:10240000826842F4A002826003E0826822F4A002A3
:1024100082607047014600208A6802F480020AB197
:10242000012000E00020704710B50A46002100237B
:10243000416821F46041531E41EA4331416010BDBF
:1024400021B1426842F40062426003E0426822F433
:10245000006242607047F0B504460D46002000213E
:10246000092D11DDE068A5F10A0606EB46070726EF
:1024700006FA07F18843A5F10A0606EB460603FAB9
:1024800006F10843E0600CE0206905EB45070726EC
:1024900006FA07F1884305EB450603FA06F10843FF
:1024A0002061072A0FDA606B561E06EB86071F268F
:1024B00006FA07F18843561E06EB860605FA06F172
:1024C0000843606322E00D2A0FDA206BD61F06EB6B
:1024D00086071F2606FA07F18843D61F06EB8606F5
:1024E00005FA06F10843206310E0E06AA2F10D0648
:1024F00006EB86071F2606FA07F18843A2F10D06B0
:1025000006EB860605FA06F10843E062F0BD21B14C
:10251000826842F48012826003E0826822F48012B2
:10252000826070470146C86C80B2704766484C3084
:102530000068704721B1426842F48062426003E063
:10254000426822F480624260704721B1426842F4DE
:102550008052426003E0426822F480524260704739
:102560000A460021816821F4E041114381607047EF
:1025700021B1826842F40042826003E0826822F462
:1025800000428260704721B1826842F40212826088
:1025900003E0826822F40212826070470146002044
:1025A0008A6802F400120AB1012000E0002070479E
:1025B000F0B504461546002000220026092911DD49
:1025C000E068A1F10A0707EB470C072707FA0CF2AE
:1025D0009043A1F10A0707EB470703FA07F21043FC
:1025E000E0600CE0206901EB410C072707FA0CF2D0
:1025F000904301EB410703FA07F210432061A06BFF
:10260000C0F30156EF1C06F1010CA7EB0C0707EB1A
:10261000870C1F2707FA0CF29043EF1C06F1010C00
:10262000A7EB0C0707EB870701FA07F21043A0633B
:10263000F0BD10B50A4600210023816B21F4401142
:10264000531E41EA0351816310BD08B50023009376
:102650000090009B0B440093009B1A6008BD08B5D6
:10266000024600200090009201F12800009B1844CF
:1026700000900098006880B208BD0A4600214168B9
:10268000164B1940114341607047416282627047A6
:102690000A460021416821F01F0111434160704743
:1026A00040B109490831096841F40001064A08327D
:1026B000116007E004490831096821F40001024A69
:1026C00008321160704700000024014000280140DA
:1026D000003C0140FFFEF0FFFDF7F1FFFFFD3FFF73
:1026E0000246002013680B400BB1012000E00020DF
:1026F0007047CA430260704770B50246002000234D
:1027000000240B125568CEB205EA060415681D4078
:1027100015B10CB1012000E0002070BD00220A12AA
:10272000D34303607047F0B480EA0102D40F420043
:10273000B2EB410F02D20246084611464A0042D08F
:10274000C30DDDB2C1F3C752AD1A202D35DAC1F386
:10275000160141F4000204B15242C5F1200602FA0A
:1027600006F12A411044B3EBD05F23D0C4B1012D50
:10277000A0EBC35009DCF0BC4FF0004202EAC352A8
:10278000DBB200F5000000F0FBB9400000F1807002
:1027900000EBC350A0F1807040EAD170490009E01D
:1027A000490841EAC071A0EBC35000F500004008A1
:1027B00000EBC350F0BC00F0DAB96142012202EB39
:1027C0004101001BF6E7F0BC704781F00041AAE729
:1027D00080F00040A7E780EA010210B502F0004354
:1027E000400022D04A001FD0010E01EB1261C0F35D
:1027F0005600C2F3560240F4000042F40002A0FB6F
:10280000022000047F39140400D0401C50EA12401A
:1028100001D44000491EC2B20C0604EBD010401C8B
:102820004008802A02D003E0002010BD20F0010003
:10283000002900DA0020184310BD30B480EA0102FC
:1028400002F0004530F0004221F0004013D090B17A
:10285000C30DD40DC2F31601C0F31600E41A41F4FF
:10286000000140F400027D34914201D3641C00E079
:102870004900002C02DA30BC002070474FF4000001
:102880000023914201D3891A034340084FEA4101D2
:10289000F7D151B1914202D14FF0004105E002D28F
:1028A0004FF0010101E06FF0010103EBC450284437
:1028B00030BC00F05CB92DE9FE4F81EA030404F05E
:1028C000004421F0004100944FF0000B23F000433E
:1028D00050EA01045ED052EA03045BD0C3F30A5409
:1028E000C1F30A552C44A4F2F3340194A0FB025422
:1028F000C1F3130141F48011C3F3130343F48013B4
:1029000001FB024400FB034E840A970A44EA815407
:1029100047EA8357A4FB076802958D0A05FB0785E4
:102920004FEA932C04FB0C542705029D4FEA0658EE
:1029300047EA1637B5EB08056EEB070C870E920ECB
:1029400047EA811742EA8312A7FB0201B6EB0B01AB
:1029500064EB00042B0D43EA0C335E1844EB1C506F
:10296000DA465146E7FB0201C5F313044FEA0B3385
:1029700043EA14534FEA0432019C43EA0603A4F1EC
:102980000C040294009CCDE900B400F036F903B0C9
:10299000BDE8F08F00200146F9E72DE9F04D81EA0E
:1029A000030404F0004B21F0004514464FF0000AE8
:1029B00023F0004150EA050220D054EA01021DD064
:1029C000C5F30A570246C5F31303C1F31300C1F35D
:1029D0000A5640F4801543F48013A7EB0608101B39
:1029E000D64608F2FD3873EB050002D308F1010862
:1029F00001E092185B41B8F1000F03DA00200146B4
:102A0000BDE8F08D00204FF48011064684460EE0AC
:102A1000171B73EB050705D3121B63EB0503064376
:102A20004CEA010C49084FEA300092185B4150EA29
:102A30000107EDD152EA030012D082EA040083EAD2
:102A40000501084305D0101BAB4106D2012200232B
:102A500006E000224FF0004302E06FF00102531045
:102A60001AEB06004CEB085110EB0A0041EB0B018E
:102A7000BDE8F04D00F0B2B896230022114600F0F8
:102A80007FB800F0004230F000400AD0C10D01F5DF
:102A90006071C0F3160042EA0151C20840071143B9
:102AA000704700200146704701F0004330B421F028
:102AB000004150EA010206D00A0DA2F56072C1F38E
:102AC0001301002A02DC30BC00207047440F44EAA6
:102AD000C104C100E01830BC00EBC25000F047B8A0
:102AE00030B50B46014600202022012409E021FADE
:102AF00002F59D4205D303FA02F5491B04FA02F5DB
:102B00002844151EA2F10102F1DC30BD2DE9F05F71
:102B10000546002092469B4688460646814640244C
:102B20001BE0284641464746224600F0D4F953466A
:102B30005A46C01A914110D311461846224600F059
:102B4000BBF92D1A67EB01084F46224601200021F0
:102B500000F0B2F917EB00094E41201EA4F1010468
:102B6000DFDC484631462A464346BDE8F09F00294F
:102B7000A8BF7047401C490008BF20F00100704703
:102B800010B4B0FA80FC00FA0CF050EA010404BF63
:102B900010BC704749B1CCF1200421FA04F411FAB9
:102BA0000CF118BF012121430843A3EB0C01CB1DFD
:102BB0004FEA00614FEA102042BF002010BC70476E
:102BC00000EBC35010440029A4BF10BC7047401C48
:102BD000490008BF20F0010010BC704710B5141E5A
:102BE00073F1000408DA401C41F1000192185B41C6
:102BF0001A4301D120F0010010BD2DE9F04D92469D
:102C00009B4611B1B1FA81F202E0B0FA80F22032B3
:102C1000904600F051F904460F4640EA0A0041EAA6
:102C20000B0153465A46084313D0114653EA01009C
:102C300019D0C8F14002504600F04DF905460E4645
:102C400050465946424600F037F9084305D0012066
:102C500004E020463946BDE8F08D0020054346EAF1
:102C6000E0762C4337430A986305E40AA0EB08009A
:102C70000022FD0A44EA47540A3002D500200146EA
:102C8000E9E7010510196941DDE9084500196941C5
:102C9000BDE8F04DA2E72DE9FE4F804681EA030032
:102CA000C00F0C46009021F0004123F00045B8EB26
:102CB0000200A94105D24046214690461C460B46DB
:102CC000024623F00040104347D0270DC7F30A0007
:102CD000C3F30A510290401A019040286BDAC3F303
:102CE000130040F4801B0098924620B10023D2EBE1
:102CF000030A63EB0B0B01985946C0F140025046A2
:102D000000F0DAF806460D4650465946019A00F0A2
:102D1000F2F810EB08006141002487EA115284EABE
:102D2000E7731A4340D0009A62B3019A012A4FEA2E
:102D3000075215DC001B61EB02014FF0004202EA72
:102D40000752CDE90042001C41F5801132462B4666
:102D5000FFF753FF03B0BDE8F08F40462146F9E787
:102D6000001B61EB0201001C41F5801300185B4160
:102D70002018A2F5001747EB030140EAD570B619F9
:102D80006D4111E06D084FEA360645EAC0754FEA1D
:102D90000752001B61EB0201001C41F5801149083C
:102DA0004FEA30000019514132462B4603B0BDE8CE
:102DB000F04FFFF713BF0098012240000023D0EB33
:102DC000020263EBE073009821464FEAE074B8EB2F
:102DD000000061EB0401E9E783F000435BE781F069
:102DE000004158E770B521F0004303430CD0C1F314
:102DF0000A550024D5EB040564EB0403D617AD1A7D
:102E0000B34102DB0020014670BD201841EB0251A6
:102E100070BD0EB5C10F80EAE0700844CA070021FA
:102E200040F233438DE80E000A460B46FFF7E5FEFD
:102E300003B000BDC1F30A52C1F3130140F2FF33E6
:102E400041F480119A4202DA00200146704740F2B4
:102E500033439A42A2F2334202DC524200F03BB8C2
:102E600000F02AB830B5041E71F1000404DB4FF005
:102E70000044404264EB0101141E73F1000405DBC1
:102E80001C464FF00043524263EB0403994208BFD3
:102E9000904230BD064C074D06E0E06840F001036B
:102EA00094E8070098471034AC42F6D3FDF744F994
:102EB000B8440008D8440008202A04DB203A00FA6D
:102EC00002F1002070479140C2F1200320FA03F381
:102ED000194390407047202A04DB203A21FA02F07F
:102EE0000021704721FA02F3D040C2F12002914044
:102EF000084319467047202A06DBCB17203A41FACF
:102F000002F043EAE07306E041FA02F3D040C2F176
:102F1000200291400843194670472DE9F04D0023E7
:102F20001A461B1A8A4103DB00200146BDE8F08DDA
:102F3000C1F30A52C1F3130141F480154FF0000BA5
:102F4000D10702D100186D41521E0027044640F2FD
:102F5000FF11384601EB620A3E46804602460020D9
:102F60004FF48011FFF7B7FFC2197141BB1846EB50
:102F70000100B4EB030C75EB000C04D3E41A65EB11
:102F8000000517460E46241908F101006D418046E0
:102F90003428E3DDF91946EB0600091BA84103D2EA
:102FA0004FF0FF32134601E0002213461BEB0700EF
:102FB00046EB0A51BDE8F04DFFF710BE0FB4054BCC
:102FC00010B503A9044A029800F07EF910BC5DF820
:102FD00014FB00007D0900087C0000200FB4084BA2
:102FE00010B504A902AA039800F06EF9044602A9DC
:102FF000002000F000FD204610BC5DF814FB00002E
:10300000F7390008490050EAC12018BF04204A0DD2
:1030100018BF40F0010040F2FF72B2EB515F08BFF1
:1030200040F00200012808BF052070472DE9F0415B
:103030004F1E00EBC7010446D1E9000115461E46AC
:1030400037F006020DD02A463346FFF734FC7F1EC8
:1030500004EBC703D3E90023FFF71DFE37F0060298
:10306000F1D1022F25D0042F13D0062F18BFBDE8B1
:10307000F0812A463346FFF71EFCD4E90A23FFF706
:103080000AFE2A463346FFF716FCD4E90823FFF769
:1030900002FE2A463346FFF70EFCD4E90623FFF76B
:1030A000FAFD2A463346FFF706FCD4E90423FFF76E
:1030B000F2FD2A463346FFF7FEFBD4E90223FFF771
:1030C000EAFD2A463346FFF7F6FBD4E90023BDE8C4
:1030D000F041FFF7E0BD0000002213461046014911
:1030E000FFF75BBC0000F03FFFF7D5BD00221346A1
:1030F00010461146FFF751BC40F2013200204FF05C
:10310000E041FFF76FBE0000024A00201107FFF701
:1031100069BE000001FDFFFF02E008C8121F08C1E0
:10312000002AFAD170477047002001E001C1121F48
:10313000002AFBD170470000014908607047000079
:10314000800000202DE9FF5F82B00021DDE904301E
:10315000020DDDF840B0034318D044F61050A2F23F
:10316000FF3242431514119801281FD0A5EB0B0024
:10317000401C5FEA000A4FF000064E4FDFF838911E
:10318000B046504615D5CAF1000413E01198012449
:103190004AA3012801D16FEA0B010298119AC0E9F4
:1031A0000031C0E9024206B0BDE8F09FCBF100005B
:1031B000DFE704460021404A491842EB0450CDE9BC
:1031C000001012E0E00707D032463B464046494631
:1031D000FFF771FB8046894632463B46104619464A
:1031E000FFF769FB06460F466410002CEAD1DDE9C3
:1031F0000401DDE90023BAF1000F06DAFFF75BFBFB
:1032000042464B46FFF757FB05E0FFF7C6FB424639
:103210004B46FFF7C2FB04460E460022284BFFF741
:1032200021FE03D84FF0FF30014607E00022254B76
:1032300020463146FFF72FFDFFF7FCFD102409E083
:10324000002C0ADB0A220023FFF760FC039B3032CC
:103250001A55641E50EA0102F2D1641C039AC4F1AB
:1032600011031444119A012A03D0012208430DD1FD
:103270000AE0084304D000204FF0110B119072E7D0
:10328000A3EB0B056D1E0DE05B4504DD4FF0000266
:1032900005F1010504E003DA4FF00002A5F1010594
:1032A000002AECD002981199C0E90231C0E900452A
:1032B00079E70000000014400000F03F30000000FB
:1032C0000000F0430000E03F2DE9FF4F95B09B4622
:1032D0008946064600250FE2252877D10024274697
:1032E000F84A0121059400E0044316F8013F203B11
:1032F00001FA03F01042F7D130782A2811D06FF08C
:103300002F033078A0F13002092A16D8059A44F02C
:10331000020402EB820203EB42021044761C059089
:10332000EFE759F8042B0592002A03DA504244F4DF
:103330000054059044F00204761C30782E2816D1F3
:1033400016F8010F44F004042A280DD06FF02F0264
:103350003078A0F13003092B09D807EB870302EB83
:103360004303C718761CF3E759F8047B761C3078C2
:103370006C280FD006DC4C2817D068280DD06A289E
:1033800014D104E0742810D07A280FD10DE044F451
:1033900000140AE044F4801401E044F4401472780C
:1033A000824202D104F58014761C761C307866289F
:1033B0000BD013DC582877D009DC002875D04528BD
:1033C000F6D04628F4D047281AD19DE118E06328AA
:1033D00035D0642879D0652812D195E1702873D052
:1033E00008DC6728F1D069286FD06E280DD06F28CF
:1033F00006D1B5E073282CD0752875D0782874D004
:103400005A46179990476D1C75E1C4F30250022883
:1034100009D003280DD0D9F8001004280DD00D6074
:1034200009F1040967E1D9F80010EA17C1E900526F
:10343000F6E7D9F800100D80F2E70D70F0E719F803
:10344000041B8DF8001000208DF80100EA460120D1
:1034500003E059F804AB4FF0FF3061074FF0000173
:1034600002D40DE008F101018846B9420FDA804527
:10347000F8DB1AF808100029F4D108E008F101017E
:1034800088468142FADB1AF808100029F6D105981F
:103490005B46A0EB080721463846179A00F094FADD
:1034A000284400EB080507E04DE029E10DE01AF89B
:1034B000010B5A4617999047B8F10108F7D25B46BD
:1034C00021463846179A13E142E00A220092C4F3DB
:1034D00002524FF0000A022A08D059F804CB032AFE
:1034E0004FEAEC710AD00DE029E02AE009F107016A
:1034F00021F00702F2E802C1914609E00FFA8CFCC4
:103500004FEAEC71042A03D14FFA8CFC4FEAEC71BC
:10351000002907DA0A460021DCF1000C61EB020108
:103520002D2202E0220504D52B228DF80420012251
:1035300003E0E20701D02022F7E7904659E00A2194
:1035400002E010220DE010214FF0000A00910BE084
:1035500010224FF0000A44F004040827009203E010
:1035600008224FF0000A0092C4F30252022A05D04A
:1035700059F804CB0021032A08D009E009F107011A
:1035800021F00702F2E802C1914605E01FFA8CFC27
:10359000042A01D10CF0FF0C4FF00008220728D5B7
:1035A000702806D0009B83F0100353EA0A0305D06D
:1035B0000EE040228DF80420012208E05CEA0102BE
:1035C00006D030228DF804208DF8050002229046A6
:1035D000009B83F0080353EA0A030AD15CEA010264
:1035E00001D1620705D530228DF804204FF0010883
:1035F0007F1E582804D034A003900EA802900DE03E
:1036000036A0F9E753466046009AFFF77FFA8446F2
:103610000398825C0298401E029002705CEA0100EE
:10362000F0D1029806A9081A00F1200A600702D515
:1036300024F4803400E00127574502DDA7EB0A009F
:1036400000E0002000EB0A01009005984144401A78
:103650000590E00306D45B462146179A059800F0D2
:10366000B3F90544002706E001A85A46C05D179942
:1036700090476D1C7F1C4745F6DBE0030CD55B468D
:103680002146179A059800F09FF9054404E0302080
:103690005A46179990476D1C0099481E00900029C2
:1036A000F5DC08E0029802995A460078491C02911C
:1036B000179990476D1CBAF10001AAF1010AF1DCDB
:1036C00065E10000092801003031323334353637E6
:1036D000383961626364656600000000303132335E
:1036E00034353637383941424344454600000000FE
:1036F00000F058F90544761C307800287FF4ECADD2
:1037000019B02846BDE8F08F620700D4062709F1FA
:10371000070222F0070CFCE80223E14603F0004810
:103720005FEA080C02D00FF2702C0DE05FEA045C37
:1037300002D50FF2682C07E05FEAC47C02D00FF2DA
:10374000602C01E0AFF2700C4FF0FF3823F0004323
:10375000CDF850C065280CD006DC452809D0462895
:103760001DD047283DD13DE0662818D067287ED17E
:1037700038E00021112F01DB112000E0781CCDE999
:10378000000106A90EA8FFF7DDFCDDE90F010E9A86
:1037900003910021009207F1010A04914DE04FF0DE
:1037A00000400097CDE9011006A90EA8FFF7CAFC5A
:1037B000DDE90F0203920E9B11990022DDF80CA0A7
:1037C0000093049211B9791C00EB010AB7EB0A00CF
:1037D00004D4C0F1FF3007F1010A0490AAEB0700FE
:1037E000019044E0012F00DA01270021112F01DDB3
:1037F000112000E03846CDE9000106A90EA8FFF728
:10380000A1FCDDE90F010E9A0391002104910092C1
:10381000BA4621070CD40399514500DA8A46BAF119
:10382000010F05DD009AAAF10101515C302908D091
:10383000B84202DA10F1040F06DA0121CDE90110D5
:1038400015E0AAF10101E9E7002805DC049901442B
:103850000491AAEB000102E0411C514500DD8A46BB
:103860000499401A401C01904FF00040029020073C
:1038700004D40198504501DBCDF8048000208DF878
:103880004F0002980DF14F07B0F1004F25D02B20CB
:103890000E9002984FF0020800280CDA4042029085
:1038A0002D200E9007E00A210298FFF719F9303118
:1038B000029007F8011DB8F10001A8F10108F2DC3F
:1038C00002980028EFD1791E0E980870307800F029
:1038D000200040F0450007F8020D12A8C01B00F1BF
:1038E00007081498007800B1012000EB0A01019844
:1038F00001EBE07105984144401A401E0590E00339
:1039000006D45B462146179A059800F05DF80544F9
:103910001498007818B15A46179990476D1CE00327
:1039200024D55B462146179A059800F04DF80544CA
:103930001CE00498002807DBDDE90301884203DD71
:103940000098405C179901E0179930205A4690473B
:10395000049805F10105401C04900198401E019057
:1039600004D12E205A46179990476D1CBAF10001D8
:10397000AAF1010ADDDC05E017F8010B5A46179998
:1039800090476D1CB8F10001A8F10108F4DC5B461A
:103990002146179A0598ABE62D0000002B00000089
:1039A000200000002DE9F041044600251E46174680
:1039B000880404D405E039462020B0476D1C641EFD
:1039C000F9D52846BDE8F0812DE9F04104460025EF
:1039D0001E469046C80301D5302700E02027880402
:1039E00004D505E041463846B0476D1C641EF9D544
:1039F0002846BDE8F0810A68531C0B6010707047C0
:103A00002DE9F04D1D460C4698B0174621F00041B7
:103A100023F00043002814BF4FF0010C4FF0000CBE
:103A20000CEB440CFE4A0CEB02064FEA620C6645B6
:103A30002BD33E0018BF012606EB45061644F94A73
:103A4000964222D3F84A53EA070C02D0944205D199
:103A500048B918B000201146BDE8F08D002808BF15
:103A60004FF0000C01D04FF0010C0CEB440212F5AA
:103A7000001F0AD8002F14BF4FF0010C4FF0000CAC
:103A80000CEB450212F5001F07D918B03A462B4639
:103A90002146BDE8F04DFFF727BB0022DFF88CA3DD
:103AA000002CB8BF534526DADFF884C36345A8BFAE
:103AB000022220DADFF870C39C451CDCDFF874C3F7
:103AC0000CEB235CBCF1140F08DDCCF1340627FAB3
:103AD00006FC0CFA06F6BE420DD108E05FB9CCF147
:103AE000140623FA06FC0CFA06F69E4203D10CF0EB
:103AF0000102C2F1020251EA000C19D1002D17DABD
:103B0000002C18BF022A01D0012A07D00220FFF79B
:103B100013FB18B0BDE8F04DFFF7DEBA0220FFF747
:103B20000BFBFFF7D9FA18B081F00041BDE8F08D2A
:103B3000B7F1000C6CD1534525D104F1804212F548
:103B4000801201BF00280020B74918B008BFBDE8A7
:103B5000F08DB548884207DC002DA1BF604629469C
:103B600018B0BDE8F08D07E0281E05DA80F00041AE
:103B700018B06046BDE8F08DAF497944D1E9000145
:103B800018B0BDE8F08DDFF8A0C2634525D1002D47
:103B90001FDA19B1514512D1D8B909E0002840F017
:103BA000EC82A24A214618B062F31E01BDE8F08DF6
:103BB0000020214618B060F31E01BDE8F08D08DA40
:103BC00018B02346BDE8F04D024600206146FEF7DE
:103BD000E4BE18B02146BDE8F08D514518DAB5F1C4
:103BE000804F0DD0A5F1005CBCF1FF5C10D1B4F1A9
:103BF000000C0DDB18B06146BDE8F04D00F0ECBBE9
:103C0000234618B00246BDE8F04D1946FEF753BEF4
:103C1000060024F0004C3BD1D9B1514533D1002CE2
:103C200006DD002DA1BF0020514618B0BDE8F08D83
:103C3000002C01DD002D1BDB002C13DA002D11DB25
:103C4000012A4FF0000014BF78497C4918B0BDE844
:103C5000F08D022A18BF002C0AD0012A08D1002CAE
:103C600006DA0AE0002CB8BF002D11DA012A04D0D0
:103C7000002018B00146BDE8F08D18B000204FF0CC
:103C80000041BDE8F08DA1F14050B0F17F601AD045
:103C9000012000EBE47050EA020421D0624C521E75
:103CA0004FF0000B104304BF4FF0000B644C65480D
:103CB00083427CDD644A654893421FDD884217DBFE
:103CC000002D25DB37E0002C00DA4AB1022A0CBFB8
:103CD00001204FF0FF3018B0BDE8F04DFFF799B864
:103CE0000120FFF729FA18B0BDE8F04DFFF7FEB943
:103CF0004D4A8A4202DC002D0ADC1CE0814202DAD5
:103D0000002D18DA04E0484B994220DD002D12DD29
:103D10000220FFF711FAFFF7EFF905460E460022E1
:103D2000534658462146FEF7C6FD18B066F31E01FD
:103D30002846BDE8F08D0220FFF7FEF9FFF7E4F911
:103D40000A46214618B062F31E01BDE8F08D00223C
:103D500030466146FFF740F880460E466FF001029C
:103D6000FFF740F84FF05532394BFFF738F842462D
:103D70003346FEF7A0FD0022364BFFF730F88246AF
:103D800042463346049110461946FEF794FD5246CA
:103D9000049BFEF790FD8A4600904FF0C0422E4BE8
:103DA00040463146FEF787FD2C4A2B4B00E027E0CA
:103DB000CDE9060151460098FEF77DFD824601914E
:103DC000274A284B40463146FEF775FD5246019B77
:103DD000FFF702F882460B4602460591DDE906012F
:103DE000FEF759FFDDE90623002688463046FEF738
:103DF000F3FF5246059BFEF7F2FF024600F07EB944
:103E00000020B1F5801F07DA352230466146FEF703
:103E1000E9FF06466FF0340000EB215024E000007B
:103E2000FFFF1F00FFFF0F000000F03F0000F07FCA
:103E30000000404301FCFFFF320900000000F0FFDA
:103E40000000F0BF0000E0410000F043FFFFEF3F43
:103E50005555D53F0000E03F4715F73FFE822B65E3
:103E600044DF5DF80BAE543EA0F2FF300190C1F389
:103E7000130040F07F6141F040510291FE498842B9
:103E8000D8BF002004DDFD498142C8BF012001DD0B
:103E90000D9008E000200D900198401C01900298C0
:103EA000A0F5801002900299F54878440B910D9985
:103EB00000EBC100D0E900230F9330460A920B9922
:103EC000FEF78AFFCDE90601DDE90A2130460F9BA6
:103ED000FEF7E1FE02460B460020EA49FEF75DFDD3
:103EE000059102460B460090DDE90601FEF7E3FC72
:103EF0001490E5488A464FF000087844029900681B
:103F000012904FF0005040EA61010D980F9B01EBB9
:103F1000804000F5002109910A9A1298FEF75CFF93
:103F200032460B9BFEF75BFF42465346FEF7C3FC4F
:103F30000646029140465146099B129AFEF7BBFC89
:103F4000DDE90623FEF74BFF3246029BFEF744FFF6
:103F5000059B009AFEF7AFFC0091149A049053461B
:103F600010461946FEF7A7FC06460246C7480B4610
:103F7000029106217844FFF759F8CDE90510029B1C
:103F8000324610461946FEF796FCDDE90532FEF78B
:103F900092FC05910646534640461946149AFEF790
:103FA0007AFE009B049AFEF786FC3246059BFEF7DC
:103FB00072FECDE905104246534610461946FEF7FB
:103FC0007AFC0022B24B02910A90FEF764FEDDE912
:103FD0000532FEF760FE0E464246AD4B4046FEF708
:103FE000FBFE029B0A9AFEF7F7FEDDE90532FEF7BB
:103FF000F6FE424602910A90334610465146FEF7BD
:104000005AFCCDE906015346149A02990A98FEF724
:1040100052FC8A4602903346424600990498FEF7C5
:104020004AFC5346029AFEF736FE82460B4602468B
:104030000591DDE90601FEF72EFEDDE906230020ED
:1040400088460646FEF7C8FE5246059BFEF7C7FEA9
:10405000824609914FF060428E4B30464146FEF752
:104060002AFC049006918C4A8A4B50460999FEF727
:1040700022FC82460291894A894B30464146FEF72E
:104080001AFC5246029BFEF706FE864B7B440D9AB5
:1040900003EBC203D3E90023FEF7FDFD0E90079169
:1040A0000198FEF7B6FE0591DDE9061382460E9AE9
:1040B0000498FEF7F0FD7C4A7A440D9B02EBC303A3
:1040C000D3E9002300930292FEF7E5FD5246059BDB
:1040D000FEF7E1FD0026884652463046059BFEF776
:1040E0007BFE009B029AFEF777FE069B049AFEF782
:1040F00073FE079B0E9AFEF772FE024600200B46E7
:10410000029038462946FEF7D6FB824601912B469F
:1041100038461946029AFEF75FFE32464346FEF7DE
:10412000CAFB5246019BFEF7B6FD07468A46324659
:10413000434629460298FEF7BEFB05460E463A4620
:104140005346FEF7A8FD594A8846914221DBA8EB69
:10415000020353EA000210D12A463346FEF73CFE22
:10416000CDE90401524A534B38465146FEF793FDC0
:10417000DDE90423FEF776FE21D20220FEF7DCFF04
:10418000FEF7BAFF0A46214618B062F31E01BDE8E9
:10419000F08D494B28F000429A4210D3474A08EB71
:1041A000020353EA00027FF4C6AD2A463346FEF707
:1041B00013FE3A465346FEF755FE7FF6BCAD00228D
:1041C000019228F000403E493E4A01EB20518242D4
:1041D00023DA481C4FF4801121FA00F040443A4A97
:1041E000C0F30A517A44394BA1F2FF31CB4020EAA7
:1041F0000303C0F3130040F48010C1F11401C84060
:1042000012680190B8F1000FBCBF404201902846EF
:104210003146FEF7E1FD05460E462A46334638464E
:104220005146FEF738FD4FF000084246284B404605
:104230000591FEF740FBCDE90601264A264B404694
:104240000599FEF738FB009102902A463346404616
:104250000599FEF7C1FD3A465346FEF7C0FD1F4AD9
:104260001F4BFEF728FB009B029AFEF714FD074642
:10427000884602460B4635E08E9803007AB60B005E
:104280007A0500000000F03FB2050000E0040000E5
:104290000000084009C7EE3FFD033ADCF5015B145E
:1042A000E02F3EBEB80300007C03000000009040F9
:1042B000FE822B654715973C00CC904000346F3F41
:1042C00001FCFFFF0000E03FC8020000FFFF0F00FD
:1042D000432EE63F396CA80C615C20BEEF39FAFE34
:1042E000422EE63FDDE90601FEF7D5FCDDE90623B7
:1042F00005460E46FEF770FD3A464346FEF76FFD53
:104300000F462A463346009010461946FEF7D3FA68
:10431000824602462E4888460B4605217844FEF721
:1043200085FE52464346FEF7C6FA2A463346FEF756
:1043300056FD80468A463B4628463146009AFEF79F
:10434000BAFA3B46009AFEF7A6FC069100900022BE
:104350004FF0804340465146FEF73EFD0F460C901D
:104360004246534628463146FEF7A5FA3B460C9A8C
:10437000FEF713FB069B009AFEF72EFD2A463346F6
:10438000FEF72AFD0022134BFEF729FD0546019892
:104390000E4601EB00510815002810DC2846314676
:1043A000019AFEF71FFDFEF72DFE042808BFFEF759
:1043B000ABFE28463146019AFEF714FD05460B4632
:1043C00018B02A4658462146BDE8F04DFEF773BAAC
:1043D000680100000000F03F2DE9F04106460F465D
:1043E000FEF79BFD041E0D4618BF0120284320F058
:1043F0000040C0F17F6000F1E040C00F0ED0301CE3
:1044000018BF0120384320F00040C0F17F6000F168
:10441000E040C00F04BF0120FEF78EFE2046294673
:10442000BDE8F08100000000000000000000F03F47
:10443000000000000000F83F000000000000000045
:104440000000004003B8E23F000000000000000050
:1044500006D0CF43EBFD4C3E033333333333E33FDE
:10446000FFAB6FDBB66DDB3F4D268F515555D53F0A
:1044700001411DA96074D13F65DBC9934A86CD3FD8
:10448000EF4E454A287ECA3F3E5555555555C53FC6
:1044900093BDBE166CC166BF2CDE25AF6A56113FB8
:1044A000F16BD2C541BDBBBED0A4BE726937663EBA
:1044B0000000000000000000D844000800000020B8
:1044C00084000000183100085C45000884000020CA
:1044D0004C0400002831000800000A000A00000017
:1044E0009D060008000014001400000031110008AF
:1044F0000000C800C8000000EF08000800A24A043D
:104500000000000000000000010203040607080983
:1045100001000000000801400001000000140140FB
:104520000400000000000000000000000000000087
:10453000000000000000000000000000000000007B
:104540000000000001020304010203040607080939
:0C4550000204060800000000000000004B
:0400000508000131BD
:00000001FF
