:020000040800F2
:1000000070050020B52100083502000837020008FD
:1000100065020008690200086D0200080000000087
:100020000000000000000000000000007102000855
:100030007302000800000000750200089107000824
:10004000CF210008CF210008CF210008CF210008D0
:10005000CF210008CF210008CF210008CF210008C0
:10006000CF210008CF210008CF210008CF210008B0
:10007000CF210008CF210008CF210008CF210008A0
:10008000CF210008CF210008CF210008CF21000890
:10009000CF210008CF210008CF210008CF21000880
:1000A000CF210008CF210008CF210008CF21000870
:1000B000CF210008CF210008CF210008CF21000860
:1000C000CF210008CF210008CF210008CF21000850
:1000D000CF21000853090008CF210008CF210008D4
:1000E000CF210008CF210008CF210008CF21000830
:1000F000CF210008CF210008CF210008CF21000820
:10010000CF210008CF210008CF210008CF2100080F
:10011000CF210008CF210008CF210008CF210008FF
:10012000CF210008CF210008CF210008CF210008EF
:10013000DFF80CD003F0BCFE004800471D020008A9
:100140007005002010B500241AE004EB4400374984
:1001500011F8200090B1002004EB4401334A02F86A
:10016000210004EB4400114601EB8000806828B1B7
:1001700004EB440102EB810188688047601CC4B233
:10018000052CE2D310BD00202CE000EB4001274AF3
:1001900002EB81014988002922DD00EB400102EBDE
:1001A00081014988491E00EB4002204B03EB82028B
:1001B000518000EB40011A4602EB8101498879B970
:1001C000012100EB400203F8221000EB40011A4627
:1001D00002EB8101898800EB400203EB820251802F
:1001E000411CC8B20528D0D3704710B500F0A3FA5F
:1001F00001F0A4FF00F0D8F900F02EF900F061FB47
:1002000001F03CF901F0FFFD01F0EDFE01F054FFBB
:1002100010BD10B5064800F08BFA10BDFFF7E5FFE2
:10022000FFF7F7FF01E0FFF78DFFFCE7000000207C
:1002300087010008704788B000BFEFF308810846C7
:10024000016807914168069181680591C168049130
:10025000016903914169029181690191C16900912C
:1002600000BFFEE700BFFEE700BFFEE700BFFEE7FE
:1002700070477047704700000CB500200190009057
:100280006C48006840F480306A49086000BF6948E3
:10029000006800F4003000900198401C0190009824
:1002A00018B90198B0F5A06FF1D16248006800F468
:1002B000003010B10120009001E000200090009873
:1002C000012843D15C48006840F010005A4908609A
:1002D0000846006820F0030008600846006840F007
:1002E0000200086053484068524948600846406828
:1002F00048600846406840F48060486008464068AE
:1003000020F47C1048600846406840F4E8104860DB
:100310000846006840F08070086000BF45480068EB
:1003200000F000700028F9D04248406820F0030037
:10033000404948600846406840F00200486000BFFD
:100340003C48406800F00C000828F9D10CBD10B5FD
:10035000FFF792FF10BD10B53648006840F001006D
:1003600034490860084640683449084031494860CB
:1003700008460068324908402E490860084600686F
:1003800020F4802008600846406820F4FE004860A1
:100390004FF41F008860FFF7DAFF4FF00060294933
:1003A000086010BD10B5002100200022214B5B68C1
:1003B00003F00C0121B1042906D0082928D107E057
:1003C000214B224C236027E01F4B204C236023E06D
:1003D000184B5B6803F47010164B5B6803F48032B3
:1003E000022303EB904022B9194B4343174C23607F
:1003F0000DE0104B5B6803F4003323B1144B43430F
:10040000124C236003E0104B4343104C236003E085
:100410000D4B0E4C236000BF00BF064B5B68C3F35F
:1004200003130C4CE15C094B1B68CB40074C236069
:1004300010BD000000100240002002400000FFF844
:10044000FFFFF6FE08ED00E000127A003C000020FD
:1004500000093D004000002008B50121142002F0F1
:10046000D7F90121374801F0E8FF4FF40040ADF81B
:10047000000048208DF803006946334801F00CFF66
:100480002020ADF8000048208DF8030069462F4871
:1004900001F002FF0120ADF8000028208DF80300D4
:1004A0006946294801F0F8FE08BD10B5044614B1AC
:1004B0000120274908702648007868B32021234886
:1004C00001F07DFF58B14FF400411F4801F077FF64
:1004D00028B101211C4801F072FF01281CD10A201B
:1004E00001F052FE00201A4908702021174801F03F
:1004F00066FF08B9012010BD4FF40041124801F019
:100500005EFF08B90220F6E701210F4801F057FF0E
:10051000012815D10320EEE720210C4801F04FFF00
:1005200001280DD1C103084801F049FF012807D176
:100530000121054801F043FF10B90120044908706A
:100540000020D8E700023000000801400010014000
:100550005000002010B504465648844204D10121C1
:10056000042002F055F91EE05348844204D10121D1
:10057000082002F04DF916E05048844204D10121D0
:10058000102002F045F90EE04D48844204D10121CB
:10059000202002F03DF906E04A48844203D10121BF
:1005A000402002F035F910BD38B5002421E046495D
:1005B00051F83400FFF7CEFF434800EBC4008088B9
:1005C000ADF8000010208DF8030003208DF8020024
:1005D0003D4951F83400694601F05EFE3A4A02EBAB
:1005E000C4029188384A52F8340001F002FF601CBE
:1005F000C4B2022CDBD3002413E0334850F834009B
:100600002C4988420BD1304800EBC4008088B0F5FB
:10061000004F04D101212D4801F00FFF03E0601CC1
:10062000C4B2022CE9D300BF38BD10B50446022C79
:1006300000D310BD244A02EBC4029188224A52F82A
:10064000340001F0D8FE00BFF3E710B50446022CD9
:1006500000D310BD1C4A02EBC40291881A4A52F81A
:10066000340001F0C6FE00BFF3E710B50446022CCB
:1006700000D310BD144A02EBC4029188124A52F80A
:10068000340001F0A9FE48B10F4A02EBC402918880
:100690000D4A52F8340001F0AEFE08E00A4A02EBBF
:1006A000C4029188084A52F8340001F0A2FE00BF4B
:1006B000DFE7000000080140000C0140001001408D
:1006C00000140140001801405400002000023000D6
:1006D00010B50020FFF7E9FE0446012C04D0022CDF
:1006E0000CD0032C1DD113E00F4800780A2804DD3C
:1006F0000D480078401E0C49087013E00A48007845
:10070000322804DA08480078401C0749087009E0DC
:100710000648006808B9012000E00020034908608D
:1007200000E000BF00BF10BD95000020888122427C
:1007300022490860704730B5214800684FF47A724A
:10074000B0FBF2F1481EB0F1807F01D301201BE025
:10075000481E4FF0E022506150170F22002804DBA2
:1007600013071C0E174B1C5406E013071D0E164BE7
:1007700000F00F04241F1D5500BF00204FF0E022A1
:10078000906107201061002008B100BFFEE730BD76
:1007900010B50E4802684068521C40F100000B4939
:1007A0000A6048600548006810B104480068804746
:1007B00010BD0649086849687047000070000020B5
:1007C0003C00002000E400E018ED00E0680000209C
:1007D00008B5012144F2040002F01AF84FF4007049
:1007E000ADF8000018208DF8030003208DF80200FA
:1007F00069466F4801F050FD4FF48060ADF800008D
:1008000004208DF803006946694801F045FD08BDE4
:100810001FB5044600940020ADF80400ADF80600B2
:10082000ADF80800ADF80C000C20ADF80A006946E0
:10083000604802F094F8012240F224415D4802F041
:1008400026F901215B4802F016F91FBD00B58BB0F7
:100850000121084601F0CFFF574802F0AFFA554892
:10086000001D009055480190002002901420039034
:1008700000200490802005900020069007900890AA
:1008800009900A9069464C4802F03AFB01214A4817
:1008900002F061FB01224021464802F01DF90BB035
:1008A00000BD08B525208DF8000000208DF801005E
:1008B0008DF8020001208DF80300684602F015FA59
:1008C00008BD10B5FFF784FF4FF4E130FFF7A0FF3C
:1008D000FFF7BCFFFFF7E5FF10BD10B50246002390
:1008E000002002E0145C6340401C8842FAD31846A2
:1008F00010BD10B50446607818B12078FFF795FE5A
:1009000002E02078FFF7A1FE10BD10B52C4800785A
:1009100000B910BD00202A490870284800785528E1
:1009200003D126484078AA2800D0F2E706212348C0
:10093000FFF7D3FF21498979884200D0E9E71F48B2
:10094000C078062803D11D48001DFFF7D2FF00BF65
:10095000DFE710B540F22441164802F07DF9D0B12E
:10096000144802F0F9F80021134802F0F4FA124892
:1009700002F008FBC0F1140084B2072C02D1012060
:100980000F49087014210C4802F0FAFA01210A48B4
:1009900002F0E1FA00BF10BD00BF064A128802F063
:1009A0004002002AF9D0C2B2024B1B1D1A807047C8
:1009B000000801400038014058000240BC000020FF
:1009C0007400002030B5014601F01F04C1F3451347
:1009D000CA0AE50205EB43151544A8B230BD2DE95E
:1009E000F04706460F4690469A46002445464FEA91
:1009F0004800C0F103094AE07A1991B2321990B265
:100A0000524600F08FFE7A1991B2321B90B25246D4
:100A100000F088FE7A1B91B2321990B2524600F073
:100A200081FE7A1B91B2321B90B2524600F07AFEE0
:100A30003A1991B2721990B2524600F073FE3A1907
:100A400091B2721B90B2524600F06CFE3A1B91B20A
:100A5000721990B2524600F065FE3A1B91B2721BB9
:100A600090B2524600F05EFEB9F1000F05DA0420A4
:100A700000FB049000F1060907E0601B042101FB64
:100A8000009000F10A09681E85B2601C84B2AC4275
:100A9000B2DBAC4237D17A1991B2321990B25246D8
:100AA00000F040FE7A1991B2321990B2524600F02D
:100AB00039FE7A1B91B2321990B2524600F032FEE2
:100AC0007A1B91B2321B90B2524600F02BFE3A19BB
:100AD00091B2721990B2524600F024FE3A1991B2C6
:100AE000721B90B2524600F01DFE3A1B91B2721971
:100AF00090B2524600F016FE3A1B91B2721B90B2B1
:100B0000524600F00FFEBDE8F0872DE9FF4F83B09D
:100B1000804689464946404600F0F2FD0598A0EB24
:100B200008050698A0EB0906002D02DB01200290C3
:100B300003E04FF0FF3002906D42002E02DB0120F7
:100B4000019003E04FF0FF30019076424FEA450AF2
:100B50004FEA460BB54219DDABEB0504002712E066
:100B600049464046109A00F0DDFD002C05DBA4EB61
:100B70000A04019848441FFA80F95C4402984044F2
:100B80001FFA80F87F1CAF42EADD18E0AAEB0604EA
:100B9000002712E049464046109A00F0C3FD002CA1
:100BA00005DBA4EB0B04029840441FFA80F8544480
:100BB000019848441FFA80F97F1CB742EADD07B06C
:100BC000BDE8F08F2DE9F84305460C4616461F4652
:100BD000DDF820804EF67D700090A81982B2234681
:100BE00021462846FFF791FF42F6651004F1010CFB
:100BF000BC441FFA8CF305EB060CACF1010C1FFA98
:100C00008CF204F1010C1FFA8CF105EB060CACF12F
:100C1000010C00901FFA8CF0FFF777FF42F6651089
:100C20000090E01983B2A81982B2E01981B2284677
:100C3000FFF76BFF4EF67D700090E01983B22A46F5
:100C400021462846FFF761FF04F1010CBC44ACF1DA
:100C5000020C1FFA8CF305F1010CB444ACF1020C48
:100C60001FFA8CF204F1010C1FFA8CF105F1010C52
:100C70001FFA8CF0CDF80080FFF747FFBDE8F8833E
:100C80002DE9F84305460C4616461F46DDF8208040
:100C9000B8F1000F39D14EF67D700090A81982B2DC
:100CA000234621462846FFF730FF42F6651004F13F
:100CB000010CBC441FFA8CF305EB060CACF1010CE3
:100CC0001FFA8CF204F1010C1FFA8CF105EB060CF3
:100CD000ACF1010C00901FFA8CF0FFF716FF42F602
:100CE00065100090E01983B2A81982B2E01981B2B0
:100CF0002846FFF70AFF4EF67D700090E01983B298
:100D00002A4621462846FFF700FFB8F1010F39D1E6
:100D100042F665100090A81982B223462146284663
:100D2000FFF7F3FE4EF67D7004F1010CBC441FFA90
:100D30008CF305EB060CACF1010C1FFA8CF204F1FC
:100D4000010C1FFA8CF105EB060CACF1010C0090C4
:100D50001FFA8CF0FFF7D9FE4EF67D700090E01977
:100D600083B2A81982B2E01981B22846FFF7CDFEFE
:100D700042F665100090E01983B22A4621462846C3
:100D8000FFF7C3FEB8F1020F39D14FF6FF700090A4
:100D9000A81982B2234621462846FFF7B6FE4FF631
:100DA000FF7004F1010CBC441FFA8CF305EB060C38
:100DB000ACF1010C1FFA8CF204F1010C1FFA8CF15A
:100DC00005EB060CACF1010C00901FFA8CF0FFF75C
:100DD0009CFE4FF6FF700090E01983B2A81982B212
:100DE000E01981B22846FFF790FE4FF6FF700090A1
:100DF000E01983B22A4621462846FFF786FEBDE861
:100E0000F883F8B504460D4616461F4644F20820FE
:100E10002B463246294600902046FFF776FE48F2E0
:100E200010406A1C93B291B2621C009090B232469C
:100E3000FFF76BFE44F208203B462246294600900D
:100E40002046FFF762FE48F21040631C9AB26B1C0A
:100E500099B2631C009098B23B46FFF756FE4FF6DE
:100E6000FF703B463246394600902046FFF74DFE64
:100E70004FF6FF703B463246294600903046FFF75A
:100E800044FEF8BDF8B506460F4614461D464FF61B
:100E9000FF703B462246394600903046FFF735FE4C
:100EA0004FF6FF702B463246394600903046FFF72A
:100EB0002CFE48F210406A1E93B291B2721C009050
:100EC00090B22246FFF721FE44F208202B4622462C
:100ED000294600903046FFF718FE48F21040631E86
:100EE0009AB27B1C99B2631E009098B22B46FFF712
:100EF0000CFE44F208202B4622463946009020463C
:100F0000FFF703FEF8BD2DE9F84F074688469346E4
:100F10009A46DDF828900097B3E099F80000802801
:100F20003DDA99F800600D2E05D1009F08F1100000
:100F30001FFA80F830E0202E03DDA6F1200086B2F3
:100F400000E00026002422E000251CE004EB06104F
:100F5000E849085C80212941084040B108EB0402BF
:100F600091B27A1990B25A4600F0DCFB09E0D34501
:100F700007D008EB040291B27A1990B2524600F001
:100F8000D1FB681CC5B2082DE0DB601CC4B2102C7C
:100F9000DADB07F1080087B209F1010971E00026E8
:100FA00068E006EB0610D44911F8100099F800101B
:100FB00088425DD106EB0610CF4901EB4000407836
:100FC00099F80110884253D100244FE0002520E019
:100FD00006EB0610C84901EB4000801C10F8141005
:100FE00080202841014041B108EB040291B27A19F6
:100FF00090B25A4600F096FB09E0D34507D008EBC3
:10100000040291B27A1990B2524600F08BFB681C30
:10101000C5B2082DDCDB002524E006EB0610B6493E
:1010200001EB4000801C012101EB4401405C802168
:101030002941084048B108EB040291B27A190832FC
:1010400090B25A4600F06EFB0AE0D34508D008EB98
:10105000040291B27A19083290B2524600F062FB53
:10106000681CC5B2082DD8DB601CC4B2102CADDBE7
:10107000701C86B2502E94DB09F1020907F11000B2
:1010800087B299F8000000287FF447AFBDE8F88FD9
:101090002DE9F05F0646884693469A46DDF828908B
:1010A000E2E099F80000802835DA99F80070202FE6
:1010B00003DDA7F1200087B200E00027002522E031
:1010C00000241CE005EB07108A49095C80202041C0
:1010D000014041B108EB050291B2321990B25A4673
:1010E00000F020FB09E0D34507D008EB050291B2E0
:1010F000321990B2524600F015FB601CC4B2082CA5
:10110000E0DB681CC5B2102DDADB09F1010906F13C
:10111000080086B2A8E000279EE007EB870000EBFE
:101120004710764911F8100099F8001088427CD1D8
:1011300007EB870000EB4710704901EB4000407857
:1011400099F801108842F2D1002580E0002423E0C4
:1011500007EB870000EB4710684901EB4000801C5B
:1011600005EB4501405C80212141084040B108EB7E
:10117000050291B2321990B25A4600F0D3FA09E052
:10118000D34507D008EB050291B2321990B252460E
:1011900000F0C8FA601CC4B2082CD9DB002426E099
:1011A00007EB870000EB4710544901EB4000801C1F
:1011B00005EB4501491C405C80212141084048B1B4
:1011C00008EB050291B23219083290B25A4600F08B
:1011D000A9FA0AE0D34508D008EB050291B232190A
:1011E000083290B2524600F09DFA601CC4B2082C3E
:1011F000D6DB002427E007EB870000EB47103F49D0
:1012000001EB4000801C05EB4501891C405C8021FE
:101210002141084050B108EB050291B23219103259
:1012200090B25A4600F07EFA0BE013E0D34508D0A6
:1012300008EB050291B23219103290B2524600F01A
:1012400071FA601CC4B2082CD5DB681CC5B2182D1D
:10125000FFF67CAF781C87B2142FFFF65EAF09F162
:10126000020906F1180086B299F8000000287FF400
:1012700018AFBDE8F09F2DE9F05F0746884692461B
:101280009946002531E000242BE01D490A9801EB26
:10129000C01000EB850010F804B000261DE080208F
:1012A000304100EA0B0050B108EB050291B207EBA8
:1012B000C402324490B2524600F034FA0BE0CA4500
:1012C00009D008EB050291B207EBC402324490B298
:1012D0004A4600F027FA701CC6B2082EDFDB601CFD
:1012E000C4B2042CD1DB681CC5B2202DCBDBBDE819
:1012F000F09F00000E44000880510008425C000886
:10130000FF49000808B50121084601F081FA0121D2
:101310001C2001F07DFA0121242001F079FA4FF41C
:101320001860ADF8000003208DF8020010208DF841
:1013300003006946F74800F0AFFF4FF4E060ADF8F6
:10134000000003208DF8020010208DF8030069468C
:10135000F14800F0A1FF0121242001F059FA4FF4D7
:101360008070ADF8000010208DF8030003208DF888
:1013700002006946E94800F08FFF4FF48071E748AA
:1013800001F037F80420ADF800006946E44800F0A9
:1013900083FF0421E24801F02CF808BD0021082158
:1013A00014E000F0800222B14FF40072DA4B1A61AF
:1013B00003E04FF40072D84B5A614FF48072D64B61
:1013C0005A611A614206100E4A1ED1B20029E8DCA9
:1013D000704710B504464FF48070CE491431086050
:1013E000802008602046FFF7D9FF4FF48070C9497C
:1013F0001031086010BD10B504464FF48070C54927
:10140000143108608020091F08602046FFF7C6FFDE
:101410004FF48070BF491031086010BD10B504460C
:101420004FF48070BB49143108608020091F0860A8
:101430002012FFF7B3FFE0B2FFF7B0FF4FF4807068
:10144000B4491031086010BD30B505460C46284639
:10145000FFF7BFFF2046FFF7CEFF30BD10B54FF4BA
:101460008060AD494861642000F08EFE4FF48060DA
:10147000A9490861322000F087FE10BD10B5FFF7C2
:1014800041FFFFF7EBFF1120FFF7A3FF782000F0EB
:101490007BFEB120FFF79DFF0120FFF7ACFF2C2062
:1014A000FFF7A9FF2D20FFF7A6FFB220FFF791FF5E
:1014B0000120FFF7A0FF2C20FFF79DFF2D20FFF755
:1014C0009AFFB320FFF785FF0120FFF794FF2C2040
:1014D000FFF791FF2D20FFF78EFF0120FFF78BFF15
:1014E0002C20FFF788FF2D20FFF785FFB420FFF7A2
:1014F00070FF0720FFF77FFFC020FFF76AFFA220E1
:10150000FFF779FF0220FFF776FF8420FFF773FFD4
:10151000C120FFF75EFFC520FFF76DFFC220FFF778
:1015200058FF0A20FFF767FF0020FFF764FFC32082
:10153000FFF74FFF8A20FFF75EFF2A20FFF75BFFD0
:10154000C420FFF746FF8A20FFF755FFEE20FFF784
:1015500052FFC520FFF73DFF0E20FFF74CFF36205E
:10156000FFF737FFC820FFF746FFE020FFF731FF06
:101570000F20FFF740FF1A20FFF73DFF0F20FFF776
:101580003AFF1820FFF737FF2F20FFF734FF2820FE
:10159000FFF731FF2020FFF72EFF2220FFF72BFF60
:1015A0001F20FFF728FF1B20FFF725FF2320FFF751
:1015B00022FF3720FFF71FFF0020FFF71CFF072047
:1015C000FFF719FF0220FFF716FF1020FFF713FFA8
:1015D000E120FFF7FEFE0F20FFF70DFF1B20FFF7B6
:1015E0000AFF0F20FFF707FF1720FFF704FF332044
:1015F000FFF701FF2C20FFF7FEFE2920FFF7FBFE7F
:101600002E20FFF7F8FE3020FFF7F5FE3020FFF721
:10161000F2FE3920FFF7EFFE3F20FFF7ECFE00203F
:10162000FFF7E9FE0720FFF7E6FE0320FFF7E3FEE2
:101630001020FFF7E0FE2A20FFF7CBFE0020FFF787
:10164000DAFE0020FFF7D7FE0020FFF7D4FE7F2050
:10165000FFF7D1FE2B20FFF7BCFE0020FFF7CBFEEB
:101660000020FFF7C8FE0020FFF7C5FE7F20FFF730
:10167000C2FEF020FFF7ADFE0120FFF7BCFEF62012
:10168000FFF7A7FE0020FFF7B6FE3A20FFF7A1FE06
:101690000520FFF7B0FE2920FFF79BFE10BDF0B537
:1016A00006460F4614461D46802C00DB7F24802D05
:1016B00000DB7F252A20FFF78CFE0020FFF79BFE32
:1016C000B11CC8B2FFF797FE0020FFF794FEA11CE3
:1016D000C8B2FFF790FE2B20FFF77BFE0020FFF73C
:1016E0008AFE791CC8B2FFF786FE0020FFF783FE52
:1016F000691CC8B2FFF77FFE2C20FFF76AFEF0BD21
:1017000030B504460D462B46224629462046FFF7B3
:10171000C6FF30BD000C0140001001400008014030
:101720000014014070B504460D461646681C83B28D
:10173000601C82B229462046FFF7B1FF3046FFF712
:101740006DFE70BD60B505460E4631462846FFF772
:10175000D7FFE0B2FFF74FFE204660BD70B50646EA
:101760009F237F2200210846FFF799FF2C20FFF7D7
:1017700030FE002408E0002503E03046FFF74EFE6F
:101780006D1CA02DF9D3641C802CF4D370BD000017
:1017900008B5F648007800283CD14EF67D70FFF77A
:1017A000DDFFF3A04EF67D731F220521009000207F
:1017B000FFF7A9FBF3A04EF67D731F2220210090B6
:1017C0000020FFF7A0FBF2A04EF67D731F22302110
:1017D00000900020FFF797FBF0A04EF67D731F22CC
:1017E000402100900020FFF78EFBEFA04EF67D73A6
:1017F0001F22502100900020FFF785FBEDA04EF640
:101800007D731F22602100900020FFF77CFB0120E8
:10181000D649087008BD38B5E9484EF67D734FF4D7
:101820007842202100904620FFF76DFBE5484EF6F8
:101830007D734FF47842302100904620FFF763FB20
:10184000E1484EF67D734FF47842502100904620D7
:10185000FFF759FBDD484EF67D734FF47842402187
:1018600000904620FFF74FFB2021D94802F0E4FA10
:1018700000F012FC04460A2C00DD0A2414F10A0FC1
:1018800001DA6FF00904D3480068844222D0002CAA
:1018900006DD2346D0A21F21CD4802F03BFB0DE020
:1018A000002C06DA2346CCA21F21C94802F032FBE5
:1018B00004E0CBA21F21C64802F02CFBC4484EF620
:1018C0007D734FF47842602100904620FFF71BFBA8
:1018D000C048046038BDF8B50024C248007800282C
:1018E0003DD14EF67D70FFF739FFBFA04EF67D73F8
:1018F0004FF47842142100901020FFF704FB4FF4BE
:101900007A7000F041FC4EF67D70FFF727FF00BFB4
:1019100020E0032094FBF0F04001401D85B203203D
:1019200094FBF0F100FB114000EB80004FF6FF71DB
:1019300001EAC006AF48005D4EF67D734FF4784271
:10194000294600903046FFF796FC642000F01CFC0E
:10195000601CC4B20A2CDCDB0120A2490870F8BD6F
:1019600008B5A548007800284BD14EF67D70FFF7EA
:10197000F5FEA2A04EF67D731F220A2100901020D2
:10198000FFF7C1FA4FF47A7000F0FEFB4EF67D705F
:10199000FFF7E4FE9DA04EF67D734FF6E072052141
:1019A00000901020FFF7AFFA9CA04EF67D731F2227
:1019B0001E2100901020FFF7A6FA9CA04EF67D7322
:1019C0004FF47842372100901020FFF79CFA9BA03B
:1019D0004EF67D731F22502100900020FFF793FAEE
:1019E0009AA04EF67D734FF4784269210090002052
:1019F000FFF789FA4FF4E16000F0C6FB01207E4951
:101A0000087008BD08B595480078002838D14EF612
:101A10007D70FFF7A3FE92A04EF67D731F220A2170
:101A200000901420FFF76FFAC82000F0ADFB4FF6CE
:101A3000FF70FFF793FE4FF4967000F0A5FB0020B7
:101A4000FFF78CFE4FF4967000F09EFB4FF4784049
:101A5000FFF784FE4FF4967000F096FB4FF4FC60A5
:101A6000FFF77CFE4FF4967000F08EFB1F20FFF70F
:101A700075FE4FF4967000F087FB012077490870DF
:101A800008BD2DE9F04707467848007800283FD187
:101A90004FF6FF70FFF762FE002633E000252EE0D0
:101AA00006EB860C4FEACC0C0CF1270C1FFA8CF3DA
:101AB00005EB850C4FEACC0C0CF1270C1FFA8CF2CD
:101AC00006EB860C4FEACC4C4FEA1C4105EB850C2B
:101AD0004FEACC4C4FEA1C40FFF7E1FD00240AE03E
:101AE00017F8149007EB440090F8018049EA0820A9
:101AF000FFF794FC641CB4F5C86FF1DB6D1C032D7B
:101B0000CEDB761C042EC9DB01205849087000BFCB
:101B1000BDE8F08700201549087032490870364941
:101B200008704E49087051490870704710B5504808
:101B3000007830B94FF400604E49086001204C49EC
:101B400008704D48007805280FD2DFE800F0030840
:101B50000B979A00FFF71CFEFFF75DFE96E0FFF77C
:101B600051FF93E0FFF7B7FE90E08BE07800002094
:101B7000D0A3D4B0B3ACCAD0B9DCC0EDCFB5CDB32F
:101B800000000000BBB7BEB3CEC2B6C83A0000002A
:101B9000BBB7BEB3CAAAB6C83A000000D1CCCEEDDE
:101BA000C5A8B6C83A000000CEC2B6C8C9CFCFDEBD
:101BB0003A000000CDA8B7E7B7E7C9C83A0000006F
:101BC0000E0100202E0100204E010020D000002038
:101BD000EE0000208000002025303364000000006B
:101BE00030303000790000204E756D2054657374DC
:101BF00000000000840000207A000020CEC4D7D668
:101C0000CFD4CABEB2E2CAD400000000B6AFB6AFAD
:101C1000B5E7D7D3BCBCCAF500000000D7A8D7A24F
:101C2000D2BABEA7C5FAB7A200000000C8ABB3CCB9
:101C3000BCBCCAF5D6A7B3D60000000054656C3A08
:101C400031313233393030303937350051513A3152
:101C50003233343635363636390000007B0000200A
:101C6000436F6C6F72205465737400007C00002019
:101C70008E000020100C014064000020FFF770FE71
:101C800004E003E000200249087000BF00BF10BD5F
:101C90006400002038B504464CB11020ADF80000B7
:101CA00003208DF8020010208DF8030005E01020BD
:101CB000ADF8000004208DF8030069466F4800F07D
:101CC000EBFA38BD10B50120FFF7E4FF10216B4897
:101CD00000F091FB142000F057FA1021674800F043
:101CE00088FB0D2000F043FA10BD10B50024002041
:101CF000FFF7D0FF04E0601CC4B2012000F037FA07
:101D000010215E4800F05BFB08B1642CF3DB642C0F
:101D100001DB012010BD002404E0601CC4B20120DE
:101D200000F025FA1021554800F049FB08B9642C51
:101D3000F3DB642C01DB0120ECE70020EAE710B5BF
:101D4000002404E0601CC4B2012000F010FA10214D
:101D50004A4800F034FB08B1642CF3DB002404E0B3
:101D6000601CC4B2012000F002FA1021434800F0C8
:101D700026FB08B9642CF3DB282000F0F8F91021C9
:101D80003E4800F01CFB08B1012010BD0020FCE71C
:101D900070B50024002506E06006040EFFF7CFFFB3
:101DA0000443681CC5B2082DF6DB204670BD7CB527
:101DB00005460E46FFF786FFFFF797FFF8B90024A8
:101DC00005E0FFF7E5FF0DF80400601CC4B2052C28
:101DD000F7DB9DF800009DF8011008449DF8021003
:101DE00008449DF8031008449DF80410884208D167
:101DF0009DF8000030709DF80200287001E001207D
:101E00007CBD0020FCE708B50121042000F000FDA6
:101E10001020ADF800008DF8030003208DF80200BB
:101E20006946164800F038FA1021144800F0E1FA2B
:101E3000FFF748FFFFF759FF08BD10B510491148DB
:101E4000FFF7B5FF38B90F4800780F4908700C4804
:101E500000780E4908700C4802780DA10D4802F078
:101E600071F80A4802780AA10B4802F06BF80B4897
:101E7000027807A10A4802F065F810BD0008014089
:101E80009600002094000020970000209800002079
:101E9000256400000E0100202E0100209500002086
:101EA0004E01002030B58DB005460C460121084694
:101EB00000F0AEFC012142F2140000F0A9FC402029
:101EC000ADF8300018208DF8330003208DF8320073
:101ED0000CA92B4800F0E0F98020ADF830000CA9E7
:101EE000284800F0D9F9ADF82850ADF8244000207A
:101EF000ADF82A00ADF8260009A9234801F05CF9E5
:101F00006020ADF814000120ADF816000420ADF8F3
:101F100018000020ADF81C00ADF81E00ADF81A0046
:101F200005A9194801F085F90821174801F0D0FDED
:101F30000121154801F09CFD4FF40060ADF804004C
:101F40004010ADF806000020ADF80800ADF80A001A
:101F5000ADF80C004FF40050ADF80E004000ADF8A5
:101F6000100001A9084801F043FC0121064801F0D6
:101F70007FFC0121044801F087FC0DB030BD00005A
:101F8000001001400008014000340140002817DB28
:101F900000F01F0201219140414A430942F82310F9
:101FA00000BF00BF00BFBFF34F8F00BF00BF00BF27
:101FB00000BF00BF00BFBFF36F8F00BF00BF00BFF7
:101FC000704710B500221146364801F056FE002237
:101FD0001146344801F060FE002032493431088057
:101FE0003149086010BD10B547210720FFF75AFF9F
:101FF000FFF7E7FF2E20FFF7C9FF2C20FFF7C6FFF2
:102000002D20FFF7C3FF2B20FFF7C0FF10BD0A28CC
:1020100000DD0A20012800DA00202249343108803E
:10202000704710B50446FFF7CCFF0A2000F0ACF86B
:102030002CB9012200211B4801F01FFE04E00422FC
:102040000021184801F028FE10BD10B5174800788F
:1020500017490978884201DD012000E0002004468C
:1020600014480078844216D00CB10A2000E0002009
:102070000D49086008460068002808DD0020FFF7C9
:10208000D0FF0949098888B2FFF7C1FF01E0FFF7D7
:1020900098FF0848047010BD0348006870470000AE
:1020A00080E100E0003401409C000020940000200A
:1020B00095000020A000002008B50121082000F0B4
:1020C000A7FB4FF40040ADF8000010208DF803008E
:1020D00002208DF802006946144800F0DDF84FF444
:1020E0000041124800F085F901201149087008BD2F
:1020F00010B51048007810490978884201DD0120A8
:1021000000E0002004460A48007884420DD02CB13B
:102110004FF40041054800F06EF904E04FF400412F
:10212000024800F066F90248047010BD000C01403E
:10213000A1000020940000209500002010B5FEF7BB
:1021400031F9174800681749B0FBF1F016490860EB
:102150001648006840F08070144908601448006810
:1021600040F00100124908600020486010BD104B8B
:1021700059680D4B1B6800FB03F200BF0C4B5B68FA
:102180005B1A9342FAD3704730B50446002504E049
:102190004FF47A70FFF7EBFF6D1CA542F8D330BD0A
:1021A0003C00002040420F00A4000020FCED00E0B5
:1021B000001000E00648804706480047FEE7FEE7BB
:1021C000FEE7FEE7FEE7FEE7FEE7FEE7FEE7FEE7E7
:1021D000570300083101000810B50446CC4884427A
:1021E00008D10121042000F02DFB0021042000F083
:1021F00029FB46E0C748844208D10121082000F0AD
:1022000021FB0021082000F01DFB3AE0C248844277
:1022100008D10121102000F015FB0021102000F052
:1022200011FB2EE0BD48844208D10121202000F09E
:1022300009FB0021202000F005FB22E0B848844281
:1022400008D10121402000F0FDFA0021402000F0DB
:10225000F9FA16E0B348844208D10121802000F049
:10226000F1FA0021802000F0EDFA0AE0AE48844245
:1022700007D10121801500F0E5FA0021A01500F03A
:10228000E1FA10BD10B50121084600F0DBFA00218B
:10229000012000F0D7FA10BD2DE9F04102460025DB
:1022A0000026002000230024002791F803C00CF032
:1022B0000F0591F803C00CF0100CBCF1000F03D017
:1022C00091F802C04CEA050591F800C0BCF1000F7E
:1022D00031D0146800202BE04FF0010C0CFA00F311
:1022E000B1F800C00CEA03069E4220D183004FF0F3
:1022F0000F0C0CFA03F7BC4305FA03FC4CEA040488
:1023000091F803C0BCF1280F06D14FF0010C0CFA74
:1023100000FCC2F814C00AE091F803C0BCF1480FF9
:1023200005D14FF0010C0CFA00FCC2F810C0401CA3
:102330000828D1D31460B1F800C0BCF1FF0F34DD20
:10234000546800202EE000F1080C4FF0010808FA54
:102350000CF3B1F800C00CEA03069E4221D18300C1
:102360004FF00F0C0CFA03F7BC4305FA03FC4CEAE0
:10237000040491F803C0BCF1280F05D100F1080C4A
:1023800008FA0CF8C2F8148091F803C0BCF1480FA9
:1023900007D100F1080C4FF0010808FA0CF8C2F858
:1023A0001080401C0828CED35460BDE8F0814FF661
:1023B000FF710180022181700421C17070470246C3
:1023C000002093680B400BB1012000E00020704713
:1023D0000146886880B2704702460020D3680B40EF
:1023E0000BB1012000E0002070470146C86880B2B0
:1023F000704701617047416170470AB1016100E0B7
:1024000041617047C16070474FF480320A43826176
:102410008161826182698269704702460020434B74
:1024200018684FF68073184040EA021008433F4B8B
:10243000186070473E49C8617047F0B50A460023EE
:1024400000240021002500F00046B6F1004F02D123
:10245000364EF16901E0354E7168C0F3034583B231
:1024600000F44016B6F5401F08D121F070612F4EE0
:10247000766826F070662D4F7E6012E000F48016BC
:10248000B6F5801F06D1032606FA05F4A14341F0F4
:10249000706106E0460D360103FA06F6B14341F0DD
:1024A000706122B1460D360103FA06F6314300F0A1
:1024B0000046B6F1004F02D11C4EF16101E01B4E07
:1024C0007160F0BD30B500228B071C0F0F2303FA9B
:1024D00004F2164B08338C1053F824309343134CFA
:1024E00008348D1044F8253023468C1053F82430DE
:1024F0008C07240F00FA04F423430C4C08348D108D
:1025000044F8253030BD0A49DC31086070470000CE
:1025100000080140000C014000100140001401407F
:1025200000180140001C0140002001400000014053
:1025300000002042DF48006840F00100DD490860EB
:1025400008464068DC490840DA49486008460068A7
:10255000DA490840D74908600846006820F480201E
:1025600008600846406820F4FE0048604FF41F00F1
:1025700088607047CF49096821F48031CD4A1160E5
:102580001146096821F480211160B0F5803F03D025
:10259000B0F5802F0ED106E0C649096841F48031BC
:1025A000C44A116007E0C349096841F4A021C14A47
:1025B000116000E000BF00BF704710B50146002267
:1025C000002300204A11012A02D1BA4C236806E0F8
:1025D000022A02D1B74C236A01E0B64C636A01F0CB
:1025E0001F02012494401C400CB1012000E0002097
:1025F00010BD38B5002000900024002500BF312018
:10260000FFF7DBFF05460098401C00900098B0F5EE
:10261000A06F01D0002DF2D03120FFF7CEFF08B11E
:10262000012400E00024204638BD01460020A14AD4
:10263000106820F0F80040EAC10010607047A0491F
:1026400008607047024600209A4B586820F47C10BE
:1026500042EA01031843974B58607047984908664F
:10266000704701460020934A506820F00300084359
:10267000506070478F48406800F00C00704701467A
:1026800000208C4A506820F0F000084350607047EA
:1026900001460020874A506820F4E06008435060FB
:1026A000704701460020834A506820F4605040EA99
:1026B000C1005060704729B17E4A527A02437D4B77
:1026C0005A7204E07B4A527A82437A4B5A727047BC
:1026D0007B49D8310860704701460020754A506830
:1026E00020F440400843506070470021714A203276
:1026F0001170704A82F82010012802D004280AD1F3
:1027000004E001216B4A2032117005E00521694A7D
:102710002032117000E000BF00BF704769490860B7
:1027200070476449096A0143624A1162704765490A
:1027300044390860704730B500210022002400238E
:102740005C4D6D6805F00C0121B1042905D0082904
:1027500023D105E05C4D056022E05B4D05601FE084
:10276000544D6D6805F47012524D6D6805F4803457
:10277000022505EB92421CB9544D554305600BE010
:102780004C4D6D6805F400351DB1504D5543056045
:1027900002E04D4D5543056002E04B4D056000BF22
:1027A00000BF444D6D6805F0F0010909484D6B5CB0
:1027B0000568DD4045603F4D6D6805F4E061090A3C
:1027C000434D6B5C4568DD4085603A4D6D6805F4AE
:1027D0006051C90A3E4D6B5C4568DD40C560354DB2
:1027E0006D6805F44041890B3A4D6B5CC568B5FBDB
:1027F000F3F5056130BD29B12E4A526902432D4BD4
:102800005A6104E02B4A526982432A4B5A6170474D
:1028100029B1284A92690243264B9A6104E0254A6D
:1028200092698243234B9A61704729B1214AD26948
:102830000243204BDA6104E01E4AD26982431D4BF9
:10284000DA61704729B11B4AD2680243194BDA603A
:1028500004E0184AD2688243164BDA60704729B107
:10286000144A12690243134B1A6104E0114A1269B7
:102870008243104B1A617047124940390860704713
:102880000F49C86470470B49C87170470948406ACE
:1028900040F0807007494862704701460020054AB1
:1028A00092680A400AB1012000E000207047014907
:1028B00088727047001002400000FFF8FFFFF6FE2C
:1028C000000042428004424200127A0000093D00AA
:1028D000A8000020B800002010B50446FB48844240
:1028E00009D101218803FFF7ADFF00214FF480409B
:1028F000FFF7A8FF32E0F648844209D101214804DD
:10290000FFF7ADFF00214FF40030FFF7A8FF25E0EF
:10291000F048844209D101218804FFF7A0FF00217B
:102920004FF48020FFF79BFF18E0EB48844209D169
:102930000121C804FFF793FF00214FF40020FFF7A7
:102940008EFF0BE0E548844208D101210805FFF71E
:1029500086FF00214FF48010FFF781FF10BD2DE9A5
:10296000F04786B005460E460024A24600BFA146A9
:102970000027B08900B100BF2F462C8A4CF6FF70AB
:102980000440F08804432C82AC894EF6F3100440D6
:10299000B08831890843718908430443AC81AC8A0B
:1029A0004FF6FF400440B0890443AC8201A8FFF712
:1029B000C2FEC648874202D1DDF810A001E0DDF872
:1029C0000CA0A88900F4004040B10AEBCA0000EB5B
:1029D0000A1031684900B0FBF1F807E00AEBCA00C1
:1029E00000EB0A1031688900B0FBF1F86420B8FBF5
:1029F000F0F004012009642101FB1089A88900F48A
:102A0000004040B1322000EBC900B0FBF1F000F013
:102A10000700044308E0322000EB09106421B0FBFA
:102A2000F1F000F00F0004432C8106B0BDE8F08700
:102A30004FF41651016000218180C18001810C2179
:102A4000418100218181704710B502460020108A23
:102A50004FF2FF0318400B884C8823438C88234394
:102A6000CC8823431843108210BD0021018041808F
:102A70008180C180704721B1828942F400528281F5
:102A800004E082894DF6FF731A4082817047F0B5E9
:102A90000346002400260025002040F66A17B942AC
:102AA00000D100BF1846C1F3421401F01F060127F0
:102AB00007FA06F5012C01D10C3004E0022C01D1FB
:102AC000103000E014301AB107682F43076002E0AD
:102AD0000768AF430760F0BD1AB1838A0B43838256
:102AE00002E0838A8B4383827047028A4FF6F07339
:102AF0001A400282028A0A430282704782894FF298
:102B0000FF731A40828182890A438281704721B112
:102B1000828942F00202828104E082894FF6FD73CD
:102B20001A4082817047028A4FF6DF731A40028290
:102B3000028A0A430282704721B1028A42F480422B
:102B4000028204E0028A4BF6FF731A400282704749
:102B5000C1F308028280704701468888C0F30800EC
:102B60007047818941F0010181817047028BD2B2A7
:102B70000283028B42EA012202837047028B02F435
:102B80007F420283028B0A430283704721B1828A0B
:102B900042F02002828204E0828A4FF6DF731A40FC
:102BA0008282704721B1828A42F01002828204E060
:102BB000828A4FF6EF731A408282704721B1828A6F
:102BC00042F00802828204E0828A4FF6F7731A40CC
:102BD0008282704721B1828942F40042828103E0FF
:102BE0008289C2F30E028281704721B1828A42F447
:102BF0000062828204E0828A4FF2FF731A4082826E
:102C00007047828A4FF6FB731A408282828A0A4397
:102C10008282704721B1828A42F00202828204E0FD
:102C2000828A4FF6FD731A40828270470246002066
:102C3000B1F5007F00D100BF13880B400BB101201C
:102C400000E00020704701F40072B2F5007F00D16F
:102C500000BFCA430280704770B5024600240023BB
:102C60000025002040F66A16B14200D100BFC1F332
:102C7000421501F01F03012606FA03F3012D02D1CC
:102C80009689334006E0022D02D1168A334001E0D6
:102C9000968A33400C12012606FA04F41688344052
:102CA00013B10CB1012000E0002070BD10B500226E
:102CB000002340F66A14A14200D100BF0A12012489
:102CC0009440A3B2DC43048010BD000000380140F2
:102CD0000044004000480040004C004000500040CC
:102CE00031490143314A1160704770B5002100231A
:102CF0000F22C47804B32D4C246804F4E064C4F5B6
:102D0000E064210AC1F10403CA40447804FA03F1E3
:102D10008478144021430901254C0678A155047894
:102D200004F01F050124AC4005786D11AD0005F1DC
:102D3000E025C5F8004109E0047804F01F050124EE
:102D4000AC401C4D0678761145F8264070BD1A4AF5
:102D50000A400243154B1B1F1A60704739B1134AD2
:102D6000121D12680243114B1B1D1A6006E00F4A28
:102D7000121D126882430D4B1B1D1A6070470428F8
:102D800008D14FF0E021096941F004014FF0E02241
:102D9000116107E04FF0E021096921F004014FF0D3
:102DA000E0221161704700000000FA050CED00E020
:102DB00000E400E080E100E080FFFF1F01684FF6C3
:102DC000FE72114001600021016041608160C160BC
:102DD0008D49884208D18C490839496841F00F0172
:102DE000894A083A51608AE087491431884208D1FB
:102DF00085490839496841F0F001834A083A516031
:102E00007DE081492831884208D17F4908394968E5
:102E100041F470617C4A083A516070E07A493C3173
:102E2000884208D178490839496841F47041764AA6
:102E3000083A516063E074495031884208D17249C0
:102E40000839496841F470216F4A083A516056E0E8
:102E50006D496431884208D16B490839496841F4A9
:102E60007001694A083A516049E0674978318842FF
:102E700008D165490839496841F07061624A083AE9
:102E800051603CE06149884206D1011F096841F068
:102E90000F01021F116032E05C491431884208D1F1
:102EA0005A49091F096841F0F001584A121F116080
:102EB00025E056492831884208D15449091F09683C
:102EC00041F47061514A121F116018E04F493C31C2
:102ED000884208D14D49091F096841F470414B4AA5
:102EE000121F11600BE049495031884207D1474910
:102EF000091F096841F47021444A121F116070478C
:102F000010B50022026847F6F0739A430C6A8B688A
:102F100023430C6923434C6923438C692343CC69C5
:102F200023434C6A23438C6A23431A430260CB68D1
:102F300043600B6883604B68C36010BD0021016073
:102F400041608160C160016141618161C161016273
:102F500041628162704721B1026842F00102026061
:102F600004E002684FF6FE731A40026070471AB11F
:102F700003680B43036002E003688B430360704700
:102F8000416070470146486880B2704701460020A2
:102F9000002201F080531BB11C4B083B1A6802E071
:102FA000194B083B1A6802EA01030BB1012000E04B
:102FB0000020704700F0805119B11449091F0860C2
:102FC00002E011490839486070470146002000229C
:102FD00001F080531BB10D4B083B1A6802E00A4B0D
:102FE000083B1A6802EA01030BB1012000E000204F
:102FF000704700F0805119B10449091F086002E0D0
:10300000014908394860704708000240080402403E
:1030100010B50446FE48844208D10121C014FFF7D0
:1030200011FC0021E014FFF70DFCC4E0B4F1804F67
:1030300008D101210846FFF712FC00210120FFF70B
:103040000EFCB8E0F348844208D101210220FFF7CA
:1030500006FC00210220FFF702FCACE0EE488442AF
:1030600008D101210420FFF7FAFB00210420FFF71B
:10307000F6FBA0E0E948844208D101210820FFF7CF
:10308000EEFB00210820FFF7EAFB94E0E4488442CD
:1030900008D101211020FFF7E2FB00211020FFF7EB
:1030A000DEFB88E0DF48844208D101212020FFF7C1
:1030B000D6FB00212020FFF7D2FB7CE0DA488442D7
:1030C00008D101214014FFF7BDFB00216014FFF778
:1030D000B9FB70E0D548844209D10121C804FFF74B
:1030E000B1FB00214FF40020FFF7ACFB63E0D048B8
:1030F000844209D101210805FFF7A4FB00214FF408
:103100008010FFF79FFB56E0CA48844209D1012195
:103110004805FFF797FB00214FF40010FFF792FBE3
:1031200049E0C548844208D101214020FFF797FBC0
:1031300000214020FFF793FB3DE0C048844208D1C6
:1031400001218020FFF78BFB00218020FFF787FB08
:1031500031E0BB48844208D101218015FFF77FFB95
:103160000021A015FFF77BFB25E0B648844209D17A
:1031700001210804FFF766FB00214FF48030FFF7C0
:1031800061FB18E0B048844209D101214804FFF7EF
:1031900059FB00214FF40030FFF754FB0BE0AB4824
:1031A000844208D101218804FFF74CFB00214FF431
:1031B0008020FFF747FB10BD00220288944B984205
:1031C0000ED0994B98420BD0B0F1804F08D0914B64
:1031D000984205D0904B984202D0904B984204D12F
:1031E0004FF68F731A404B881A438D4B984207D085
:1031F0008C4B984204D04FF6FF431A40CB881A43B9
:1032000002808B8883850B880385814B98420BD085
:10321000854B984208D08B4B984205D08A4B9842F8
:1032200002D08A4B984201D10B7A03860123838214
:10323000704770B5002400220023058C4FF6FE76FF
:1032400035400584028C8388048B4FF68F752C40A3
:10325000B51E2C400D882C43751E2A400D892A432B
:103260004D882A436A4DA8420BD06F4DA84208D022
:10327000744DA84205D0744DA84202D0734DA842A7
:1032800013D14FF6F7752A404D892A434FF6FB7547
:103290002A408D882A434FF6FF652B404FF6FF5595
:1032A0002B408D892B43CD892B4383800483CD888C
:1032B0008586028470BD70B5002400220023058C31
:1032C0004FF6EF7635400584028C8388048B48F6F0
:1032D000FF752C404FF6FF452C400D884FF6FF76CA
:1032E00006EA05252C434FF6DF752A400D8906EACC
:1032F00005152A434D8806EA05152A43444DA84280
:1033000002D0494DA8421DD14FF67F752A404D8904
:103310004FF6FF7606EA05152A434FF6BF752A4099
:103320008D8806EA05152A434FF6FF352B404FF2EC
:10333000FF752B408D8906EA85052B43CD8906EA6A
:1033400085052B4383800483CD880587028470BD67
:1033500070B5002400220023058C4FF6FF6635402F
:103360000584028C8388848B4FF68F752C404FF632
:10337000FC752C400D882C434FF6FF552A400D89D3
:103380004FF6FF7606EA05252A434D8806EA05250D
:103390002A431F4DA84202D0234DA8421DD14FF20F
:1033A000FF752A404D894FF6FF7606EA05252A4328
:1033B0004FF6FF352A408D8806EA05252A434EF64A
:1033C000FF752B404DF6FF752B408D8906EA0515DC
:1033D0002B43CD8906EA05152B4383808483CD8852
:1033E0008587028470BD70B5002200230024058CFF
:1033F0004EF6FF7635400584038C8488828B48F630
:10340000FF752A404FF6FF452A400D8820E0000056
:10341000002C01400004004000080040000C004067
:10342000001000400014004000340140004C0140F6
:10343000005001400054014000180040001C0040B2
:10344000002000400040014000440140004801408D
:103450004FF6FF7606EA05252A434DF6FF752B4009
:103460000D8906EA05352B434D8806EA05352B43C1
:10347000FA4DA84202D0FA4DA84208D14BF6FF758A
:103480002C408D894FF6FF7606EA85152C43848003
:103490008283CD88A0F84050038470BD828B4FF2A8
:1034A000FF331A408283828B4FF6FF7303EA0123B6
:1034B0001A4382837047F0B50C461546002200215E
:1034C0000026078C4EF6FF7C07EA0C070784828BE8
:1034D000018C4FF6FF7707EA043640F6FF473A4083
:1034E0004FF6FF7707EA05273A434FF6FF7707EADB
:1034F00003373A43D94FB8420ED0D94FB8420BD018
:10350000B0F1804F08D0D74FB84205D0D64FB8425F
:1035100002D0D64FB84206D14DF6FF77394046F477
:103520008057394305E047F6FF57394044F4805748
:10353000394382830184F0BD828B4FF6F3731A40C6
:103540008283828B0A4382837047F0B50C4615460E
:10355000002200210026078C4FF6FF6C07EA0C07BB
:103560000784828B018C4FF6FF7707EA04264FF61B
:103570000C773A404FF6FF7707EA03172F433A4399
:10358000B64FB8420ED0B64FB8420BD0B0F1804F14
:1035900008D0B44FB84205D0B34FB84202D0B34FB1
:1035A000B84206D14FF6FF57394046F48077394389
:1035B00005E04FF2FF57394044F480773943828366
:1035C0000184F0BD028B4FF2FF331A400283028B5D
:1035D0004FF6FF7303EA01231A4302837047F0B5E5
:1035E0000C461546002200210026078C4FF6EF7C82
:1035F00007EA0C070784028B018C4FF6FF7707EA76
:10360000041640F6FF473A404FF6FF7707EA0337C4
:103610003A434FF6FF7707EA05273A438F4FB84200
:103620000ED08F4FB8420BD0B0F1804F08D08D4FE5
:10363000B84205D08C4FB84202D08C4FB84206D168
:103640004FF6DF77394046F01007394305E04FF673
:103650005F77394044F01007394302830184F0BD9D
:10366000028B4FF6F3731A400283028B0A430283E4
:103670007047F0B50C46154600220021068C4FF627
:10368000FE773E400684028B018C4FF60C7632406A
:103690007E1C06EA03162E433243704EB0420ED013
:1036A0006F4EB0420BD0B0F1804F08D06D4EB0429B
:1036B00005D06D4EB04202D06C4EB04206D14FF6EE
:1036C000FD76314044F00106314305E04FF6F576D2
:1036D000314044F00106314302830184F0BD70B5EE
:1036E00005460C465D4885420ED05D4885420BD0AC
:1036F000B5F1804F08D05B48854205D05A488542D5
:1037000002D05A48854200D100E000BF208850B95D
:103710002389A28861882846FFF7ABFFE188284605
:10372000FFF79EFF25E0208804280AD12389A2887C
:1037300061882846FFF753FFE1882846FFF742FFDC
:1037400017E0208808280AD12389A28861882846A2
:10375000FFF7FBFEE1882846FFF7EEFE09E023892C
:10376000A28861882846FFF7A6FEE1882846FFF771
:1037700095FE70BD2DE9F04105460C460026012757
:10378000608808B9022600E00026A088012801D13F
:10379000022700E001272088A0B92389A288618838
:1037A0002846FFF766FFE1882846FFF759FF23897F
:1037B0003A4631462846FFF712FFE1882846FFF7D0
:1037C00001FF13E02389A28861882846FFF707FFDD
:1037D000E1882846FFF7F6FE23893A463146284617
:1037E000FFF747FFE1882846FFF73AFFBDE8F08181
:1037F0000A884B881A438B881A43CB881A430B8953
:103800001A434B891A438B891A43A0F84420704706
:103810004FF6FF71818000210180C18041800172DB
:1038200070470021018041808180C18001814181F8
:103830008181C18170470021018041800121818007
:103840000021C18001817047002101804180818079
:10385000C18001814181818170470000002C0140BD
:10386000003401400004004000080040000C00400B
:1038700021B1028842F00102028004E002884FF682
:10388000FE731A400280704731B1B0F8442042F410
:103890000042A0F8442005E0B0F84420C2F30E0234
:1038A000A0F8442070471AB183890B43838102E05A
:1038B00083898B43838170478182704741EA020389
:1038C000A0F8483070471AB183890B43838102E026
:1038D00083898B438381704701894FF6F8721140C9
:1038E000018170470A46002101894FF68F73194004
:1038F00011430181704730B504460D4629462046E4
:10390000FFF7F0FF208940F00700208130BD2DE94E
:10391000F04104460D4616461F46602D06D13B4633
:10392000012231462046FFF75AFE05E03B460122C0
:1039300031462046FFF79DFE29462046FFF7D2FF7D
:10394000208940F007002081BDE8F08130B50C46A9
:1039500000210189C9B24FF6FF7505EA0325154319
:1039600025432943018130BD2DE9F04105460E462E
:1039700017469846002443463A4631462846FFF704
:10398000E5FF2C894FF6F870044044F007044FF629
:103990008F70044044F070042C81BDE8F081F0B5D4
:1039A00004460D4616461F463B46324629462046EB
:1039B000FFF7CCFF208940F480402081F0BD0185D5
:1039C000828270470A46002101884FF68F731940A2
:1039D000114301807047F0B50C4615461E46002184
:1039E000002200230189028B038C4FF6F8773940BF
:1039F00021434FF6FC473A4040F201173A434FF655
:103A0000DD773B404FF6FF7707EA06172F433B432E
:103A1000018102830384F0BD0A460021018B4FF629
:103A20008F7319401143018370470A460021018BAF
:103A300048F6FF7319404FF6FF7303EA0223194358
:103A4000018370470A460021818B4FF68F7319401E
:103A50001143818370470A460021818B48F6FF732A
:103A600019404FF6FF7303EA02231943818370471D
:103A700021B1028842F08002028004E002884FF601
:103A80007F731A400280704721B1828842F004029D
:103A9000828004E082884FF6FB731A408280704770
:103AA00021B1828842F00802828004E082884FF6C9
:103AB000F7731A408280704721B1828842F0010278
:103AC000828004E082884FF6FE731A40828070473D
:103AD0000A460021018B4FF6F77319401143018309
:103AE00070470A460021018B4FF2FF7319404FF6D1
:103AF000FF7303EA02231943018370470A4600213A
:103B0000818B4FF6F77319401143818370470A4642
:103B10000021818B4FF2FF7319404FF6FF7303EAC8
:103B200002231943818370470A460021018B4FF617
:103B3000FB7319401143018370470A460021018B32
:103B40004FF6FF3319404FF6FF7303EA0223194380
:103B5000018370470A460021818B4FF6FB731940A1
:103B60001143818370470A460021818B4FF6FF3352
:103B700019404FF6FF7303EA02231943818370470C
:103B80000A460021018B4FF67F73194011430183D0
:103B900070470A460021018BC1F30E014FF6FF73F7
:103BA00003EA02231943018370470A460021818BEF
:103BB0004FF67F7319401143818370470A460021F5
:103BC000818BC1F30E014FF6FF7303EA0223194301
:103BD000818370470A460021018C4FF6FD7319401E
:103BE0001143018470470A460021018C4FF6F77398
:103BF00019401143018470470A460021018C4FF699
:103C0000DF7319404FF6FF7303EA0213194301846F
:103C100070470A460021018C4FF67F7319404FF61A
:103C2000FF7303EA02131943018470470A46002117
:103C3000018C4FF6FF5319404FF6FF7303EA02233E
:103C40001943018470470A460021018C4FF2FF732B
:103C500019404FF6FF7303EA0223194301847047AA
:103C60000A460021018C4DF6FF7319404FF6FF7391
:103C700003EA023319430184704730B5002301245D
:103C80008C40A3B2048C9C430484048C02FA01F59A
:103C9000ADB22C43048430BD30B5002304248C40E5
:103CA000A3B2048C9C430484048C02FA01F5ADB2E7
:103CB0002C43048430BD70B5034600200024184610
:103CC000183001258D40ACB21D8CA5431D8409B16F
:103CD000082909D100EB6100056825F07005056031
:103CE0000568154305600EE00D1FC5F34E05284419
:103CF000056825F4E045056005684FF6FF7606EA9D
:103D000002263543056070BD21B1028842F00202EF
:103D1000028004E002884FF6FD731A40028070476B
:103D200021B1028842F00402028004E002884FF6CA
:103D3000FB731A400280704721B1828842F08002F2
:103D4000828004E082884FF67F731A408280704739
:103D500002884FF6F7731A40028002880A430280F5
:103D6000704782884FF68F731A40828082880A4398
:103D70008280704702894FF6F8731A4002810289E7
:103D80000A430281704702894FF67F731A4002810D
:103D900002890A4302817047818470478185704798
:103DA000818670470187704781877047A0F840106F
:103DB000704702884FF6FF431A40028002880A4388
:103DC000028070470146888E70470146088F704711
:103DD0000146888F70470146B1F8400070470146A0
:103DE000888C70470146088D704702460020138A70
:103DF0000B400BB1012000E000207047CA43028253
:103E0000704730B50246002000230024158A05EAD9
:103E10000103958905EA010413B10CB1012000E00A
:103E2000002030BDCA4302827047D2B201E000F8E0
:103E3000012B491EFBD270470022F6E710B513464E
:103E40000A4604461946FFF7F0FF204610BD2DE94B
:103E5000F05F0546002092469B468846064681460E
:103E600040241BE0284641464746224600F041F8E0
:103E700053465A46C01A914110D31146184622465D
:103E800000F028F82D1A67EB01084F462246012062
:103E9000002100F01FF817EB00094E41201EA4F18D
:103EA0000104DFDC484631462A464346BDE8F09F20
:103EB000064C074D06E0E06840F0010394E8070077
:103EC00098471034AC42F6D3FCF736F9C0610008CD
:103ED000E0610008202A04DB203A00FA02F1002009
:103EE00070479140C2F1200320FA03F31943904038
:103EF0007047202A04DB203A21FA02F000217047A3
:103F000021FA02F3D040C2F1200291400843194641
:103F1000704700000FB41CB50246002007AC002912
:103F20000BD0491ECDE90021054B6A462146069873
:103F300000F02CF8009A002111701CBC5DF814FBF5
:103F4000EF4300080FB4084B10B504A902AA039868
:103F500000F01CF8044602A9002000F053FA2046A5
:103F600010BC5DF814FB00000544000802E008C81E
:103F7000121F08C1002AFAD170477047002001E0E3
:103F800001C1121F002AFBD1704700002DE9FF4F2D
:103F90008DB00F460546002606E025280BD0DDE94A
:103FA0000F1290476D1C761C28780028F5D111B0AF
:103FB0003046BDE8F08F0024A246A1460122EC491C
:103FC00000E0044315F8013F203B02FA03F00842E9
:103FD000F7D128782A2810D06FF02F022878A0F186
:103FE0003001092914D80AEB8A0102EB410144F09F
:103FF000020400EB010A6D1CF0E701CF5FEA000A42
:1040000003D544F40054CAF1000A44F002046D1CC4
:1040100028782E2817D115F8010F44F004042A2817
:104020000ED06FF02F022878A0F1300109290AD8AC
:1040300009EB890102EB410100EB01096D1CF2E77C
:1040400057F8049B6D1C28786C280FD006DC4C2890
:1040500017D068280DD06A2814D104E0742810D035
:104060007A280FD10DE044F400140AE044F48014DF
:1040700001E044F440146978814202D104F58014CF
:104080006D1C6D1C2A786E2A1FD00CDC632A31D07F
:1040900004DC002A8BD0582A11D1A3E0642A68D00E
:1040A000692A0CD165E0732A2ED004DC6F2A73D004
:1040B000702A04D19BE0752A6FD0782A6ED0104602
:1040C000DDE90F129047761C50E1C4F3025002283C
:1040D00006D0032809D0042801CF09D0066045E1A5
:1040E00001CFF117C0E9006140E101CF06803DE159
:1040F00006703BE117F8040B8DF8000000208DF8E6
:104100000100EB46012003E057F804BB4FF0FF30FD
:1041100061074FF0000102D40DE008F1010188466B
:1041200049450FDA8045F8DB1BF808100029F4D167
:1041300008E008F1010188468142FADB1BF808100B
:104140000029F6D1DDE90F23AAEB080081462146BC
:1041500000F036F9304400EB080604E0DDE90F1208
:104160001BF8010B9047B8F10108F7D221464846E9
:10417000F7E00A21C4F302534FF0000B0891022B21
:1041800004D001CFC117032B09D00AE0FF1D27F08F
:104190000707F7E8020108E032E01FE020E000B284
:1041A000C117042B01D140B2C117031E71F10003E6
:1041B00007DA4FF0000CD0EB0C006CEB01012D2363
:1041C00002E0230504D52B238DF82430012303E0DE
:1041D000E30701D02023F7E7984658E00A2110E0D2
:1041E00010210EE010204FF0000B08900CE0102181
:1041F0004FF0000B44F004044FF00809089103E06D
:1042000008214FF0000B0891C4F30253022B04D095
:1042100001CF0021032B06D006E0FF1D27F0070782
:10422000F7E8020103E080B2042B00D1C0B24FF0E6
:10423000000823072BD5702A07D0DDF820C08CF0AA
:10424000100C5CEA0B0C05D00EE040238DF82430F6
:10425000012308E050EA010306D030238DF8243012
:104260008DF8252002239846DDF820C08CF0080C3C
:104270005CEA0B0C0BD150EA010301D1630706D5B0
:1042800030238DF824304FF00108A9F10109582A94
:1042900004D038A20B9208AA0A920BE03AA2F9E7DE
:1042A0005B46089AFFF7D3FD0B9B9B5C0A9A521E54
:1042B0000A92137050EA0102F2D10A98ADEB0000A5
:1042C00000F1200B600702D524F4803401E04FF0A8
:1042D0000109D94502DDA9EB0B0000E0002000EB4D
:1042E0000B0141440890AAEB010AE00306D4DDE982
:1042F0000F232146504600F063F806444FF00009B2
:1043000008E009A911F80900DDE90F12904709F149
:104310000109761CC145F4DBE0030CD5DDE90F2370
:104320002146504600F04CF8064404E0DDE90F1247
:1043300030209047761C0899481E08900029F5DC2B
:1043400008E00A980A990078491C0A91DDE90F12E1
:104350009047761CBBF10001ABF1010BF1DC21466B
:104360005046DDE90F2300F019F806446D1C1BE6EA
:10437000092801003031323334353637383961623B
:1043800063646566000000003031323334353637FF
:104390003839414243444546000000002DE9F041D0
:1043A000044600251E461746880404D405E0394615
:1043B0002020B0476D1C641EF9D52846BDE8F08169
:1043C0002DE9F041044600251E469046C80301D55C
:1043D000302700E02027880404D505E04146384610
:1043E000B0476D1C641EF9D52846BDE8F0814A68C7
:1043F000002A06D00A68531C0B6010704868401EE3
:10440000486070470A68531C0B60107070470000CA
:10441000000000000000000000000000000000108C
:1044200010101010101010100000101000000000EC
:104430006C6C242400000000010000000000002437
:10444000242424FE48484848FC9090909000001096
:104450003C5492905038141212925478100000007C
:10446000225C94A8481010242A52548800000000AE
:1044700030484850206E54948C888A7400000000A4
:1044800030301010000000000000000000000004A8
:104490000810102020202020201010080400008088
:1044A000402020101010101010202040800000002C
:1044B00000001054381038541000000000000000B4
:1044C0000010101010FE101010100000000000006E
:1044D000000000000000000000001010200000009C
:1044E0000000000000FE00000000000000000000CE
:1044F000000000000000000000001010000000009C
:1045000004040808101020204040808000000000B3
:104510003844828282828282828244380000000093
:1045200010701010101010101010107C00000000FF
:104530003844828204081020408284FC000000007D
:104540003844820204380402028244380000000029
:10455000040C141424244444FE04040E000000003F
:10456000FC808080B8C4820202828478000000004F
:104570003C428280B8C482828282443800000000BB
:104580007E42820404080808101010100000000089
:1045900038448282443844828282443800000000D9
:1045A000384482828282463A028244380000000007
:1045B00000001010000000001010000000000000BB
:1045C000000010100000000000101020000000008B
:1045D000000006186080601806000000000000005F
:1045E00000000000FE0000FE0000000000000000CF
:1045F0000000C0300C020C30C00000000000003889
:104600004482820204081010100010100000000004
:104610003844829AAAAAAAAAAA9680423C0000001C
:1046200010101028282844447C4444EE0000000068
:10463000FC424242427C4242424242FC00000000B4
:104640003C44828080808080828244380000000068
:10465000F844424242424242424244F800000000D2
:10466000FC444240447C4440404244FC0000000082
:10467000FC444240447C4440404040F00000000084
:10468000344C828080808E8484844C34000000000E
:10469000EE444444447C4444444444EE000000005E
:1046A0007C101010101010101010107C0000000072
:1046B0003E080808080808080888887000000000FC
:1046C000EE44484850605048484444EE0000000022
:1046D000E040404040404040404244FC0000000078
:1046E000C6446C6C6C545454444444EE00000000C6
:1046F000CE4464646454544C4C4C44E400000000C8
:1047000038448282828282828282443800000000A1
:10471000F844424242447840404040E000000000FB
:10472000384482828282828282BA443C0200000043
:10473000F048444444487048444444E600000000C3
:104740003C44828040300C02028244780000000029
:104750007C5492101010101010101038000000003F
:10476000EE4444444444444444444438000000007B
:10477000EE4444444428282828101010000000006B
:10478000EE4454545454545428282828000000005F
:10479000EE44442828101028284444EE000000006D
:1047A000EE44442828281010101010380000000093
:1047B0007E44840808102020408284FC0000001CF5
:1047C0001010101010101010101010101C0000000D
:1047D000EE445454FE5454542828282800000070F5
:1047E0001010101010101010101010107000003069
:1047F00048840000000000000000000000000000ED
:10480000000000000000000000000000FE0000406A
:104810002000000000000000000000000000000078
:10482000000000007884047C84848C760000000002
:10483000C040404058644242424264580000000078
:104840000000000038448080808044380000000070
:104850000C040404344C848484844C36000000002E
:1048600000000000788484FC8080847800000000D0
:1048700018242020F8202020202020700000000094
:10488000000000003A444478807C82827C00000072
:10489000C040404058644444444444EE000000009A
:1048A0001010000030101010101010380000000020
:1048B0001010000030101010101010906000000058
:1048C000C04040405C485060504844EE000000004A
:1048D00030101010101110101010103900000000CE
:1048E00000000000ACD29292929292D6000000009A
:1048F0000000000058E44444444444EE000000003A
:1049000000000000384482828282443800000000A7
:1049100000000000D864424242645840E0000000B9
:1049200000000000364C8484844C34040E000000E7
:10493000000000006C3020202020207000000000CB
:10494000000000007888846018844478000000002B
:1049500000202020F8202020202024180000000023
:1049600000000000C64242424242463A00000000B7
:1049700000000000EE444428282810100000000029
:1049800000000000EE444454542828280000000091
:1049900000000000EE442810102844EE0000000043
:1049A00000000000EE444428281010A0C0000000C1
:1049B000000000007E448810204284FC0000000CAF
:1049C0001010101010601010101010100C000010BB
:1049D000101010101010101010101010100000C047
:1049E000202020202018202020202020C00000008F
:1049F0000000000000728C000000000000000000B9
:104A0000000000001FE000003FF000003FF0000049
:104A10001FE0000180060003C00F0003C00F000369
:104A2000C00F0003C00F0003C00F0003C00F00033E
:104A3000C00F0003C00F00030003000000000000CF
:104A4000000000000000000300030003C00F00038B
:104A5000C00F0003C00F0003C00F0003C00F00030E
:104A6000C00F0003C00F0003C00F0001800600004C
:104A70001FE000003FF000003FF000001FE00000DA
:104A80000000000000000000008000000180000025
:104A900003800000078000000780000007800000FE
:104AA00007800000078000000780000007800000EA
:104AB0000780000007800000018000000000000067
:104AC00000000000000000000180000007800000DE
:104AD00007800000078000000780000007800000BA
:104AE00007800000078000000780000007800000AA
:104AF0000380000001800000008000000000000032
:104B0000000000001FE000003FF00000FFF0000187
:104B1000FFE0000000060000000F0000000F000092
:104B2000000F0000000F0000000F0000000F000049
:104B3000000F0000000F00001FE300007FF80000DE
:104B40007FF800001FE0000300000003C000000326
:104B5000C0000003C0000003C0000003C000000349
:104B6000C0000003C0000003C0000001800000007E
:104B70001FF000003FF800003FFC00001FFE000097
:104B800000000003FF800001FFC00000FFC0000024
:104B90007F80000000180000003C0000003C000086
:104BA000003C0000003C0000003C0000003C000015
:104BB000003C0000003C00007F8C0001FFE0000191
:104BC000FFF000007F800000000C0000003C0000AF
:104BD000003C0000003C0000003C0000003C0000E5
:104BE000003C0000003C0000003C000000180000F9
:104BF0007F800000FFC00001FFC00003FF800000B5
:104C00000000000000000002000100030003000398
:104C100080070003C00F0003C00F0003C00F000394
:104C2000C00F0003C00F0003C00F0003C00F00033C
:104C3000C00F0003C00F00031FE300007FF8000057
:104C40007FFC00001FE0000000030000000F0000D8
:104C5000000F0000000F0000000F0000000F000018
:104C6000000F0000000F0000000F0000000F000008
:104C70000007000000030000000100000000000029
:104C8000000000001FFC00003FF800003FF00000A3
:104C90001FE0000180000003C0000003C00000030B
:104CA000C0000003C0000003C0000003C0000003F8
:104CB000C0000003C00000031FE000007FF80000F8
:104CC0007FF800001FE0000000030000000F00005C
:104CD000000F0000000F0000000F0000000F000098
:104CE000000F0000000F0000000F00000006000091
:104CF0003FE000007FF00000FFF00001FFE0000057
:104D0000000000001FFC00003FF800003FF0000022
:104D10001FE0000180000003C0000003C00000038A
:104D2000C0000003C0000003C0000003C000000377
:104D3000C0000003C00000031FE000007FF8000077
:104D40007FFC00001FE0000300030003C00F00030E
:104D5000C00F0003C00F0003C00F0003C00F00030B
:104D6000C00F0003C00F0003C00F00018006000049
:104D70001FE000003FF000003FF000001FE00000D7
:104D800000000007FFE00003FFC00001FF880000F3
:104D9000FF180000003800000078000000780000D4
:104DA0000078000000780000007800000078000023
:104DB00000780000007800000018000000000000EB
:104DC0000000000000000000001800000078000053
:104DD00000780000007800000078000000780000F3
:104DE00000780000007800000078000000780000E3
:104DF000003800000018000000080000000000005B
:104E0000000000001FE000003FF000003FF0000045
:104E10001FE0000180060003C00F0003C00F000365
:104E2000C00F0003C00F0003C00F0003C00F00033A
:104E3000C00F0003C00F00031FE300007FF8000055
:104E40007FFC00001FE0000300030003C00F00030D
:104E5000C00F0003C00F0003C00F0003C00F00030A
:104E6000C00F0003C00F0003C00F00018006000048
:104E70001FE000003FF000003FF000001FE00000D6
:104E8000000000001FE000003FF000003FF00000C5
:104E90001FE0000180060003C00F0003C00F0003E5
:104EA000C00F0003C00F0003C00F0003C00F0003BA
:104EB000C00F0003C00F00031FE300007FF80000D5
:104EC0007FFC00001FE0000000030000000F000056
:104ED000000F0000000F0000000F0000000F000096
:104EE000000F0000000F0000000F0000000600008F
:104EF0001FE000003FF000007FF00000FFE0000036
:104F000000000000000000000000000000000000A1
:104F10000000000000000000000000000000000091
:104F20000000000000000000000000000000000081
:104F30000000000000000000000000000000000071
:104F40000000000000000000000000000000000061
:104F500000000000780000007800000078000000E9
:104F600078000000780000007800000000000000D9
:104F70000000000000000000000000000000000031
:104F80000000000000000000000000000000000021
:104F90000000000000000000000000000000000011
:104FA000070000000F8000000F8000000F8000004D
:104FB00007000000000000000000000000000000EA
:104FC00000000000000000000000000007000000DA
:104FD0000F8000000F8000000F800000070000001D
:104FE00000000000000000000000000000000000C1
:104FF00000000000000000000000000000000000B1
:105000000000000000000000000000000000000799
:10501000C006000FE0060000000C00301818003039
:105020001818003018300030183000301860003088
:1050300008C00007C0C0000FE080000000000000B2
:10504000000FE0000607C000063018000C30180002
:105050000C301800183018003030180030301800AC
:1050600060000000C00FE000C007C00000000000AA
:105070000000000000000000000000000000000030
:105080000000000000000000000000000000000020
:10509000000000000000000700E0000887FC000896
:1050A0008E0300089801800718008000300000007F
:1050B0003000000070000000600000006000000090
:1050C0006000000060000000600000007000000050
:1050D000300000003000000038000000180100001F
:1050E0000C03000007FC000001F0000000000000BD
:1050F00000000000000000000000000000000000B0
:10510000000000000000000000000000000000009F
:10511000000000000000000000000000000000008F
:10512000000000000000000000000000000000007F
:105130000000000000000000000000003FF0000040
:105140007FF000007FE00000FFC0000000000000D2
:10515000000000000000000000000000000000004F
:10516000000000000000000000000000000000003F
:10517000000000000000000000000000000000002F
:10518000B5E70200020002007FF0421042107FF0FB
:10519000421042107FF042000208020801F80000AD
:1051A0000000D7D37FF00020004000800100020003
:1051B000FFF80200020002000200020002000E00DE
:1051C00000000000C8AB010001000280044008207C
:1051D00010102FE8C106010001001FF001000100BE
:1051E00001007FFC0000B6AF004000407C40004062
:1051F00001FC0044FE44204420442084488444842C
:10520000FD04450402280410BCBC1020102010200E
:1052100013FEFC201020102015FC18843088D04884
:1052200010501020105051882606CAF501000120A8
:10523000011001107FFC038005400540092011107A
:10524000210841040102010001000100D2BA0080DE
:10525000404027F8114001408278424816A81AD0F1
:105260002350222042204250028800000000BEA7A6
:105270003FE020203FE020203FE00000FDF88508CF
:105280008508FDF885088508FDF885080000000000
:10529000B2E200084F8828880AA88AA84AA80AA863
:1052A0002AA82AA84228450884888888103800003F
:1052B0000000CAD44050204820400FF80040E04091
:1052C00027402240224022202A2833A82E180008F6
:1052D00000000000B3CC00001BF0E210221023F00D
:1052E000F800200033F068806080A3F020802080E8
:1052F00027F800000000D0F2020001003FF8200073
:105300002FF02020224021803FF8208820904080EC
:105310004080838000000000D1D5200010F87E205E
:10532000444028F87E8848A850A864A848A872A8D5
:1053300084501888610800000000C9AB10001000FC
:105340003FE0404080807FF04210421042107FF0EA
:105350004000400840083FF800000000CCEE2080EC
:105360002FF8208027F0F41027F0241027F02410C5
:1053700027F03410CFF80220041000000000B3E43E
:1053800004000200FFF80800104020207FF0089081
:1053900008800880088010882088C07800000000FD
:1053A000CEC4040002000200FFF810401040088044
:1053B000088005000200050008803060C018000069
:1053C0000000D7D604000200FFF8800880083FC024
:1053D000008001000200FFF80200020002000E003F
:1053E00000000000CFD43FE0202020203FE020201C
:1053F00020203FE008804890289028A0088008805E
:10540000FFF800000000CABE00003FE000000000FE
:105410000000FFF802001240122022104208820809
:1054200002000E0000000000CDBC7FF840084408D8
:1054300047C84848548843084CC8733840884C08CB
:10544000430840887FF800000000C6AC0080208040
:10545000208020803FF02000200020003FC020401E
:10546000204020404040804000000000B4A5204083
:105470003840484091F07D50555055507D5055F082
:1054800054407C40545057F88C0800000000C3FE84
:105490002220222027F8FA2027F0241027F03410A9
:1054A000E7F020802FF821402220EC1800000000B7
:1054B000CAE440804140F22044108BE8A000F78805
:1054C00024A827A834A8E7A824A8248825B8000081
:1054D0000000C8EB08000400040002000200050000
:1054E00005000880088010401040202040108008EF
:1054F00000000000C8AB0200020005000880104058
:105500002020DFD8020002001FC0020002000200BB
:10551000FFF800000000B3CC00001BF0E2102210E6
:1055200023F0F800200033F068806080A3F0208032
:10553000208027F800000000BCBC20802080208054
:10554000F7F02080208027E03220E22021402080D8
:1055500021402220EC1800000000CAF502000240A1
:1055600002200200FFF807000A800A801240222071
:10557000421082080200020000000000D6A70200CC
:105580000200FFF8020002007FE0102010400880B7
:1055900005000200050018C0E03800000000B3D686
:1055A0002080208023F0F880208027F828203020D9
:1055B000E7F82020222021202020E0E00000000049
:1055C000D7A8020002007FF004000400FFF80800E2
:1055D00010003FE0002000401C800300008000001D
:1055E0000000D7A201004080200017F000808080DA
:1055F0004080008017F010802080208040804FF88D
:1056000000000000C5FA204024402440F448245003
:10561000276024403440E440244024402548264864
:10562000E43800000000B7A202002220221044004B
:105630007FF8040008000FE014202440428081001D
:1056400006C0383800000000B3C900A000900080F8
:105650007FF8408040907C90449044A044A044480F
:1056600058A84118820800000000B9A601000100F6
:10567000F90023F0211021102110211021103910E0
:10568000C21002100410086000000000D2C6000022
:10569000002000780CE47904516810307E6019987D
:1056A0001A3C2FE448E40838003000600000D1A123
:1056B00000000120012003FC62203420042003FCB0
:1056C000240021B021202220323E18000FE00000EB
:1056D000D4F10000000010FC1304110C3DF8703EE2
:1056E00010D015907CF0503E18101BFE02300020A8
:1056F0000000CFEE0000000003FE00607C4012FCC2
:1057000011041106113611241F44794400C0009C75
:1057100001860000C4BF000000000FE03C18200814
:1057200020043E04600460047E046004200C200811
:105730001FF001800000B6CC0000080011FC103EF4
:105740003EF82D8C2904490409043E8C50FC108835
:105750001EC811FC100E0000B0B400000040006034
:1057600012FE13023A427F4410C41BFE3C98719013
:10577000113011A00078004C0000C8B700000040B4
:1057800000F878C41F8C313821EC2126413A7DE2A3
:10579000272225FA3D26012401040000B6A80000B6
:1057A000010001705FFC700420042FF8010011005B
:1057B000113821C431003F0063E040380000B3A439
:1057C000000000000818086008C00B001E00181C2C
:1057D0007FF01000118010E01838098E0F000000D3
:1057E000B0B400000040006012FE13023A427F4451
:1057F00010C41BFE3C987190113011A00078004C31
:105800000000B7B50000000007F80600240014F8F7
:10581000078C04042408261825F0647C64C22080C8
:105820001FC00000BBD8000000001FF03018200887
:10583000278C2C44284428442CC427842004300C72
:105840001FF803800000D0A310401020102011FE8C
:10585000FC00108831043A0254885088905010504F
:105860001020105010881306D4B000007FFC4004B4
:105870004FE4400440045FF44484448444844894E6
:105880004894507440047FFC4004B3AC080009FC09
:1058900008447E4408440894FF0808FC28842884AF
:1058A0002E8428FC280058004FFE8000CAD0020039
:1058B000010000007FFC0100010001003FF8210809
:1058C0002108210821082128211001000100B9DC4C
:1058D00020403F7E4890850801007FFE40029FE403
:1058E00010201FE010001FF0101010101FF01010FB
:1058F000C0ED000001FCFD24112411FC1124112431
:105900007DFC1020102011FC10201C20E02043FE04
:105910000000CFB500F83F000400082010403F8091
:105920000100061018087FFC01040920111021084D
:1059300045040200CDB310401020202023FE484033
:10594000F888110423FE4092F890409000901912BC
:10595000E112420E0400BBB700000000FDFE101073
:105960001010102010207C6810A411221222102088
:105970001C20E02040200020BEB32080204023F8DF
:105980002110F8A027FE200023F8220823F822087F
:105990003BF8E120412202220C1ECEC2000023F877
:1059A0001208120883F84208420813F8100027FC76
:1059B000E4A424A424A424A42FFE0000B6C801005B
:1059C00000803FFE222022203FFC2220222023E0D4
:1059D00020002FF02410422041C08630380ECAAA81
:1059E000000027F81408140887F84408440817F83A
:1059F00011202120E9242528233021202FFE00001A
:105A0000B6C8010000803FFE222022203FFC222059
:105A1000222023E020002FF02410422041C08630B5
:105A2000380ED1CC100013FE120216225A22522236
:105A300053FE922212221252124A2A8A270242024C
:105A400043FE8202CEED3FF801007FFE41029D74CD
:105A500001001D7004000FE0144003801C70E20E72
:105A60000FE004201860C5A800402040104017FC3B
:105A7000848448884140114413482530E92021108E
:105A80002108214421820100C9CF02000200020046
:105A900002000200020003F80200020002000200FD
:105AA000020002000200FFFE0000CFDE00007BF8D3
:105AB0004A08520853F8620852084BF84A444A48C8
:105AC0006A3052204210428843064200CDA80000AE
:105AD00047F8201021A0004007FCE444244427FCA0
