:020000040800F2
:1000000090040020291C000825020008270200088F
:1000100055020008590200085D02000800000000B7
:100020000000000000000000000000006102000865
:10003000630200080000000065020008BD07000818
:10004000431C0008431C0008431C0008431C000814
:10005000431C0008431C0008431C0008431C000804
:10006000431C0008431C0008431C0008431C0008F4
:10007000431C0008431C0008431C0008431C0008E4
:10008000431C0008431C0008431C0008431C0008D4
:10009000431C0008431C0008431C0008431C0008C4
:1000A000431C0008431C0008431C0008431C0008B4
:1000B000431C0008431C0008431C0008431C0008A4
:1000C000431C0008431C0008431C0008431C000894
:1000D000431C00087F090008431C0008431C00085B
:1000E000431C0008431C0008431C0008431C000874
:1000F000431C0008431C0008431C0008431C000864
:10010000431C0008431C0008431C0008431C000853
:10011000431C0008431C0008431C0008431C000843
:10012000431C0008431C0008431C0008431C000833
:10013000DFF80CD002F0A6FC004800470D020008D2
:100140009004002010B500241AE004EB4400334969
:1001500011F8200090B1002004EB44012F4A02F86E
:10016000210004EB4400114601EB8000806828B1B7
:1001700004EB440102EB810188688047601CC4B233
:10018000022CE2D310BD00202CE000EB4001234AFA
:1001900002EB81014988002922DD00EB400102EBDE
:1001A00081014988491E00EB40021C4B03EB82028F
:1001B000518000EB40011A4602EB8101498879B970
:1001C000012100EB400203F8221000EB40011A4627
:1001D00002EB8101898800EB400203EB820251802F
:1001E000411CC8B20228D0D3704710B500F0B9FA4C
:1001F00001F0DEFC00F0D0F900F026F901F054F92E
:1002000010BD10B5064800F0A9FA10BDFFF7EDFFCC
:10021000FFF7F7FF01E0FFF795FFFCE70000002084
:1002200087010008704788B000BFEFF308810846D7
:10023000016807914168069181680591C168049140
:10024000016903914169029181690191C16900913C
:1002500000BFFEE700BFFEE700BFFEE700BFFEE70E
:1002600070477047704700000CB500200190009067
:100270006C48006840F480306A49086000BF6948F3
:10028000006800F4003000900198401C0190009834
:1002900018B90198B0F5A06FF1D16248006800F478
:1002A000003010B10120009001E000200090009883
:1002B000012843D15C48006840F010005A490860AA
:1002C0000846006820F0030008600846006840F017
:1002D0000200086053484068524948600846406838
:1002E00048600846406840F48060486008464068BE
:1002F00020F47C1048600846406840F4E8104860EC
:100300000846006840F08070086000BF45480068FB
:1003100000F000700028F9D04248406820F0030047
:10032000404948600846406840F00200486000BF0D
:100330003C48406800F00C000828F9D10CBD10B50D
:10034000FFF792FF10BD10B53648006840F001007D
:1003500034490860084640683449084031494860DB
:1003600008460068324908402E490860084600687F
:1003700020F4802008600846406820F4FE004860B1
:100380004FF41F008860FFF7DAFF4FF00060294943
:10039000086010BD10B5002100200022214B5B68D1
:1003A00003F00C0121B1042906D0082928D107E067
:1003B000214B224C236027E01F4B204C236023E07D
:1003C000184B5B6803F47010164B5B6803F48032C3
:1003D000022303EB904022B9194B4343174C23608F
:1003E0000DE0104B5B6803F4003323B1144B43431F
:1003F000124C236003E0104B4343104C236003E096
:100400000D4B0E4C236000BF00BF064B5B68C3F36F
:1004100003130C4CE15C094B1B68CB40074C236079
:1004200010BD000000100240002002400000FFF854
:10043000FFFFF6FE08ED00E000127A001800002031
:1004400000093D001C00002008B50121142001F026
:1004500019FF0121374801F02AFD4FF40040ADF8A3
:10046000000048208DF803006946334801F04EFC37
:100470002020ADF8000048208DF8030069462F4881
:1004800001F044FC0120ADF8000028208DF80300A5
:100490006946294801F03AFC08BD10B5044614B17C
:1004A0000120274908702648007868B32021234896
:1004B00001F0BFFC58B14FF400411F4801F0B9FCF6
:1004C00028B101211C4801F0B4FC01281CD10A20EC
:1004D00001F094FB00201A4908702021174801F010
:1004E000A8FC08B9012010BD4FF40041124801F0EA
:1004F000A0FC08B90220F6E701210F4801F099FCA1
:10050000012815D10320EEE720210C4801F091FCD1
:1005100001280DD1C103084801F08BFC012807D147
:100520000121054801F085FC10B90120044908703B
:100530000020D8E700023000000801400010014010
:100540002C00002010B504465648844204D10121F5
:10055000042001F097FE1EE05348844204D101219B
:10056000082001F08FFE16E05048844204D101219A
:10057000102001F087FE0EE04D48844204D1012195
:10058000202001F07FFE06E04A48844203D1012189
:10059000402001F077FE10BD38B5002421E0464927
:1005A00051F83400FFF7CEFF434800EBC4008088C9
:1005B000ADF8000010208DF8030003208DF8020034
:1005C0003D4951F83400694601F0A0FB3A4A02EB7C
:1005D000C4029188384A52F8340001F044FC601C8F
:1005E000C4B2022CDBD3002413E0334850F83400AB
:1005F0002C4988420BD1304800EBC4008088B0F50C
:10060000004F04D101212D4801F051FC03E0601C92
:10061000C4B2022CE9D300BF38BD10B50446022C89
:1006200000D310BD244A02EBC4029188224A52F83A
:10063000340001F01AFC00BFF3E710B50446022CA9
:1006400000D310BD1C4A02EBC40291881A4A52F82A
:10065000340001F008FC00BFF3E710B50446022C9B
:1006600000D310BD144A02EBC4029188124A52F81A
:10067000340001F0EBFB48B10F4A02EBC402918851
:100680000D4A52F8340001F0F0FB08E00A4A02EB90
:10069000C4029188084A52F8340001F0E4FB00BF1C
:1006A000DFE7000000080140000C0140001001409D
:1006B000001401400018014030000020000230000A
:1006C00010B500240120FFF7E8FE0446012C04D0F9
:1006D000022C18D0032C36D11EE01C48006808B943
:1006E000012000E000201949086001F0CFF9184905
:1006F0000978481CC11700EB91718910A0EB8101AA
:10070000134A117020E01348006808B9012000E086
:1007100000201049086017E00C48006808B9012063
:1007200000E00020094908600B48D0F8880108B9AA
:10073000012000E000200749086001F0A7F900202F
:100740000349087000E000BF00BF10BDA0012142B6
:100750004000002088812242008022422249086015
:10076000704730B5214800684FF47A72B0FBF2F15F
:10077000481EB0F1807F01D301201BE0481E4FF0DE
:10078000E022506150170F22002804DB13071C0ED3
:10079000174B1C5406E013071D0E164B00F00F04F8
:1007A000241F1D5500BF00204FF0E022906107205C
:1007B0001061002008B100BFFEE730BD10B50E4843
:1007C00002684068521C40F100000B490A60486012
:1007D0000548006810B104480068804710BD06490C
:1007E0000868496870470000500000201800002089
:1007F00000E400E018ED00E04800002008B5012109
:1008000044F2040001F03EFD4FF40070ADF800002A
:1008100018208DF8030003208DF8020069466F4808
:1008200001F074FA4FF48060ADF8000004208DF8F8
:1008300003006946694801F069FA08BD1FB504461E
:1008400000940020ADF80400ADF80600ADF80800F3
:10085000ADF80C000C20ADF80A006946604801F0C4
:10086000B8FD012240F224415D4801F04AFE012119
:100870005B4801F03AFE1FBD00B58BB00121084670
:1008800001F0F3FC574801F0D3FF5548001D0090DC
:1008900055480190002002901420039000200490FD
:1008A00080200590002006900790089009900A90FB
:1008B00069464C4802F05EF801214A4802F085F88A
:1008C00001224021464801F041FE0BB000BD08B5B1
:1008D00025208DF8000000208DF801008DF8020021
:1008E00001208DF80300684601F039FF08BD10B5FE
:1008F000FFF784FF4FF4E130FFF7A0FFFFF7BCFFE5
:10090000FFF7E5FF10BD10B502460023002002E00E
:10091000145C6340401C8842FAD3184610BD10B5E1
:100920000446607818B12078FFF777FE02E020785F
:10093000FFF783FE10BD10B52C48007800B910BD3C
:1009400000202A49087028480078552803D12648F5
:100950004078AA2800D0F2E706212348FFF7D3FF0A
:1009600021498979884200D0E9E71F48C0780628E4
:1009700003D11D48001DFFF7D2FF00BFDFE710B510
:1009800040F22441164801F0A1FED0B1144801F014
:100990001DFE0021134802F018F8124802F02CF84E
:1009A000C0F1140084B2072C02D101200F49087055
:1009B00014210C4802F01EF801210A4802F005F843
:1009C00000BF10BD00BF064A128802F04002002A94
:1009D000F9D0C2B2024B1B1D1A80704700080140BB
:1009E00000380140580002407C00002054000020E4
:1009F00030B5014601F01F04C1F34513CA0AE502F0
:100A000005EB43151544A8B230BD2DE9F047064665
:100A10000F4690469A46002445464FEA4800C0F1EA
:100A200003094AE07A1991B2321990B2524600F0A5
:100A300081FE7A1991B2321B90B2524600F07AFED2
:100A40007A1B91B2321990B2524600F073FE7A1BB3
:100A500091B2321B90B2524600F06CFE3A1991B23C
:100A6000721990B2524600F065FE3A1991B2721BAB
:100A700090B2524600F05EFE3A1B91B2721990B2EB
:100A8000524600F057FE3A1B91B2721B90B252468A
:100A900000F050FEB9F1000F05DA042000FB0490CD
:100AA00000F1060907E0601B042101FB009000F142
:100AB0000A09681E85B2601C84B2AC42B2DBAC424B
:100AC00037D17A1991B2321990B2524600F032FE03
:100AD0007A1991B2321990B2524600F02BFE7A1B6D
:100AE00091B2321990B2524600F024FE7A1B91B2B4
:100AF000321B90B2524600F01DFE3A1991B27219A3
:100B000090B2524600F016FE3A1991B2721B90B2A2
:100B1000524600F00FFE3A1B91B2721990B2524643
:100B200000F008FE3A1B91B2721B90B2524600F0E0
:100B300001FEBDE8F0872DE9FF4F83B0804689466E
:100B40004946404600F0ECFD0598A0EB08050698E4
:100B5000A0EB0906002D02DB0120029003E04FF01C
:100B6000FF3002906D42002E02DB0120019003E075
:100B70004FF0FF30019076424FEA450A4FEA460BAC
:100B8000B54219DDABEB0504002712E049464046AB
:100B9000109A00F0CFFD002C05DBA4EB0A040198AD
:100BA00048441FFA80F95C44029840441FFA80F8D8
:100BB0007F1CAF42EADD18E0AAEB0604002712E032
:100BC00049464046109A00F0B5FD002C05DBA4EB29
:100BD0000B04029840441FFA80F85444019848449A
:100BE0001FFA80F97F1CB742EADD07B0BDE8F08F3D
:100BF0002DE9F84305460C4616461F46DDF82080D1
:100C00004EF67D700090A81982B2234621462846F0
:100C1000FFF791FF42F6651004F1010CBC441FFA86
:100C20008CF305EB060CACF1010C1FFA8CF204F10D
:100C3000010C1FFA8CF105EB060CACF1010C0090D5
:100C40001FFA8CF0FFF777FF42F665100090E0196D
:100C500083B2A81982B2E01981B22846FFF76BFF70
:100C60004EF67D700090E01983B22A462146284650
:100C7000FFF761FF04F1010CBC44ACF1020C1FFA58
:100C80008CF305F1010CB444ACF1020C1FFA8CF2A8
:100C900004F1010C1FFA8CF105F1010C1FFA8CF024
:100CA000CDF80080FFF747FFBDE8F8832DE9F84352
:100CB00005460C4616461F46DDF82080B8F1000FA9
:100CC00039D14EF67D700090A81982B22346214694
:100CD0002846FFF730FF42F6651004F1010CBC44D2
:100CE0001FFA8CF305EB060CACF1010C1FFA8CF229
:100CF00004F1010C1FFA8CF105EB060CACF1010CB0
:100D000000901FFA8CF0FFF716FF42F66510009076
:100D1000E01983B2A81982B2E01981B22846FFF720
:100D20000AFF4EF67D700090E01983B22A462146F4
:100D30002846FFF700FFB8F1010F39D142F66510E0
:100D40000090A81982B2234621462846FFF7F3FEF9
:100D50004EF67D7004F1010CBC441FFA8CF305EBD8
:100D6000060CACF1010C1FFA8CF204F1010C1FFA15
:100D70008CF105EB060CACF1010C00901FFA8CF025
:100D8000FFF7D9FE4EF67D700090E01983B2A819E6
:100D900082B2E01981B22846FFF7CDFE42F6651017
:100DA0000090E01983B22A4621462846FFF7C3FE89
:100DB000B8F1020F39D14FF6FF700090A81982B236
:100DC000234621462846FFF7B6FE4FF6FF7004F192
:100DD000010CBC441FFA8CF305EB060CACF1010CC2
:100DE0001FFA8CF204F1010C1FFA8CF105EB060CD2
:100DF000ACF1010C00901FFA8CF0FFF79CFE4FF64F
:100E0000FF700090E01983B2A81982B2E01981B294
:100E10002846FFF790FE4FF6FF700090E01983B26E
:100E20002A4621462846FFF786FEBDE8F883F8B536
:100E300004460D4616461F4644F208202B4632460D
:100E4000294600902046FFF776FE48F210406A1CC3
:100E500093B291B2621C009090B23246FFF76BFEE3
:100E600044F208203B462246294600902046FFF7E0
:100E700062FE48F21040631C9AB26B1C99B2631C6C
:100E8000009098B23B46FFF756FE4FF6FF703B4688
:100E90003246394600902046FFF74DFE4FF6FF7070
:100EA0003B463246294600903046FFF744FEF8BDE7
:100EB000F8B506460F4614461D464FF6FF703B46F2
:100EC0002246394600903046FFF735FE4FF6FF7058
:100ED0002B463246394600903046FFF72CFE48F24A
:100EE00010406A1E93B291B2721C009090B22246DA
:100EF000FFF721FE44F208202B46224629460090A7
:100F00003046FFF718FE48F21040631E9AB27B1C71
:100F100099B2631E009098B22B46FFF70CFE44F284
:100F200008202B462246394600902046FFF703FE54
:100F3000F8BD2DE9F84F0746884693469A46DDF8F6
:100F400028900097B3E099F8000080283DDA99F8DE
:100F500000600D2E05D1009F08F110001FFA80F8E7
:100F600030E0202E03DDA6F1200086B200E000264E
:100F7000002422E000251CE004EB0610E849085C90
:100F800080212941084040B108EB040291B27A194E
:100F900090B25A4600F0CEFB09E0D34507D008EBEB
:100FA000040291B27A1990B2524600F0C3FB681C59
:100FB000C5B2082DE0DB601CC4B2102CDADB07F1EF
:100FC000080087B209F1010971E0002668E006EB2C
:100FD0000610D44911F8100099F8001088425DD12C
:100FE00006EB0610CF4901EB4000407899F801105C
:100FF000884253D100244FE0002520E006EB061084
:10100000C84901EB4000801C10F8141080202841D2
:10101000014041B108EB040291B27A1990B25A46EC
:1010200000F088FB09E0D34507D008EB040291B239
:101030007A1990B2524600F07DFB681CC5B2082DAB
:10104000DCDB002524E006EB0610B64901EB40008E
:10105000801C012101EB4401405C802129410840B2
:1010600048B108EB040291B27A19083290B25A469C
:1010700000F060FB0AE0D34508D008EB040291B20F
:101080007A19083290B2524600F054FB681CC5B27F
:10109000082DD8DB601CC4B2102CADDB701C86B2EE
:1010A000322E94DB09F1020907F1100087B299F89A
:1010B000000000287FF447AFBDE8F88F2DE9F05F0E
:1010C0000646884693469A46DDF82890E2E099F86D
:1010D0000000802835DA99F80070202F03DDA7F191
:1010E000200087B200E00027002522E000241CE059
:1010F00005EB07108A49095C80202041014041B17D
:1011000008EB050291B2321990B25A4600F012FB78
:1011100009E0D34507D008EB050291B2321990B22D
:10112000524600F007FB601CC4B2082CE0DB681CD0
:10113000C5B2102DDADB09F1010906F1080086B20B
:10114000A8E000279EE007EB870000EB47107649F8
:1011500011F8100099F8001088427CD107EB870045
:1011600000EB4710704901EB4000407899F80110FE
:101170008842F2D1002580E0002423E007EB8700BD
:1011800000EB4710684901EB4000801C05EB45016E
:10119000405C80212141084040B108EB050291B23A
:1011A000321990B25A4600F0C5FA09E0D34507D08B
:1011B00008EB050291B2321990B2524600F0BAFA29
:1011C000601CC4B2082CD9DB002426E007EB8700A2
:1011D00000EB4710544901EB4000801C05EB450132
:1011E000491C405C80212141084048B108EB0502C0
:1011F00091B23219083290B25A4600F09BFA0AE0D6
:10120000D34508D008EB050291B23219083290B2EA
:10121000524600F08FFA601CC4B2082CD6DB0024C2
:1012200027E007EB870000EB47103F4901EB400048
:10123000801C05EB4501891C405C80212141084050
:1012400050B108EB050291B23219103290B25A46F1
:1012500000F070FA0BE013E0D34508D008EB05026C
:1012600091B23219103290B2524600F063FA601C0B
:10127000C4B2082CD5DB681CC5B2182DFFF67CAFB4
:10128000781C87B2142FFFF65EAF09F1020906F150
:10129000180086B299F8000000287FF418AFBDE866
:1012A000F09F2DE9F05F0746884692469946002553
:1012B00031E000242BE01D490A9801EBC01000EB3F
:1012C000850010F804B000261DE08020304100EABF
:1012D0000B0050B108EB050291B207EBC402324497
:1012E00090B2524600F026FA0BE0CA4509D008EB4E
:1012F000050291B207EBC402324490B24A4600F0B4
:1013000019FA701CC6B2082EDFDB601CC4B2042CB4
:10131000D1DB681CC5B2202DCBDBBDE8F09F0000FF
:10132000C62A000838380008203F0008B7300008F7
:1013300008B50121084600F0A5FF01211C2000F09E
:10134000A1FF0121242000F09DFF4FF41860ADF8AB
:10135000000003208DF8020010208DF8030069467C
:10136000FC4800F0D3FC4FF4E060ADF8000003202F
:101370008DF8020010208DF803006946F64800F051
:10138000C5FC0121242000F07DFF4FF48070ADF8F2
:10139000000010208DF8030003208DF8020069463C
:1013A000EE4800F0B3FC4FF48071EC4800F05BFDB8
:1013B0000420ADF800006946E94800F0A7FC0421CC
:1013C000E74800F050FD08BD0021082114E000F0BE
:1013D000800222B14FF40072DF4B1A6103E04FF438
:1013E0000072DD4B5A614FF48072DB4B5A611A6117
:1013F0004206100E4A1ED1B20029E8DC704710B533
:1014000004464FF48070D34914310860802008608E
:101410002046FFF7D9FF4FF48070CE4910310860A5
:1014200010BD10B504464FF48070CA4914310860ED
:101430008020091F08602046FFF7C6FF4FF4807028
:10144000C4491031086010BD10B504464FF48070D7
:10145000C049143108608020091F08602012FFF77E
:10146000B3FFE0B2FFF7B0FF4FF48070B94910311D
:10147000086010BD30B505460C462846FFF7BFFF93
:101480002046FFF7CEFF30BD10B54FF48060B24963
:101490004861642000F0B2FB4FF48060AE490861FF
:1014A000322000F0ABFB10BD10B5FFF741FFFFF796
:1014B000EBFF1120FFF7A3FF782000F09FFBB12086
:1014C000FFF79DFF0120FFF7ACFF2C20FFF7A9FFDE
:1014D0002D20FFF7A6FFB220FFF791FF0120FFF7B5
:1014E000A0FF2C20FFF79DFF2D20FFF79AFFB320D0
:1014F000FFF785FF0120FFF794FF2C20FFF791FFF6
:101500002D20FFF78EFF0120FFF78BFF2C20FFF728
:1015100088FF2D20FFF785FFB420FFF770FF07201D
:10152000FFF77FFFC020FFF76AFFA220FFF779FFD8
:101530000220FFF776FF8420FFF773FFC120FFF73B
:101540005EFFC520FFF76DFFC220FFF758FF0A209E
:10155000FFF767FF0020FFF764FFC320FFF74FFF8F
:101560008A20FFF75EFF2A20FFF75BFFC420FFF70A
:1015700046FF8A20FFF755FFEE20FFF752FFC520F8
:10158000FFF73DFF0E20FFF74CFF3620FFF737FF38
:10159000C820FFF746FFE020FFF731FF0F20FFF7DD
:1015A00040FF1A20FFF73DFF0F20FFF73AFF1820FA
:1015B000FFF737FF2F20FFF734FF2820FFF731FF19
:1015C0002020FFF72EFF2220FFF72BFF1F20FFF721
:1015D00028FF1B20FFF725FF2320FFF722FF3720DE
:1015E000FFF71FFF0020FFF71CFF0720FFF719FF81
:1015F0000220FFF716FF1020FFF713FFE120FFF78F
:10160000FEFE0F20FFF70DFF1B20FFF70AFF0F2044
:10161000FFF707FF1720FFF704FF3320FFF701FF55
:101620002C20FFF7FEFE2920FFF7FBFE2E20FFF700
:10163000F8FE3020FFF7F5FE3020FFF7F2FE3920EC
:10164000FFF7EFFE3F20FFF7ECFE0020FFF7E9FE7B
:101650000720FFF7E6FE0320FFF7E3FE1020FFF769
:10166000E0FE2A20FFF7CBFE0020FFF7DAFE002085
:10167000FFF7D7FE0020FFF7D4FE7F20FFF7D1FE53
:101680002B20FFF7BCFE0020FFF7CBFE0020FFF76A
:10169000C8FE0020FFF7C5FE9F20FFF7C2FEF02026
:1016A000FFF7ADFE0120FFF7BCFEF620FFF7A7FE17
:1016B0000020FFF7B6FE3A20FFF7A1FE0520FFF756
:1016C000B0FE2920FFF79BFE10BDF0B504460D4685
:1016D00016461F462A20FFF792FE0020FFF7A1FEC4
:1016E000A11CC8B2FFF79DFE0020FFF79AFEB11CB7
:1016F000C8B2FFF796FE2B20FFF781FE0020FFF710
:1017000090FE691CC8B2FFF78CFE0020FFF789FE2F
:10171000791CC8B2FFF785FE2C20FFF770FEF0BDE4
:1017200030B504460D462B46224629462046FFF793
:10173000CCFF30BD70B504460D461646681C83B21A
:10174000601C82B229462046FFF7BFFF3046FFF7F4
:101750007BFE70BD000C01400010014000080140FC
:101760000014014060B505460E4631462846FFF795
:10177000D7FFE0B2FFF755FE204660BD70B50646C4
:101780009F237F2200210846FFF79FFF2C20FFF7B1
:1017900036FE002408E0002503E03046FFF754FE43
:1017A0006D1CA02DF9D3641C802CF4D370BD0000F7
:1017B00008B5CD480078002848D14EF67D70FFF777
:1017C000DDFFCAA04EF67D731F220021009010207D
:1017D000FFF7AFFBC9A04EF67D734FF4784214219A
:1017E00000901020FFF7A5FB3A23712226210F203D
:1017F000FFF75EFBC5A04EF67D734FF6E072282121
:1018000000901020FFF795FB5823712244210F20F0
:10181000FFF74EFBC1A04EF67D731F2246210090BC
:101820001020FFF786FB7623712262210F20FFF73D
:101830003FFBBEA04EF67D734FF4784264210090CA
:101840001020FFF776FB0120A749087008BDF8B506
:101850000024BA48007800283DD14EF67D70FFF78D
:101860008DFFB7A04EF67D734FF47842142100909F
:101870001020FFF75EFB4FF47A7000F0BFF94EF6D0
:101880007D70FFF77BFF00BF20E0032094FBF0F0AA
:101890004001401D85B2032094FBF0F100FB114094
:1018A00000EB80004FF6FF7101EAC006A748005D1B
:1018B0004EF67D734FF47842294600903046FFF78C
:1018C000F0FC642000F09AF9601CC4B20A2CDCDB46
:1018D00001209A490870F8BD08B59D480078002895
:1018E0004BD14EF67D70FFF749FF8CA04EF67D730D
:1018F0001F220A2100901020FFF71BFB4FF47A7083
:1019000000F07CF94EF67D70FFF738FF77A04EF6B9
:101910007D734FF6E072052100901020FFF709FB60
:101920008CA04EF67D731F221E2100901020FFF721
:1019300000FB8CA04EF67D734FF478423721009067
:101940001020FFF7F6FA8BA04EF67D731F22502170
:1019500000900020FFF7EDFA8AA04EF67D734FF459
:101960007842692100900020FFF7E3FA4FF4E1602C
:1019700000F044F901207649087008BD08B5854893
:101980000078002838D14EF67D70FFF7F7FE82A070
:101990004EF67D731F220A2100901420FFF7C9FA2A
:1019A000C82000F02BF94FF6FF70FFF7E7FE4FF469
:1019B000967000F023F90020FFF7E0FE4FF49670D8
:1019C00000F01CF94FF47840FFF7D8FE4FF4967002
:1019D00000F014F94FF4FC60FFF7D0FE4FF496705E
:1019E00000F00CF91F20FFF7C9FE4FF4967000F0CD
:1019F00005F901206749087008BD2DE9F047074641
:101A00006848007800283FD14FF6FF70FFF7B6FE18
:101A1000002633E000252EE006EB860C4FEACC0CC6
:101A20000CF1270C1FFA8CF305EB850C4FEACC0C5C
:101A30000CF1270C1FFA8CF206EB860C4FEACC4C0B
:101A40004FEA1C4105EB850C4FEACC4C4FEA1C4099
:101A5000FFF73BFE00240AE017F8149007EB440060
:101A600090F8018049EA0820FFF7EEFC641CB4F509
:101A7000C86FF1DB6D1C032DCEDB761C042EC9DB99
:101A800001204849087000BFBDE8F08700201649D2
:101A900008702A4908702E4908703E49087041496B
:101AA0000870704710B54FF400603F4908603F4828
:101AB0000078052811D2DFE800F00306090C0F00BA
:101AC000FFF776FE0DE0FFF759FF0AE0FFF7BFFED4
:101AD00007E0FFF701FF04E003E00020334908704E
:101AE00000BF00BF10BD000055000020B6AFB6AF6C
:101AF000B5E7D7D3BCBCCAF500000000D2BABEA778
:101B0000B2E2CAD4B3CCD0F200000000D1D5C9AB48
:101B1000CCEEB3E4B2E2CAD400000000CEC4D7D603
:101B2000CFD4CABEB2E2CAD400000000CDBCC6AC5D
:101B3000CFD4CABEB2E2CAD40000000056000020D2
:101B40004E756D2054657374000000005A0000202B
:101B500057000020D7A8D7A2D2BABEA7C5FAB7A20D
:101B600000000000C8ABB3CCBCBCCAF5D6A7B3D646
:101B70000000000054656C3A313132333930303076
:101B80003937350051513A313233343635363636FD
:101B90003900000058000020436F6C6F72205465BC
:101BA0007374000059000020100C01404000002018
:101BB00010B5FEF7EFFB174800681749B0FBF1F0CE
:101BC000164908601648006840F0807014490860A3
:101BD0001448006840F00100124908600020486085
:101BE00010BD104B59680D4B1B6800FB03F200BF82
:101BF0000C4B5B685B1A9342FAD3704730B50446CE
:101C0000002504E04FF47A70FFF7EBFF6D1CA5424E
:101C1000F8D330BD1800002040420F0064000020BF
:101C2000FCED00E0001000E0064880470648004751
:101C3000FEE7FEE7FEE7FEE7FEE7FEE7FEE7FEE77C
:101C4000FEE7FEE7470300083101000810B504462F
:101C5000CC48844208D10121042000F02DFB002152
:101C6000042000F029FB46E0C748844208D1012146
:101C7000082000F021FB0021082000F01DFB3AE0C5
:101C8000C248844208D10121102000F015FB002138
:101C9000102000F011FB2EE0BD48844208D1012144
:101CA000202000F009FB0021202000F005FB22E0AD
:101CB000B848844208D10121402000F0FDFA0021FB
:101CC000402000F0F9FA16E0B348844208D101211F
:101CD000802000F0F1FA0021802000F0EDFA0AE007
:101CE000AE48844207D10121801500F0E5FA0021B9
:101CF000A01500F0E1FA10BD10B50121084600F072
:101D0000DBFA0021012000F0D7FA10BD2DE9F041E7
:101D1000024600250026002000230024002791F819
:101D200003C00CF00F0591F803C00CF0100CBCF1CF
:101D3000000F03D091F802C04CEA050591F800C0ED
:101D4000BCF1000F31D0146800202BE04FF0010CE3
:101D50000CFA00F3B1F800C00CEA03069E4220D151
:101D600083004FF00F0C0CFA03F7BC4305FA03FC99
:101D70004CEA040491F803C0BCF1280F06D14FF0DF
:101D8000010C0CFA00FCC2F814C00AE091F803C080
:101D9000BCF1480F05D14FF0010C0CFA00FCC2F861
:101DA00010C0401C0828D1D31460B1F800C0BCF1A9
:101DB000FF0F34DD546800202EE000F1080C4FF0D6
:101DC000010808FA0CF3B1F800C00CEA03069E42C1
:101DD00021D183004FF00F0C0CFA03F7BC4305FA36
:101DE00003FC4CEA040491F803C0BCF1280F05D1B0
:101DF00000F1080C08FA0CF8C2F8148091F803C03E
:101E0000BCF1480F07D100F1080C4FF0010808FAA7
:101E10000CF8C2F81080401C0828CED35460BDE8EE
:101E2000F0814FF6FF710180022181700421C170A1
:101E300070470246002093680B400BB1012000E080
:101E4000002070470146886880B270470246002033
:101E5000D3680B400BB1012000E000207047014621
:101E6000C86880B2704701617047416170470AB12C
:101E7000016100E041617047C16070474FF48032FA
:101E80000A43826181618261826982697047024688
:101E90000020434B18684FF68073184040EA021048
:101EA00008433F4B186070473E49C8617047F0B522
:101EB0000A46002300240021002500F00046B6F168
:101EC000004F02D1364EF16901E0354E7168C0F322
:101ED000034583B200F44016B6F5401F08D121F047
:101EE00070612F4E766826F070662D4F7E6012E08E
:101EF00000F48016B6F5801F06D1032606FA05F415
:101F0000A14341F0706106E0460D360103FA06F682
:101F1000B14341F0706122B1460D360103FA06F675
:101F2000314300F00046B6F1004F02D11C4EF16182
:101F300001E01B4E7160F0BD30B500228B071C0F15
:101F40000F2303FA04F2164B08338C1053F8243095
:101F50009343134C08348D1044F8253023468C10DD
:101F600053F824308C07240F00FA04F423430C4C5C
:101F700008348D1044F8253030BD0A49DC31086042
:101F80007047000000080140000C014000100140B3
:101F90000014014000180140001C014000200140D5
:101FA0000000014000002042DF48006840F00100CE
:101FB000DD49086008464068DC490840DA49486065
:101FC00008460068DA490840D749086008460068B2
:101FD00020F4802008600846406820F4FE00486035
:101FE0004FF41F0088607047CF49096821F48031A1
:101FF000CD4A11601146096821F480211160B0F5C5
:10200000803F03D0B0F5802F0ED106E0C6490968A5
:1020100041F48031C44A116007E0C349096841F4C2
:10202000A021C14A116000E000BF00BF704710B599
:1020300001460022002300204A11012A02D1BA4C95
:10204000236806E0022A02D1B74C236A01E0B64CAD
:10205000636A01F01F02012494401C400CB101206E
:1020600000E0002010BD38B50020009000240025BD
:1020700000BF3120FFF7DBFF05460098401C0090B1
:102080000098B0F5A06F01D0002DF2D03120FFF7FD
:10209000CEFF08B1012400E00024204638BD0146EF
:1020A0000020A14A106820F0F80040EAC10010604A
:1020B0007047A04908607047024600209A4B586854
:1020C00020F47C1042EA01031843974B5860704794
:1020D00098490866704701460020934A506820F0EE
:1020E00003000843506070478F48406800F00C00C0
:1020F0007047014600208C4A506820F0F0000843E9
:102100005060704701460020874A506820F4E06024
:1021100008435060704701460020834A506820F40D
:10212000605040EAC1005060704729B17E4A527A3F
:1021300002437D4B5A7204E07B4A527A82437A4BC7
:102140005A7270477B49D8310860704701460020B9
:10215000754A506820F440400843506070470021A1
:10216000714A20321170704A82F82010012802D082
:1021700004280AD104E001216B4A2032117005E0E5
:102180000521694A2032117000E000BF00BF70478E
:102190006949086070476449096A0143624A1162EB
:1021A0007047654944390860704730B50021002206
:1021B000002400235C4D6D6805F00C0121B1042959
:1021C00005D0082923D105E05C4D056022E05B4D78
:1021D00005601FE0544D6D6805F47012524D6D6836
:1021E00005F48034022505EB92421CB9544D554349
:1021F00005600BE04C4D6D6805F400351DB1504D88
:102200005543056002E04D4D5543056002E04B4DDE
:10221000056000BF00BF444D6D6805F0F00109097D
:10222000484D6B5C0568DD4045603F4D6D6805F4C9
:10223000E061090A434D6B5C4568DD4085603A4DBD
:102240006D6805F46051C90A3E4D6B5C4568DD4020
:10225000C560354D6D6805F44041890B3A4D6B5CA6
:10226000C568B5FBF3F5056130BD29B12E4A526949
:1022700002432D4B5A6104E02B4A526982432A4B98
:102280005A61704729B1284A92690243264B9A61E4
:1022900004E0254A92698243234B9A61704729B131
:1022A000214AD2690243204BDA6104E01E4AD26916
:1022B00082431D4BDA61704729B11B4AD268024341
:1022C000194BDA6004E0184AD2688243164BDA6090
:1022D000704729B1144A12690243134B1A6104E092
:1022E000114A12698243104B1A61704712494039F2
:1022F000086070470F49C86470470B49C871704740
:102300000948406A40F080700749486270470146BA
:102310000020054A92680A400AB1012000E000202E
:102320007047014988727047001002400000FFF8B2
:10233000FFFFF6FE000042428004424200127A0093
:1023400000093D00680000207800002010B5044618
:10235000FB48844209D101218803FFF7ADFF00212A
:102360004FF48040FFF7A8FF32E0F648844209D1DD
:1023700001214804FFF7ADFF00214FF40030FFF7C3
:10238000A8FF25E0F048844209D101218804FFF725
:10239000A0FF00214FF48020FFF79BFF18E0EB48DF
:1023A000844209D10121C804FFF793FF00214FF4B3
:1023B0000020FFF78EFF0BE0E548844208D10121A1
:1023C0000805FFF786FF00214FF48010FFF781FF1B
:1023D00010BD2DE9F04786B005460E460024A24602
:1023E00000BFA1460027B08900B100BF2F462C8A4C
:1023F0004CF6FF700440F08804432C82AC894EF602
:10240000F3100440B08831890843718908430443BC
:10241000AC81AC8A4FF6FF400440B0890443AC82E3
:1024200001A8FFF7C2FEC648874202D1DDF810A01E
:1024300001E0DDF80CA0A88900F4004040B10AEBEF
:10244000CA0000EB0A1031684900B0FBF1F807E060
:102450000AEBCA0000EB0A1031688900B0FBF1F802
:102460006420B8FBF0F004012009642101FB10890D
:10247000A88900F4004040B1322000EBC900B0FB55
:10248000F1F000F00700044308E0322000EB0910EF
:102490006421B0FBF1F000F00F0004432C8106B082
:1024A000BDE8F0874FF41651016000218180C180A2
:1024B00001810C21418100218181704710B50246C4
:1024C0000020108A4FF2FF0318400B884C882343EA
:1024D0008C882343CC8823431843108210BD0021ED
:1024E000018041808180C180704721B1828942F49E
:1024F0000052828104E082894DF6FF731A40828186
:102500007047F0B50346002400260025002040F661
:102510006A17B94200D100BF1846C1F3421401F056
:102520001F06012707FA06F5012C01D10C3004E043
:10253000022C01D1103000E014301AB107682F438B
:10254000076002E00768AF430760F0BD1AB1838AF5
:102550000B43838202E0838A8B4383827047028A23
:102560004FF6F0731A400282028A0A4302827047D1
:1025700082894FF2FF731A40828182890A438281E5
:10258000704721B1828942F00202828104E082898F
:102590004FF6FD731A4082817047028A4FF6DF734F
:1025A0001A400282028A0A430282704721B1028ADB
:1025B00042F48042028204E0028A4BF6FF731A4022
:1025C00002827047C1F30802828070470146888802
:1025D000C0F308007047818941F001018181704793
:1025E000028BD2B20283028B42EA0122028370473D
:1025F000028B02F47F420283028B0A4302837047FC
:1026000021B1828A42F02002828204E0828A4FF65F
:10261000DF731A408282704721B1828A42F0100231
:10262000828204E0828A4FF6EF731A4082827047FA
:1026300021B1828A42F00802828204E0828A4FF647
:10264000F7731A408282704721B1828942F40042B6
:10265000828103E08289C2F30E028281704721B138
:10266000828A42F40062828204E0828A4FF2FF731F
:102670001A4082827047828A4FF6FB731A40828228
:10268000828A0A438282704721B1828A42F0020222
:10269000828204E0828A4FF6FD731A40828270477C
:1026A00002460020B1F5007F00D100BF13880B4027
:1026B0000BB1012000E00020704701F40072B2F578
:1026C000007F00D100BFCA430280704770B5024648
:1026D000002400230025002040F66A16B14200D1F4
:1026E00000BFC1F3421501F01F03012606FA03F3F0
:1026F000012D02D19689334006E0022D02D1168ABF
:10270000334001E0968A33400C12012606FA04F4A5
:102710001688344013B10CB1012000E0002070BDD8
:1027200010B50022002340F66A14A14200D100BF78
:102730000A1201249440A3B2DC43048010BD0000BF
:10274000003801400044004000480040004C004078
:102750000050004031490143314A1160704770B563
:10276000002100230F22C47804B32D4C246804F404
:10277000E064C4F5E064210AC1F10403CA4044786E
:1027800004FA03F18478144021430901254C0678AA
:10279000A155047804F01F050124AC4005786D11A3
:1027A000AD0005F1E025C5F8004109E0047804F02A
:1027B0001F050124AC401C4D0678761145F82640D3
:1027C00070BD1A4A0A400243154B1B1F1A6070471E
:1027D00039B1134A121D12680243114B1B1D1A60B6
:1027E00006E00F4A121D126882430D4B1B1D1A6032
:1027F0007047042808D14FF0E021096941F0040135
:102800004FF0E022116107E04FF0E021096921F06B
:1028100004014FF0E0221161704700000000FA054A
:102820000CED00E000E400E080E100E080FFFF1F2D
:1028300001684FF6FE7211400160002101604160A5
:102840008160C1608D49884208D18C490839496846
:1028500041F00F01894A083A51608AE087491431F2
:10286000884208D185490839496841F0F001834A16
:10287000083A51607DE081492831884208D17F497A
:102880000839496841F470617C4A083A516070E047
:102890007A493C31884208D178490839496841F47D
:1028A0007041764A083A516063E074495031884279
:1028B00008D172490839496841F470216F4A083AD1
:1028C000516056E06D496431884208D16B4908393E
:1028D000496841F47001694A083A516049E0674922
:1028E0007831884208D165490839496841F07061FA
:1028F000624A083A51603CE06149884206D1011FB2
:10290000096841F00F01021F116032E05C49143187
:10291000884208D15A49091F096841F0F001584A14
:10292000121F116025E056492831884208D15449C8
:10293000091F096841F47061514A121F116018E0C3
:102940004F493C31884208D14D49091F096841F47B
:1029500070414B4A121F11600BE0494950318842C7
:1029600007D14749091F096841F47021444A121FE1
:102970001160704710B50022026847F6F0739A4361
:102980000C6A8B6823430C6923434C6923438C698D
:102990002343CC6923434C6A23438C6A23431A4361
:1029A0000260CB6843600B6883604B68C36010BDF6
:1029B0000021016041608160C1600161416181610C
:1029C000C161016241628162704721B1026842F0D7
:1029D0000102026004E002684FF6FE731A400260D2
:1029E00070471AB103680B43036002E003688B432E
:1029F00003607047416070470146486880B2704785
:102A000001460020002201F080531BB11C4B083B03
:102A10001A6802E0194B083B1A6802EA01030BB17D
:102A2000012000E00020704700F0805119B11449E6
:102A3000091F086002E011490839486070470146E3
:102A40000020002201F080531BB10D4B083B1A6897
:102A500002E00A4B083B1A6802EA01030BB10120AD
:102A600000E00020704700F0805119B10449091FAF
:102A7000086002E0014908394860704708000240D8
:102A800008040240064C074D06E0E06840F00103F0
:102A900094E8070098471034AC42F6D3FDF74CFB9E
:102AA000A0440008C044000802E008C8121F08C182
:102AB000002AFAD170477047002001E001C1121FBF
:102AC000002AFBD170470000000000000000000059
:102AD0000000000000000010101010101010101066
:102AE00000001010000000006C6C242400000000A6
:102AF0000100000000000024242424FE4848484827
:102B0000FC909090900000103C5492905038141219
:102B10001292547810000000225C94A848101024EF
:102B20002A5254880000000030484850206E5494C7
:102B30008C888A7400000000303010100000000003
:102B400000000000000000040810102020202020B9
:102B500020101008040000804020201010101010D9
:102B6000102020408000000000001054381038541D
:102B700010000000000000000010101010FE1010E7
:102B80001010000000000000000000000000000025
:102B900000001010200000000000000000FE0000F7
:102BA0000000000000000000000000000000000025
:102BB000000010100000000004040808101020207D
:102BC00040408080000000003844828282828282FD
:102BD0008282443800000000107010101010101095
:102BE0001010107C0000000038448282040810207D
:102BF000408284FC00000000384482020438040251
:102C00000282443800000000040C141424244444BC
:102C1000FE04040E00000000FC808080B8C4820224
:102C200002828478000000003C428280B8C4828224
:102C300082824438000000007E42820404080808B2
:102C40001010101000000000384482824438448282
:102C50008282443800000000384482828282463AF0
:102C60000282443800000000000010100000000044
:102C70001010000000000000000010100000000014
:102C8000001010200000000000000618608060188E
:102C9000060000000000000000000000FE0000FE32
:102CA00000000000000000000000C0300C020C30EA
:102CB000C0000000000000384482820204081010A6
:102CC00010001010000000003844829AAAAAAAAA94
:102CD000AA9680423C000000101010282828444486
:102CE0007C4444EE00000000FC424242427C4242EE
:102CF000424242FC000000003C4482808080808090
:102D00008282443800000000F8444242424242427B
:102D1000424244F800000000FC444240447C4440ED
:102D2000404244FC00000000FC444240447C4440DB
:102D3000404040F000000000344C828080808E844F
:102D400084844C3400000000EE444444447C4444F9
:102D5000444444EE000000007C10101010101010CD
:102D60001010107C000000003E0808080808080841
:102D70000888887000000000EE44484850605048C1
:102D8000484444EE00000000E040404040404040E5
:102D9000404244FC00000000C6446C6C6C54545427
:102DA000444444EE00000000CE4464646454544C37
:102DB0004C4C44E4000000003844828282828282CB
:102DC0008282443800000000F84442424244784085
:102DD000404040E0000000003844828282828282CB
:102DE00082BA443C02000000F04844444448704821
:102DF000444444E6000000003C44828040300C0221
:102E000002824478000000007C54921010101010D0
:102E10001010103800000000EE4444444444444480
:102E20004444443800000000EE4444444428282828
:102E30002810101000000000EE4454545454545410
:102E40002828282800000000EE44442828101028D4
:102E5000284444EE00000000EE44442828281010C6
:102E600010101038000000007E4484080810202054
:102E7000408284FC0000001C101010101010101074
:102E8000101010101C000000EE445454FE54545412
:102E900028282828000000701010101010101010A2
:102EA0001010101070000030488400000000000076
:102EB0000000000000000000000000000000000012
:102EC00000000000FE0000402000000000000000A4
:102ED0000000000000000000000000007884047C76
:102EE00084848C7600000000C04040405864424218
:102EF0004242645800000000000000003844808016
:102F000080804438000000000C040404344C8484A5
:102F100084844C360000000000000000788484FCAB
:102F2000808084780000000018242020F8202020D1
:102F30002020207000000000000000003A44447887
:102F4000807C82827C000000C04040405864444441
:102F5000444444EE00000000101000003010101037
:102F60001010103800000000101000003010101079
:102F70001010109060000000C04040405C4850605D
:102F8000504844EE000000003010101010111010D6
:102F9000101010390000000000000000ACD2929226
:102FA000929292D6000000000000000058E44444D1
:102FB000444444EE000000000000000038448282D7
:102FC000828244380000000000000000D8644242C1
:102FD00042645840E000000000000000364C848449
:102FE000844C34040E000000000000006C302020EF
:102FF000202020700000000000000000788884601D
:10300000188444780000000000202020F8202020B0
:10301000202024180000000000000000C6424242A8
:103020004242463A0000000000000000EE444428FE
:10303000282810100000000000000000EE44445456
:10304000542828280000000000000000EE4428104A
:10305000102844EE0000000000000000EE44442868
:10306000281010A0C0000000000000007E4488105E
:10307000204284FC0000000C101010101060101092
:10308000101010100C000010101010101010101064
:1030900010101010100000C0202020202018202028
:1030A00020202020C00000000000000000728C00E2
:1030B0000000000000000000000000001FE0000011
:1030C0003FF000003FF000001FE000018006000319
:1030D000C00F0003C00F0003C00F0003C00F0003A8
:1030E000C00F0003C00F0003C00F0003C00F000398
:1030F00000030000000000000000000000000003CA
:1031000000030003C00F0003C00F0003C00F000343
:10311000C00F0003C00F0003C00F0003C00F000367
:10312000C00F0001800600001FE000003FF000001B
:103130003FF000001FE00000000000000000000061
:103140000080000001800000038000000780000074
:103150000780000007800000078000000780000053
:103160000780000007800000078000000780000043
:1031700001800000000000000000000000000000CE
:103180000180000007800000078000000780000029
:103190000780000007800000078000000780000013
:1031A000078000000780000003800000018000000D
:1031B0000080000000000000000000001FE0000090
:1031C0003FF00000FFF00001FFE0000000060000FB
:1031D000000F0000000F0000000F0000000F0000B3
:1031E000000F0000000F0000000F0000000F0000A3
:1031F0001FE300007FF800007FF800001FE00003DD
:1032000000000003C0000003C0000003C000000372
:10321000C0000003C0000003C0000003C0000003A2
:10322000C0000001800000001FF000003FF8000017
:103230003FFC00001FFE000000000003FF800001B3
:10324000FFC00000FFC000007F80000000180000E9
:10325000003C0000003C0000003C0000003C00007E
:10326000003C0000003C0000003C0000003C00006E
:103270007F8C0001FFE00001FFF000007F80000074
:10328000000C0000003C0000003C0000003C00007E
:10329000003C0000003C0000003C0000003C00003E
:1032A000003C0000001800007F800000FFC000010B
:1032B000FFC00003FF8000000000000000000002CB
:1032C000000100030003000380070003C00F000398
:1032D000C00F0003C00F0003C00F0003C00F0003A6
:1032E000C00F0003C00F0003C00F0003C00F000396
:1032F0001FE300007FF800007FFC00001FE00000DB
:1033000000030000000F0000000F0000000F00008D
:10331000000F0000000F0000000F0000000F000071
:10332000000F0000000F0000000700000003000075
:103330000001000000000000000000001FFC000071
:103340003FF800003FF000001FE000018000000394
:10335000C0000003C0000003C0000003C000000361
:10336000C0000003C0000003C0000003C000000351
:103370001FE000007FF800007FF800001FE0000061
:1033800000030000000F0000000F0000000F00000D
:10339000000F0000000F0000000F0000000F0000F1
:1033A000000F0000000600003FE000007FF000007A
:1033B000FFF00001FFE00000000000001FFC000023
:1033C0003FF800003FF000001FE000018000000314
:1033D000C0000003C0000003C0000003C0000003E1
:1033E000C0000003C0000003C0000003C0000003D1
:1033F0001FE000007FF800007FFC00001FE00003DA
:1034000000030003C00F0003C00F0003C00F000340
:10341000C00F0003C00F0003C00F0003C00F000364
:10342000C00F0001800600001FE000003FF0000018
:103430003FF000001FE0000000000007FFE0000375
:10344000FFC00001FF880000FF18000000380000E6
:10345000007800000078000000780000007800008C
:10346000007800000078000000780000007800007C
:103470000018000000000000000000000000000034
:1034800000180000007800000078000000780000BC
:10349000007800000078000000780000007800004C
:1034A00000780000007800000038000000180000DC
:1034B0000008000000000000000000001FE0000005
:1034C0003FF000003FF000001FE000018006000315
:1034D000C00F0003C00F0003C00F0003C00F0003A4
:1034E000C00F0003C00F0003C00F0003C00F000394
:1034F0001FE300007FF800007FFC00001FE00003D6
:1035000000030003C00F0003C00F0003C00F00033F
:10351000C00F0003C00F0003C00F0003C00F000363
:10352000C00F0001800600001FE000003FF0000017
:103530003FF000001FE00000000000001FE000005E
:103540003FF000003FF000001FE000018006000394
:10355000C00F0003C00F0003C00F0003C00F000323
:10356000C00F0003C00F0003C00F0003C00F000313
:103570001FE300007FF800007FFC00001FE0000058
:1035800000030000000F0000000F0000000F00000B
:10359000000F0000000F0000000F0000000F0000EF
:1035A000000F0000000600001FE000003FF00000D8
:1035B0007FF00000FFE000000000000000000000BD
:1035C00000000000000000000000000000000000FB
:1035D00000000000000000000000000000000000EB
:1035E00000000000000000000000000000000000DB
:1035F00000000000000000000000000000000000CB
:103600000000000000000000000000007800000042
:1036100078000000780000007800000078000000CA
:103620007800000000000000000000000000000022
:10363000000000000000000000000000000000008A
:10364000000000000000000000000000000000007A
:103650000000000000000000070000000F800000D4
:103660000F8000000F800000070000000000000035
:10367000000000000000000000000000000000004A
:1036800000000000070000000F8000000F80000015
:103690000F80000007000000000000000000000094
:1036A000000000000000000000000000000000001A
:1036B000000000000000000000000000000000000A
:1036C0000000000000000007C006000FE006000038
:1036D000000C003018180030181800301830003076
:1036E000183000301860003008C00007C0C0000F5C
:1036F000E080000000000000000FE0000607C000AE
:10370000063018000C3018000C3018001830180063
:10371000303018003030180060000000C00FE000AA
:10372000C007C00000000000000000000000000012
:103730000000000000000000000000000000000089
:103740000000000000000000000000000000000772
:1037500000E0000887FC00088E030008980180073D
:1037600018008000300000003000000070000000F1
:1037700060000000600000006000000060000000C9
:103780006000000070000000300000003000000009
:1037900038000000180100000C03000007FC0000C6
:1037A00001F0000000000000000000000000000028
:1037B0000000000000000000000000000000000009
:1037C00000000000000000000000000000000000F9
:1037D00000000000000000000000000000000000E9
:1037E00000000000000000000000000000000000D9
:1037F000000000003FF000007FF000007FE00000CC
:10380000FFC00000000000000000000000000000F9
:1038100000000000000000000000000000000000A8
:103820000000000000000000000000000000000098
:103830000000000000000000B5E7020002000200E6
:103840007FF0421042107FF0421042107FF04200A1
:103850000208020801F800000000D7D37FF0002022
:103860000040008001000200FFF802000200020098
:103870000200020002000E0000000000C8AB0100C0
:10388000010002800440082010102FE8C10601004A
:1038900001001FF00100010001007FFC0000B6AF35
:1038A000004000407C40004001FC0044FE442044B5
:1038B0002044208448844484FD04450402280410E4
:1038C000BCBC10201020102013FEFC201020102063
:1038D00015FC18843088D0481050102010505188A2
:1038E0002606CAF501000120011001107FFC0380AB
:1038F0000540054009201110210841040102010082
:1039000001000100D2BA0080404027F81140014078
:103910008278424816A81AD02350222042204250D2
:10392000028800000000BEA73FE020203FE02020EA
:103930003FE00000FDF885088508FDF8850885084A
:10394000FDF8850800000000B2E200084F882888D2
:103950000AA88AA84AA80AA82AA82AA84228450884
:1039600084888888103800000000CAD4405020485D
:1039700020400FF80040E040274022402240222013
:103980002A2833A82E18000800000000B3CC00003D
:103990001BF0E210221023F0F800200033F06880C2
:1039A0006080A3F02080208027F800000000D0F283
:1039B000020001003FF820002FF02020224021804B
:1039C0003FF82088209040804080838000000000E5
:1039D000D1D5200010F87E20444028F87E8848A8E1
:1039E00050A864A848A872A88450188861080000EC
:1039F0000000C9AB100010003FE0404080807FF025
:103A00004210421042107FF04000400840083FF84A
:103A100000000000CCEE20802FF8208027F0F4106A
:103A200027F0241027F0241027F03410CFF80220BC
:103A3000041000000000B3E404000200FFF80800D6
:103A4000104020207FF008900880088008801088AF
:103A50002088C07800000000CEC4040002000200EC
:103A6000FFF81040104008800880050002000500A3
:103A700008803060C01800000000D7D604000200A3
:103A8000FFF8800880083FC0008001000200FFF8B6
:103A90000200020002000E0000000000CFD43FE050
:103AA000202020203FE0202020203FE00880489078
:103AB000289028A008800880FFF800000000CABEF7
:103AC00000003FE0000000000000FFF8020012408C
:103AD000122022104208820802000E00000000009E
:103AE000CDBC7FF84008440847C84848548843087C
:103AF0004CC8733840884C08430840887FF8000061
:103B00000000C6AC00802080208020803FF0200094
:103B1000200020003FC02040204020404040804006
:103B200000000000B4A520403840484091F07D508E
:103B3000555055507D5055F054407C40545057F8E6
:103B40008C0800000000C3FE2220222027F8FA2063
:103B500027F0241027F03410E7F020802FF82140C0
:103B60002220EC1800000000CAE440804140F2200E
:103B700044108BE8A000F78824A827A834A8E7A859
:103B800024A8248825B800000000C8EB0800040021
:103B900004000200020005000500088008801040B3
:103BA000104020204010800800000000C8AB020038
:103BB00002000500088010402020DFD8020002002B
:103BC0001FC0020002000200FFF800000000B3CC9A
:103BD00000001BF0E210221023F0F800200033F068
:103BE00068806080A3F02080208027F8000000001B
:103BF000BCBC208020802080F7F02080208027E03F
:103C00003220E2202140208021402220EC180000B8
:103C10000000CAF50200024002200200FFF807007F
:103C20000A800A801240222042108208020002000C
:103C300000000000D6A702000200FFF80200020008
:103C40007FE010201040088005000200050018C029
:103C5000E03800000000B3D62080208023F0F880F8
:103C6000208027F828203020E7F82020222021205B
:103C70002020E0E000000000D7A8020002007FF052
:103C800004000400FFF8080010003FE0002000409E
:103C90001C800300008000000000D7A201004080CB
:103CA000200017F0008080804080008017F0108096
:103CB0002080208040804FF800000000C5FA20409E
:103CC00024402440F4482450276024403440E440F9
:103CD0002440244025482648E43800000000B7A2CC
:103CE00002002220221044007FF8040008000FE0A8
:103CF000142024404280810006C0383800000000B3
:103D0000B3C900A0009000807FF8408040907C9074
:103D1000449044A044A0444858A841188208000098
:103D20000000B9A601000100F90023F021102110C4
:103D30002110211021103910C21002100410086047
:103D400000000000D2C60000002000780CE47904D6
:103D5000516810307E6019981A3C2FE448E4083806
:103D6000003000600000D1A100000120012003FC10
:103D700062203420042003FC240021B021202220D2
:103D8000323E18000FE00000D4F10000000010FCEB
:103D90001304110C3DF8703E10D015907CF0503E8D
:103DA00018101BFE023000200000CFEE00000000C3
:103DB00003FE00607C4012FC110411061136112430
:103DC0001F44794400C0009C01860000C4BF00006D
:103DD00000000FE03C18200820043E04600460044A
:103DE0007E046004200C20081FF001800000B6CC87
:103DF0000000080011FC103E3EF82D8C29044904F7
:103E000009043E8C50FC10881EC811FC100E0000E6
:103E1000B0B400000040006012FE13023A427F443A
:103E200010C41BFE3C987190113011A00078004C1A
:103E30000000C8B70000004000F878C41F8C31387B
:103E400021EC2126413A7DE2272225FA3D26012454
:103E500001040000B6A80000010001705FFC7004BE
:103E600020042FF801001100113821C431003F0057
:103E700063E040380000B3A40000000008180860A8
:103E800008C00B001E00181C7FF01000118010E00D
:103E90001838098E0F000000B0B400000040006028
:103EA00012FE13023A427F4410C41BFE3C987190EC
:103EB000113011A00078004C0000B7B500000000E0
:103EC00007F80600240014F8078C040424082618B8
:103ED00025F0647C64C220801FC00000BBD80000B5
:103EE00000001FF030182008278C2C442844284458
:103EF0002CC427842004300C1FF80380000000002D
:103F000000000000000000000000000000000000B1
:103F100000000000000000000000000000000000A1
:103F2000B4BF000000000000020100063FC00C3FCB
:103F3000E01803001002003336603726203E66305A
:103F40001C643018642031FEE03F1FC01C0C0000D0
:103F50000C000704003E07F00001C0000000000054
:103F600000000000000000000000C9AB00000000DD
:103F7000000001FE0003E3000703000C03001C3FE8
:103F8000003BFFC03F30600C30200C30200C102074
:103F90000C10600FFFC0083F000800000800600E12
:103FA0003FE007FC000000000000000000000000EF
:103FB00000000000CCEE0000000000000003000044
:103FC000FFE00C07F00C06000CFF803FF0E01FC084
:103FD000600CFE300CCC3004F83004FF2004C0200C
:103FE0001FFE603EC06001FFF001FFF00060600056
:103FF0004000000000000000000000000000B3E4EA
:1040000000000000000000200000300007FFF03F2B
:10401000FFE00300000601800C01800801C01807C2
:10402000E00FFE7007E00002060006040004040032
:104030000404000C06700C07E00000000000000003
:104040000000000000000000B2E2000000000000DC
:1040500000003039FC301FCC300706B00F06F019D5
:1040600007B03137B03136F01F27F00167F001E5B6
:10407000F001E1F00041F00CF8B03CD830008C3099
:104080000080300000000000000000000000000080
:104090000000CAD40000000000000803600C037098
:1040A0000C0330003FE0003F800801003C01800429
:1040B0007F80047D800C00800C10C00C10C00C1898
:1040C000400C1C600F7E6006703000003000000065
:1040D000000000000000000000000000CEC400004E
:1040E0000000C00000E00000700001FFE01FFFC002
:1040F000180100000300000600000E00001C000E66
:10410000180007300001E00000F00000FC00018F03
:10411000000303C00201E0000000000000000000F6
:10412000000000000000D7D60000000000000020C2
:1041300000003F0031FFE03FC02038003030FE205B
:1041400033C660100200000C0000180000180000C8
:104150000C0007FFE03FFFE0000400000C00000C33
:10416000000000000000000000000000000000004F
:10417000CFD400000000000007FF000F03C00C00B8
:10418000401FF8601800600800400E01C007FF00E3
:104190000000000184000184001987800F8CE00773
:1041A0008C2000CC0003FFE01FFFC00000000000D7
:1041B00000000000000000000000CABE0000000077
:1041C00000000E00001FFFC0007FE00000000000A4
:1041D00000000000000000003FC03FFFE000300092
:1041E0000030000030000613000C13C00C18F0184B
:1041F0001800181800000000000000000000000077
:1042000000000000CDBC00000000000007FF000F10
:1042100003801CC0C019FC6011C66033062033E661
:104220003036FF30301FF030703030FC30339F308C
:1042300036002010E060187C400E01C003FF000033
:104240003800000000000000000000000000C6ACC4
:1042500000000000000008180018080018080018E6
:104260000800180C201FFFF01FF8001800001000B5
:104270000010F8001FFE001E0300100300100300D2
:1042800010030010030018020000000000000000EE
:104290000000000000000000CFD40000000000007B
:1042A00007FF000F03C00C00401FF86018006008F3
:1042B00000400E01C007FF000000000184000184DF
:1042C000001987800F8CE0078C2000CC0003FFE0F2
:1042D0001FFFC00000000000000000000000000000
:1042E0000000CABE0000000000000E00001FFFC05A
:1042F000007FE0000000000000000000000000005F
:104300003FC03FFFE00030000030000030000613E7
:10431000000C13C00C18F01818001818000000004A
:10432000000000000000000000000000B4A5000034
:10433000000000000601800FC1801E6180304FC068
:1043400020CFE0078D303FC9303379303379303FAB
:10435000FB3037FF203267E03FE3803FE3C032634A
:10436000603267F0304FB000000000000000000035
:10437000000000000000C3FE00000000000000304C
:10438000C000FFF00C79C00C1F800C7FE03FE060A4
:104390000CC0300CFC3004C03007C0301E60603CE4
:1043A0003FC0041C00047FE000FFE00030C000605C
:1043B000600000000000000000000000000000009D
:1043C000CAE40000000000000C03800C0FC0081CB1
:1043D000703F70001F9FC0101FC0100000367C305F
:1043E00017E6301FE3B0067FB00277F007E3F03F37
:1043F0007FF01336F0032630032630000000000063
:1044000000000000000000000000C8EB00000000F9
:10441000000006000003800001C00000E000007002
:104420000000780000CC0000C6000183000301807A
:104430000700C00600E00C007018003018000030C3
:10444000000000000000000000000000000000006C
:10445000000000000000000000000000000000005C
:10446000000000000000000000000000000000004C
:10447000000000000000000000000000000000003C
:10448000000000000000000000000000000000002C
:10449000000000000000000000000000000000001C
:1044A000C0440008000000207C000000A82A00088A
:1044B0003C4500087C00002014040000B82A0008D5
:1044C00000000A000A000000C10600080000F40114
:1044D000F4010000A51A000800A24A040000000030
:1044E00000000000010203040607080901000000A3
:1044F0000008014000010000001401400400000019
:1045000000000000000000000000000000000000AB
:10451000000000000000000000000001020304058C
:104520000607080900000000000000000102030463
:0C45300001020304060708090204060843
:0400000508000131BD
:00000001FF
